{
  "_format": "hh-sol-artifact-1",
  "contractName": "SimpleSwap",
  "sourceName": "contracts/SimpleSwap.sol",
  "abi": [
    {
      "inputs": [
        {
          "internalType": "address",
          "name": "tokenA",
          "type": "address"
        },
        {
          "internalType": "address",
          "name": "tokenB",
          "type": "address"
        },
        {
          "internalType": "uint256",
          "name": "amountADesired",
          "type": "uint256"
        },
        {
          "internalType": "uint256",
          "name": "amountBDesired",
          "type": "uint256"
        },
        {
          "internalType": "uint256",
          "name": "amountAMin",
          "type": "uint256"
        },
        {
          "internalType": "uint256",
          "name": "amountBMin",
          "type": "uint256"
        },
        {
          "internalType": "address",
          "name": "to",
          "type": "address"
        },
        {
          "internalType": "uint256",
          "name": "deadline",
          "type": "uint256"
        }
      ],
      "name": "addLiquidity",
      "outputs": [
        {
          "internalType": "uint256",
          "name": "amountA",
          "type": "uint256"
        },
        {
          "internalType": "uint256",
          "name": "amountB",
          "type": "uint256"
        },
        {
          "internalType": "uint256",
          "name": "liquidity",
          "type": "uint256"
        }
      ],
      "stateMutability": "nonpayable",
      "type": "function"
    },
    {
      "inputs": [
        {
          "internalType": "uint256",
          "name": "amountIn",
          "type": "uint256"
        },
        {
          "internalType": "uint256",
          "name": "reserveIn",
          "type": "uint256"
        },
        {
          "internalType": "uint256",
          "name": "reserveOut",
          "type": "uint256"
        }
      ],
      "name": "getAmountOut",
      "outputs": [
        {
          "internalType": "uint256",
          "name": "amountOut",
          "type": "uint256"
        }
      ],
      "stateMutability": "pure",
      "type": "function"
    },
    {
      "inputs": [
        {
          "internalType": "address",
          "name": "tokenA",
          "type": "address"
        },
        {
          "internalType": "address",
          "name": "tokenB",
          "type": "address"
        }
      ],
      "name": "getPrice",
      "outputs": [
        {
          "internalType": "uint256",
          "name": "price",
          "type": "uint256"
        }
      ],
      "stateMutability": "view",
      "type": "function"
    },
    {
      "inputs": [
        {
          "internalType": "address",
          "name": "tokenA",
          "type": "address"
        },
        {
          "internalType": "address",
          "name": "tokenB",
          "type": "address"
        },
        {
          "internalType": "uint256",
          "name": "liquidity",
          "type": "uint256"
        },
        {
          "internalType": "uint256",
          "name": "amountAMin",
          "type": "uint256"
        },
        {
          "internalType": "uint256",
          "name": "amountBMin",
          "type": "uint256"
        },
        {
          "internalType": "address",
          "name": "to",
          "type": "address"
        },
        {
          "internalType": "uint256",
          "name": "deadline",
          "type": "uint256"
        }
      ],
      "name": "removeLiquidity",
      "outputs": [
        {
          "internalType": "uint256",
          "name": "amountA",
          "type": "uint256"
        },
        {
          "internalType": "uint256",
          "name": "amountB",
          "type": "uint256"
        }
      ],
      "stateMutability": "nonpayable",
      "type": "function"
    },
    {
      "inputs": [
        {
          "internalType": "uint256",
          "name": "amountIn",
          "type": "uint256"
        },
        {
          "internalType": "uint256",
          "name": "amountOutMin",
          "type": "uint256"
        },
        {
          "internalType": "address[]",
          "name": "path",
          "type": "address[]"
        },
        {
          "internalType": "address",
          "name": "to",
          "type": "address"
        },
        {
          "internalType": "uint256",
          "name": "deadline",
          "type": "uint256"
        }
      ],
      "name": "swapExactTokensForTokens",
      "outputs": [],
      "stateMutability": "nonpayable",
      "type": "function"
    }
  ],
  "bytecode": "0x6080604052348015600f57600080fd5b506120fe8061001f6000396000f3fe608060405234801561001057600080fd5b50600436106100575760003560e01c8063054d50d41461005c57806338ed17391461008c578063ac41865a146100a8578063baa2abde146100d8578063e8e3370014610109575b600080fd5b61007660048036038101906100719190611780565b61013b565b60405161008391906117e2565b60405180910390f35b6100a660048036038101906100a191906118c0565b61023b565b005b6100c260048036038101906100bd919061195a565b610932565b6040516100cf91906117e2565b60405180910390f35b6100f260048036038101906100ed919061199a565b610bda565b604051610100929190611a3c565b60405180910390f35b610123600480360381019061011e9190611a65565b6111ce565b60405161013293929190611b1b565b60405180910390f35b6000610151678ace4629c073c7c060c01b611637565b6101656702f990c9c2abf28f60c01b611637565b610179670154723a64a48dcd60c01b611637565b61018d6705947243cdb31e3660c01b611637565b60008411801561019d5750600083115b80156101a95750600082115b6101e8576040517f08c379a00000000000000000000000000000000000000000000000000000000081526004016101df90611baf565b60405180910390fd5b6101fc677da586c7e9a4ff1f60c01b611637565b6102106758d65456ca8d7d1560c01b611637565b838361021c9190611bfe565b82856102289190611c32565b6102329190611ca3565b90509392505050565b61024f6739880ee4b505206560c01b611637565b6102636711c3cb141e139c4060c01b611637565b610277678601d5443ece286860c01b611637565b61028b6720a006bf56f19a7b60c01b611637565b600284849050146102d1576040517f08c379a00000000000000000000000000000000000000000000000000000000081526004016102c890611d20565b60405180910390fd5b6102e567562d94b496e1876960c01b611637565b6102f967b6996a54b6cc667560c01b611637565b61030d67d00680ee44c5c17760c01b611637565b61032167f3d8371c0636254560c01b611637565b80421115610364576040517f08c379a000000000000000000000000000000000000000000000000000000000815260040161035b90611d8c565b60405180910390fd5b6103786745f3a403ca93dd2a60c01b611637565b61038c67d8de5a057677cfe160c01b611637565b61039f66e8bd7a053f288b60c01b611637565b6000848460008181106103b5576103b4611dac565b5b90506020020160208101906103ca9190611ddb565b90506103e067bef1c649c682e7ed60c01b611637565b6103f467059b979adf1852b660c01b611637565b60008585600181811061040a57610409611dac565b5b905060200201602081019061041f9190611ddb565b905061043567ed7bb20810c456bc60c01b611637565b61044967055f59ffdda2936e60c01b611637565b6000610455838361163a565b905061046b67f158492690a7cb2060c01b611637565b61047f67763fcee25f414b6960c01b611637565b600080600083815260200190815260200160002090506104a967450e42cc23bfa5a060c01b611637565b6104bd67b4ff4a5ba86c6b4360c01b611637565b60006104d367f677c8136060785260c01b611637565b6104e76790b780167ec6a3c660c01b611637565b60006104fd67ff55417914f63ecf60c01b611637565b61051167ac22899e3f0fd5a160c01b611637565b8473ffffffffffffffffffffffffffffffffffffffff168673ffffffffffffffffffffffffffffffffffffffff161015610594576105596736d58a7506a6755560c01b611637565b61056d67fa4a1356212378bd60c01b611637565b826000015491506105886781c1af45d65e29ee60c01b611637565b826001015490506105df565b6105a8673ae1d9e1f088bf1260c01b611637565b6105bc67820c26bbfe56d91c60c01b611637565b826001015491506105d76720dc0e3047cccf9260c01b611637565b826000015490505b6105f3678e8fd7b0f99ccfa860c01b611637565b610607676c7e0d452bf4d57d60c01b611637565b8573ffffffffffffffffffffffffffffffffffffffff166323b872dd33308f6040518463ffffffff1660e01b815260040161064493929190611e17565b6020604051808303816000875af1158015610663573d6000803e3d6000fd5b505050506040513d601f19601f820116820180604052508101906106879190611e86565b5061069c67d6f180f66103e1ae60c01b611637565b6106b06739c7c1efaff2d43360c01b611637565b60006106bd8d848461013b565b90506106d3678aeba059d35c7fec60c01b611637565b6106e767d29705a21be0aac860c01b611637565b6106fb67b2e15163fa79f3a560c01b611637565b8b81101561073e576040517f08c379a000000000000000000000000000000000000000000000000000000000815260040161073590611eff565b60405180910390fd5b6107526728629ceb33a64c9c60c01b611637565b6107666723f624e8c1aec5e460c01b611637565b61077a67ab4620e2daa9acb060c01b611637565b8573ffffffffffffffffffffffffffffffffffffffff168773ffffffffffffffffffffffffffffffffffffffff161015610817576107c26742b723ecf012727560c01b611637565b6107d6670c4dd4163dc3527460c01b611637565b8c836107e29190611bfe565b84600001819055506107fe67314b56c6e13e811260c01b611637565b808261080a9190611f1f565b846001018190555061087c565b61082b670147a40c4e697eeb60c01b611637565b61083f67f8da7a351cada15460c01b611637565b8c8361084b9190611bfe565b846001018190555061086767df6c027fb03e4dbb60c01b611637565b80826108739190611f1f565b84600001819055505b61089067410d3bd235feec8d60c01b611637565b6108a4677965ec411d6f554960c01b611637565b8573ffffffffffffffffffffffffffffffffffffffff1663a9059cbb8a836040518363ffffffff1660e01b81526004016108df929190611f53565b6020604051808303816000875af11580156108fe573d6000803e3d6000fd5b505050506040513d601f19601f820116820180604052508101906109229190611e86565b5050505050505050505050505050565b6000610948672fae47efd2bba07460c01b611637565b61095c67cef7247f153bef7760c01b611637565b61097067866691529c19ea5c60c01b611637565b600061097c848461163a565b9050610992673d77e22841ec56e760c01b611637565b6109a667c7405ec4e855e71460c01b611637565b600080600083815260200190815260200160002090506109d06725e1e11a4d0815e260c01b611637565b6109e467b00a135c3948498560c01b611637565b60008473ffffffffffffffffffffffffffffffffffffffff168673ffffffffffffffffffffffffffffffffffffffff161080610a305750610a2f678fd99abd8b843ff260c01b61172e565b5b8015610a4c5750610a4b67ae2b58d2b36f874660c01b611735565b5b610a5a578160010154610a60565b81600001545b9050610a7667407b2fb539e62d8160c01b611637565b610a8a679bf7ec7b5f0552d160c01b611637565b60008573ffffffffffffffffffffffffffffffffffffffff168773ffffffffffffffffffffffffffffffffffffffff161080610ad65750610ad567282b880fdb6a3adb60c01b61172e565b5b8015610af25750610af1670c0f204af8fcb4e760c01b611735565b5b610b00578260000154610b06565b82600101545b9050610b1c673ee7193036be964a60c01b611637565b610b306740636d2136b7583360c01b611637565b610b44670e36260b39167cf260c01b611637565b60008211610b87576040517f08c379a0000000000000000000000000000000000000000000000000000000008152600401610b7e90611fc8565b60405180910390fd5b610b9b671291f7a2db7b1e0160c01b611637565b610baf67570a4fe36476a9ef60c01b611637565b81670de0b6b3a764000082610bc49190611c32565b610bce9190611ca3565b94505050505092915050565b600080610bf167fdfedfa36fe7d49860c01b611637565b610c05673c8b69ab122032ed60c01b611637565b610c196739bf1fbfca19981f60c01b611637565b610c2d6755500f517c5e511a60c01b611637565b82421115610c70576040517f08c379a0000000000000000000000000000000000000000000000000000000008152600401610c6790611d8c565b60405180910390fd5b610c84679ac08cca0ae3546760c01b611637565b610c9867e9b2411a16fa038060c01b611637565b610cac6797a4f77e97c7926360c01b611637565b6000610cb88a8a61163a565b9050610cce6730a00f347f7daa0260c01b611637565b610ce267845d0ba40e7a67c860c01b611637565b60008060008381526020019081526020016000209050610d0c6767f80ef6558c86dc60c01b611637565b610d20672efa873cf2b8613e60c01b611637565b60008160020160003373ffffffffffffffffffffffffffffffffffffffff1673ffffffffffffffffffffffffffffffffffffffff168152602001908152602001600020549050610d7a67c1eb15b827af447060c01b611637565b610d8e672d96fc919d28440260c01b611637565b600082600301549050610dab67ca9fa17965811c7e60c01b611637565b610dbf67d109a99f65dc9d4a60c01b611637565b610dd367736ccbe62d3debf960c01b611637565b8a8210158015610de35750600081115b610e22576040517f08c379a0000000000000000000000000000000000000000000000000000000008152600401610e1990611fc8565b60405180910390fd5b610e3667a891c6dca223daf660c01b611637565b610e4a67afdd66855946610d60c01b611637565b610e5e6766cdcc70ab553a4060c01b611637565b600083600001549050610e7b67eae7f16af7ee28a760c01b611637565b610e8f678f678a2d6def595d60c01b611637565b600084600101549050610eac67e0f4b095caa394da60c01b611637565b82828e610eb99190611c32565b610ec39190611ca3565b9750610ed9673ffff1ec1a3ffeae60c01b611637565b82818e610ee69190611c32565b610ef09190611ca3565b9650610f066755a74d6f2099dafc60c01b611637565b610f1a671ea740185f8033a960c01b611637565b610f2e679c52337643a6c69f60c01b611637565b8b8810158015610f3e57508a8710155b610f7d576040517f08c379a0000000000000000000000000000000000000000000000000000000008152600401610f7490612034565b60405180910390fd5b610f91670435d4dca186b52a60c01b611637565b610fa5670f99a6e1be075a1960c01b611637565b8782610fb19190611f1f565b8560000181905550610fcd670bc88d85a01851b560c01b611637565b8681610fd99190611f1f565b8560010181905550610ff56781029668a6f83dbe60c01b611637565b8c846110019190611f1f565b8560020160003373ffffffffffffffffffffffffffffffffffffffff1673ffffffffffffffffffffffffffffffffffffffff1681526020019081526020016000208190555061105a675838cda7eabda8fd60c01b611637565b8c836110669190611f1f565b856003018190555061108267b7a295f41c5a1a1760c01b611637565b61109667cc7371abf85c31ee60c01b611637565b8e73ffffffffffffffffffffffffffffffffffffffff1663a9059cbb8b8a6040518363ffffffff1660e01b81526004016110d1929190611f53565b6020604051808303816000875af11580156110f0573d6000803e3d6000fd5b505050506040513d601f19601f820116820180604052508101906111149190611e86565b5061112967023282ab789c5e5d60c01b611637565b61113d671d77e6581b90b48460c01b611637565b8d73ffffffffffffffffffffffffffffffffffffffff1663a9059cbb8b896040518363ffffffff1660e01b8152600401611178929190611f53565b6020604051808303816000875af1158015611197573d6000803e3d6000fd5b505050506040513d601f19601f820116820180604052508101906111bb9190611e86565b5050505050505097509795505050505050565b60008060006111e767cf7de2cafb7f321b60c01b611637565b6111fb677c45159ce9cb7c6560c01b611637565b61120f678bcadf13c78c062660c01b611637565b61122367de1a960c26587c2560c01b611637565b83421115611266576040517f08c379a000000000000000000000000000000000000000000000000000000000815260040161125d90611d8c565b60405180910390fd5b6112796640d28fafdcd9fa60c01b611637565b61128d675b9d11a7893ed1ad60c01b611637565b8892506112a467b877642557f32e8960c01b611637565b8791506112bb67c6ec77590d2121b260c01b611637565b6112cf6705a649ae28cf722660c01b611637565b6112e3674b3e963c07168fb960c01b611637565b8683101580156112f35750858210155b611332576040517f08c379a000000000000000000000000000000000000000000000000000000000815260040161132990612034565b60405180910390fd5b611346675a5a436568aa93ef60c01b611637565b61135a678f8ca113c2870e8460c01b611637565b61136e67f94838020dc2845160c01b611637565b8a73ffffffffffffffffffffffffffffffffffffffff166323b872dd3330866040518463ffffffff1660e01b81526004016113ab93929190611e17565b6020604051808303816000875af11580156113ca573d6000803e3d6000fd5b505050506040513d601f19601f820116820180604052508101906113ee9190611e86565b5061140367bb1be856861b6fa960c01b611637565b611417674f5d529038e651f660c01b611637565b8973ffffffffffffffffffffffffffffffffffffffff166323b872dd3330856040518463ffffffff1660e01b815260040161145493929190611e17565b6020604051808303816000875af1158015611473573d6000803e3d6000fd5b505050506040513d601f19601f820116820180604052508101906114979190611e86565b506114ac67c18d11a9adc4c49460c01b611637565b6114c06725bace367198de0e60c01b611637565b60006114cc8c8c61163a565b90506114e267e9e2d8d523edbbc260c01b611637565b6114f667e5b8232c1b46225260c01b611637565b6000806000838152602001908152602001600020905061152067f15f1be7b67e925660c01b611637565b838561152c9190611bfe565b925061154267e98ec344a9c2882660c01b611637565b848160000160008282546115569190611bfe565b925050819055506115716717db3b6b3d416b9f60c01b611637565b838160010160008282546115859190611bfe565b925050819055506115a0679338857b21764f1560c01b611637565b828160020160008973ffffffffffffffffffffffffffffffffffffffff1673ffffffffffffffffffffffffffffffffffffffff16815260200190815260200160002060008282546115f19190611bfe565b9250508190555061160c674d19e9d3cef5f74660c01b611637565b828160030160008282546116209190611bfe565b925050819055505050985098509895505050505050565b50565b600061165067026f6f938ae56dad60c01b611637565b6116646784d8e7b91fda9d0060c01b611637565b8173ffffffffffffffffffffffffffffffffffffffff168373ffffffffffffffffffffffffffffffffffffffff1610806116ae57506116ad6790f97d738d717ded60c01b61172e565b5b80156116ca57506116c967ae89832b9570fe6b60c01b611735565b5b6116fc5781836040516020016116e192919061209c565b60405160208183030381529060405280519060200120611726565b828260405160200161170f92919061209c565b604051602081830303815290604052805190602001205b905092915050565b6000919050565b600060019050919050565b600080fd5b600080fd5b6000819050919050565b61175d8161174a565b811461176857600080fd5b50565b60008135905061177a81611754565b92915050565b60008060006060848603121561179957611798611740565b5b60006117a78682870161176b565b93505060206117b88682870161176b565b92505060406117c98682870161176b565b9150509250925092565b6117dc8161174a565b82525050565b60006020820190506117f760008301846117d3565b92915050565b600080fd5b600080fd5b600080fd5b60008083601f840112611822576118216117fd565b5b8235905067ffffffffffffffff81111561183f5761183e611802565b5b60208301915083602082028301111561185b5761185a611807565b5b9250929050565b600073ffffffffffffffffffffffffffffffffffffffff82169050919050565b600061188d82611862565b9050919050565b61189d81611882565b81146118a857600080fd5b50565b6000813590506118ba81611894565b92915050565b60008060008060008060a087890312156118dd576118dc611740565b5b60006118eb89828a0161176b565b96505060206118fc89828a0161176b565b955050604087013567ffffffffffffffff81111561191d5761191c611745565b5b61192989828a0161180c565b9450945050606061193c89828a016118ab565b925050608061194d89828a0161176b565b9150509295509295509295565b6000806040838503121561197157611970611740565b5b600061197f858286016118ab565b9250506020611990858286016118ab565b9150509250929050565b600080600080600080600060e0888a0312156119b9576119b8611740565b5b60006119c78a828b016118ab565b97505060206119d88a828b016118ab565b96505060406119e98a828b0161176b565b95505060606119fa8a828b0161176b565b9450506080611a0b8a828b0161176b565b93505060a0611a1c8a828b016118ab565b92505060c0611a2d8a828b0161176b565b91505092959891949750929550565b6000604082019050611a5160008301856117d3565b611a5e60208301846117d3565b9392505050565b600080600080600080600080610100898b031215611a8657611a85611740565b5b6000611a948b828c016118ab565b9850506020611aa58b828c016118ab565b9750506040611ab68b828c0161176b565b9650506060611ac78b828c0161176b565b9550506080611ad88b828c0161176b565b94505060a0611ae98b828c0161176b565b93505060c0611afa8b828c016118ab565b92505060e0611b0b8b828c0161176b565b9150509295985092959890939650565b6000606082019050611b3060008301866117d3565b611b3d60208301856117d3565b611b4a60408301846117d3565b949350505050565b600082825260208201905092915050565b7f496e76616c696452657365727665730000000000000000000000000000000000600082015250565b6000611b99600f83611b52565b9150611ba482611b63565b602082019050919050565b60006020820190508181036000830152611bc881611b8c565b9050919050565b7f4e487b7100000000000000000000000000000000000000000000000000000000600052601160045260246000fd5b6000611c098261174a565b9150611c148361174a565b9250828201905080821115611c2c57611c2b611bcf565b5b92915050565b6000611c3d8261174a565b9150611c488361174a565b9250828202611c568161174a565b91508282048414831517611c6d57611c6c611bcf565b5b5092915050565b7f4e487b7100000000000000000000000000000000000000000000000000000000600052601260045260246000fd5b6000611cae8261174a565b9150611cb98361174a565b925082611cc957611cc8611c74565b5b828204905092915050565b7f50617468496e76616c6964000000000000000000000000000000000000000000600082015250565b6000611d0a600b83611b52565b9150611d1582611cd4565b602082019050919050565b60006020820190508181036000830152611d3981611cfd565b9050919050565b7f4578706972656400000000000000000000000000000000000000000000000000600082015250565b6000611d76600783611b52565b9150611d8182611d40565b602082019050919050565b60006020820190508181036000830152611da581611d69565b9050919050565b7f4e487b7100000000000000000000000000000000000000000000000000000000600052603260045260246000fd5b600060208284031215611df157611df0611740565b5b6000611dff848285016118ab565b91505092915050565b611e1181611882565b82525050565b6000606082019050611e2c6000830186611e08565b611e396020830185611e08565b611e4660408301846117d3565b949350505050565b60008115159050919050565b611e6381611e4e565b8114611e6e57600080fd5b50565b600081519050611e8081611e5a565b92915050565b600060208284031215611e9c57611e9b611740565b5b6000611eaa84828501611e71565b91505092915050565b7f536c697070616765000000000000000000000000000000000000000000000000600082015250565b6000611ee9600883611b52565b9150611ef482611eb3565b602082019050919050565b60006020820190508181036000830152611f1881611edc565b9050919050565b6000611f2a8261174a565b9150611f358361174a565b9250828203905081811115611f4d57611f4c611bcf565b5b92915050565b6000604082019050611f686000830185611e08565b611f7560208301846117d3565b9392505050565b7f4e6f4c6971756964697479000000000000000000000000000000000000000000600082015250565b6000611fb2600b83611b52565b9150611fbd82611f7c565b602082019050919050565b60006020820190508181036000830152611fe181611fa5565b9050919050565b7f4d696e4e6f744d65740000000000000000000000000000000000000000000000600082015250565b600061201e600983611b52565b915061202982611fe8565b602082019050919050565b6000602082019050818103600083015261204d81612011565b9050919050565b60008160601b9050919050565b600061206c82612054565b9050919050565b600061207e82612061565b9050919050565b61209661209182611882565b612073565b82525050565b60006120a88285612085565b6014820191506120b88284612085565b601482019150819050939250505056fea26469706673582212202331085b664994c55c49fa451e5ec3d5126ff0adb9e9684aad2b7c1ba99ac3e564736f6c634300081c0033",
  "linkReferences": {},
  "deployedLinkReferences": {}
}