{"contracts/SimpleSwap.sol":{"SimpleSwap":{"abi":[{"inputs":[{"internalType":"address","name":"tokenA","type":"address"},{"internalType":"address","name":"tokenB","type":"address"},{"internalType":"uint256","name":"amountADesired","type":"uint256"},{"internalType":"uint256","name":"amountBDesired","type":"uint256"},{"internalType":"uint256","name":"amountAMin","type":"uint256"},{"internalType":"uint256","name":"amountBMin","type":"uint256"},{"internalType":"address","name":"to","type":"address"},{"internalType":"uint256","name":"deadline","type":"uint256"}],"name":"addLiquidity","outputs":[{"internalType":"uint256","name":"amountA","type":"uint256"},{"internalType":"uint256","name":"amountB","type":"uint256"},{"internalType":"uint256","name":"liquidity","type":"uint256"}],"stateMutability":"nonpayable","type":"function"},{"inputs":[{"internalType":"uint256","name":"amountIn","type":"uint256"},{"internalType":"uint256","name":"reserveIn","type":"uint256"},{"internalType":"uint256","name":"reserveOut","type":"uint256"}],"name":"getAmountOut","outputs":[{"internalType":"uint256","name":"amountOut","type":"uint256"}],"stateMutability":"pure","type":"function"},{"inputs":[{"internalType":"address","name":"tokenA","type":"address"},{"internalType":"address","name":"tokenB","type":"address"}],"name":"getPrice","outputs":[{"internalType":"uint256","name":"price","type":"uint256"}],"stateMutability":"view","type":"function"},{"inputs":[{"internalType":"address","name":"tokenA","type":"address"},{"internalType":"address","name":"tokenB","type":"address"},{"internalType":"uint256","name":"liquidity","type":"uint256"},{"internalType":"uint256","name":"amountAMin","type":"uint256"},{"internalType":"uint256","name":"amountBMin","type":"uint256"},{"internalType":"address","name":"to","type":"address"},{"internalType":"uint256","name":"deadline","type":"uint256"}],"name":"removeLiquidity","outputs":[{"internalType":"uint256","name":"amountA","type":"uint256"},{"internalType":"uint256","name":"amountB","type":"uint256"}],"stateMutability":"nonpayable","type":"function"},{"inputs":[{"internalType":"uint256","name":"amountIn","type":"uint256"},{"internalType":"uint256","name":"amountOutMin","type":"uint256"},{"internalType":"address[]","name":"path","type":"address[]"},{"internalType":"address","name":"to","type":"address"},{"internalType":"uint256","name":"deadline","type":"uint256"}],"name":"swapExactTokensForTokens","outputs":[],"stateMutability":"nonpayable","type":"function"}],"evm":{"bytecode":{"linkReferences":{},"object":"6080604052348015600f57600080fd5b50611fdb8061001f6000396000f3fe608060405234801561001057600080fd5b50600436106100575760003560e01c8063054d50d41461005c57806338ed17391461008c578063ac41865a146100a8578063baa2abde146100d8578063e8e3370014610109575b600080fd5b6100766004803603810190610071919061165d565b61013b565b60405161008391906116bf565b60405180910390f35b6100a660048036038101906100a1919061179d565b61023b565b005b6100c260048036038101906100bd9190611837565b61094c565b6040516100cf91906116bf565b60405180910390f35b6100f260048036038101906100ed9190611877565b610b5b565b604051610100929190611919565b60405180910390f35b610123600480360381019061011e9190611942565b6110aa565b604051610132939291906119f8565b60405180910390f35b6000610151678ace4629c073c7c060c01b611514565b6101656702f990c9c2abf28f60c01b611514565b610179670154723a64a48dcd60c01b611514565b61018d6705947243cdb31e3660c01b611514565b60008411801561019d5750600083115b80156101a95750600082115b6101e8576040517f08c379a00000000000000000000000000000000000000000000000000000000081526004016101df90611a8c565b60405180910390fd5b6101fc677da586c7e9a4ff1f60c01b611514565b6102106758d65456ca8d7d1560c01b611514565b838361021c9190611adb565b82856102289190611b0f565b6102329190611b80565b90509392505050565b61024f67763fcee25f414b6960c01b611514565b61026367450e42cc23bfa5a060c01b611514565b61027767b4ff4a5ba86c6b4360c01b611514565b61028b67f677c8136060785260c01b611514565b600284849050146102d1576040517f08c379a00000000000000000000000000000000000000000000000000000000081526004016102c890611bfd565b60405180910390fd5b6102e56790b780167ec6a3c660c01b611514565b6102f967ff55417914f63ecf60c01b611514565b61030d67ac22899e3f0fd5a160c01b611514565b6103216736d58a7506a6755560c01b611514565b80421115610364576040517f08c379a000000000000000000000000000000000000000000000000000000000815260040161035b90611c69565b60405180910390fd5b61037867fa4a1356212378bd60c01b611514565b61038c6781c1af45d65e29ee60c01b611514565b6103a0673ae1d9e1f088bf1260c01b611514565b60006103fc858560008181106103b9576103b8611c89565b5b90506020020160208101906103ce9190611cb8565b868660018181106103e2576103e1611c89565b5b90506020020160208101906103f79190611cb8565b611517565b905061041267820c26bbfe56d91c60c01b611514565b6104266720dc0e3047cccf9260c01b611514565b60008060008381526020019081526020016000209050610450678e8fd7b0f99ccfa860c01b611514565b610464676c7e0d452bf4d57d60c01b611514565b6000808787600181811061047b5761047a611c89565b5b90506020020160208101906104909190611cb8565b73ffffffffffffffffffffffffffffffffffffffff16888860008181106104ba576104b9611c89565b5b90506020020160208101906104cf9190611cb8565b73ffffffffffffffffffffffffffffffffffffffff161080610501575061050067d6f180f66103e1ae60c01b61160b565b5b801561051d575061051c6739c7c1efaff2d43360c01b611612565b5b610530578260010154836000015461053b565b826000015483600101545b91509150610553678aeba059d35c7fec60c01b611514565b61056767d29705a21be0aac860c01b611514565b8787600081811061057b5761057a611c89565b5b90506020020160208101906105909190611cb8565b73ffffffffffffffffffffffffffffffffffffffff166323b872dd33308d6040518463ffffffff1660e01b81526004016105cc93929190611cf4565b6020604051808303816000875af11580156105eb573d6000803e3d6000fd5b505050506040513d601f19601f8201168201806040525081019061060f9190611d63565b5061062467b2e15163fa79f3a560c01b611514565b6106386728629ceb33a64c9c60c01b611514565b60006106458b848461013b565b905061065b6723f624e8c1aec5e460c01b611514565b61066f67ab4620e2daa9acb060c01b611514565b6106836742b723ecf012727560c01b611514565b898110156106c6576040517f08c379a00000000000000000000000000000000000000000000000000000000081526004016106bd90611ddc565b60405180910390fd5b6106da670c4dd4163dc3527460c01b611514565b6106ee67314b56c6e13e811260c01b611514565b610702670147a40c4e697eeb60c01b611514565b8888600181811061071657610715611c89565b5b905060200201602081019061072b9190611cb8565b73ffffffffffffffffffffffffffffffffffffffff168989600081811061075557610754611c89565b5b905060200201602081019061076a9190611cb8565b73ffffffffffffffffffffffffffffffffffffffff1610156107fd5761079a67f8da7a351cada15460c01b611514565b6107ae67df6c027fb03e4dbb60c01b611514565b8a8460000160008282546107c29190611adb565b925050819055506107dd67410d3bd235feec8d60c01b611514565b808460010160008282546107f19190611dfc565b92505081905550610870565b610811677965ec411d6f554960c01b611514565b610825672fae47efd2bba07460c01b611514565b8a8460010160008282546108399190611adb565b9250508190555061085467cef7247f153bef7760c01b611514565b808460000160008282546108689190611dfc565b925050819055505b61088467866691529c19ea5c60c01b611514565b610898673d77e22841ec56e760c01b611514565b888860018181106108ac576108ab611c89565b5b90506020020160208101906108c19190611cb8565b73ffffffffffffffffffffffffffffffffffffffff1663a9059cbb88836040518363ffffffff1660e01b81526004016108fb929190611e30565b6020604051808303816000875af115801561091a573d6000803e3d6000fd5b505050506040513d601f19601f8201168201806040525081019061093e9190611d63565b505050505050505050505050565b600061096267c7405ec4e855e71460c01b611514565b6109766725e1e11a4d0815e260c01b611514565b61098a67b00a135c3948498560c01b611514565b60006109968484611517565b90506109ac678fd99abd8b843ff260c01b611514565b6109c067ae2b58d2b36f874660c01b611514565b600080600083815260200190815260200160002090506109ea67407b2fb539e62d8160c01b611514565b6109fe679bf7ec7b5f0552d160c01b611514565b6000808573ffffffffffffffffffffffffffffffffffffffff168773ffffffffffffffffffffffffffffffffffffffff161080610a4b5750610a4a67282b880fdb6a3adb60c01b61160b565b5b8015610a675750610a66670c0f204af8fcb4e760c01b611612565b5b610a7a5782600101548360000154610a85565b826000015483600101545b91509150610a9d673ee7193036be964a60c01b611514565b610ab16740636d2136b7583360c01b611514565b610ac5670e36260b39167cf260c01b611514565b60008211610b08576040517f08c379a0000000000000000000000000000000000000000000000000000000008152600401610aff90611ea5565b60405180910390fd5b610b1c671291f7a2db7b1e0160c01b611514565b610b3067570a4fe36476a9ef60c01b611514565b81670de0b6b3a764000082610b459190611b0f565b610b4f9190611b80565b94505050505092915050565b600080610b72671ea740185f8033a960c01b611514565b610b86679c52337643a6c69f60c01b611514565b610b9a670435d4dca186b52a60c01b611514565b610bae670f99a6e1be075a1960c01b611514565b82421115610bf1576040517f08c379a0000000000000000000000000000000000000000000000000000000008152600401610be890611c69565b60405180910390fd5b610c05670bc88d85a01851b560c01b611514565b610c196781029668a6f83dbe60c01b611514565b610c2d675838cda7eabda8fd60c01b611514565b6000610c398a8a611517565b9050610c4f67b7a295f41c5a1a1760c01b611514565b610c6367cc7371abf85c31ee60c01b611514565b60008060008381526020019081526020016000209050610c8d67023282ab789c5e5d60c01b611514565b610ca1671d77e6581b90b48460c01b611514565b610cb56739880ee4b505206560c01b611514565b888160020160003373ffffffffffffffffffffffffffffffffffffffff1673ffffffffffffffffffffffffffffffffffffffff168152602001908152602001600020541015610d39576040517f08c379a0000000000000000000000000000000000000000000000000000000008152600401610d3090611ea5565b60405180910390fd5b610d4d6711c3cb141e139c4060c01b611514565b610d61678601d5443ece286860c01b611514565b806003015481600001548a610d769190611b0f565b610d809190611b80565b9350610d966720a006bf56f19a7b60c01b611514565b806003015481600101548a610dab9190611b0f565b610db59190611b80565b9250610dcb67562d94b496e1876960c01b611514565b610ddf67b6996a54b6cc667560c01b611514565b610df367d00680ee44c5c17760c01b611514565b878410158015610e035750868310155b610e42576040517f08c379a0000000000000000000000000000000000000000000000000000000008152600401610e3990611f11565b60405180910390fd5b610e5667f3d8371c0636254560c01b611514565b610e6a6745f3a403ca93dd2a60c01b611514565b83816000016000828254610e7e9190611dfc565b92505081905550610e9967d8de5a057677cfe160c01b611514565b82816001016000828254610ead9190611dfc565b92505081905550610ec766e8bd7a053f288b60c01b611514565b888160020160003373ffffffffffffffffffffffffffffffffffffffff1673ffffffffffffffffffffffffffffffffffffffff1681526020019081526020016000206000828254610f189190611dfc565b92505081905550610f3367bef1c649c682e7ed60c01b611514565b88816003016000828254610f479190611dfc565b92505081905550610f6267059b979adf1852b660c01b611514565b610f7667ed7bb20810c456bc60c01b611514565b8a73ffffffffffffffffffffffffffffffffffffffff1663a9059cbb87866040518363ffffffff1660e01b8152600401610fb1929190611e30565b6020604051808303816000875af1158015610fd0573d6000803e3d6000fd5b505050506040513d601f19601f82011682018060405250810190610ff49190611d63565b5061100967055f59ffdda2936e60c01b611514565b61101d67f158492690a7cb2060c01b611514565b8973ffffffffffffffffffffffffffffffffffffffff1663a9059cbb87856040518363ffffffff1660e01b8152600401611058929190611e30565b6020604051808303816000875af1158015611077573d6000803e3d6000fd5b505050506040513d601f19601f8201168201806040525081019061109b9190611d63565b50505097509795505050505050565b60008060006110c367fdfedfa36fe7d49860c01b611514565b6110d7673c8b69ab122032ed60c01b611514565b6110eb6739bf1fbfca19981f60c01b611514565b6110ff6755500f517c5e511a60c01b611514565b83421115611142576040517f08c379a000000000000000000000000000000000000000000000000000000000815260040161113990611c69565b60405180910390fd5b611156679ac08cca0ae3546760c01b611514565b61116a67e9b2411a16fa038060c01b611514565b61117e6797a4f77e97c7926360c01b611514565b600061118a8c8c611517565b90506111a06730a00f347f7daa0260c01b611514565b6111b467845d0ba40e7a67c860c01b611514565b600080600083815260200190815260200160002090506111de6767f80ef6558c86dc60c01b611514565b8a94506111f5672efa873cf2b8613e60c01b611514565b89935061120c67c1eb15b827af447060c01b611514565b611220672d96fc919d28440260c01b611514565b61123467ca9fa17965811c7e60c01b611514565b8885101580156112445750878410155b611283576040517f08c379a000000000000000000000000000000000000000000000000000000000815260040161127a90611f11565b60405180910390fd5b61129767d109a99f65dc9d4a60c01b611514565b6112ab67736ccbe62d3debf960c01b611514565b6112bf67a891c6dca223daf660c01b611514565b8c73ffffffffffffffffffffffffffffffffffffffff166323b872dd3330886040518463ffffffff1660e01b81526004016112fc93929190611cf4565b6020604051808303816000875af115801561131b573d6000803e3d6000fd5b505050506040513d601f19601f8201168201806040525081019061133f9190611d63565b5061135467afdd66855946610d60c01b611514565b6113686766cdcc70ab553a4060c01b611514565b8b73ffffffffffffffffffffffffffffffffffffffff166323b872dd3330876040518463ffffffff1660e01b81526004016113a593929190611cf4565b6020604051808303816000875af11580156113c4573d6000803e3d6000fd5b505050506040513d601f19601f820116820180604052508101906113e89190611d63565b506113fd67eae7f16af7ee28a760c01b611514565b83856114099190611adb565b925061141f678f678a2d6def595d60c01b611514565b848160000160008282546114339190611adb565b9250508190555061144e67e0f4b095caa394da60c01b611514565b838160010160008282546114629190611adb565b9250508190555061147d673ffff1ec1a3ffeae60c01b611514565b828160020160008973ffffffffffffffffffffffffffffffffffffffff1673ffffffffffffffffffffffffffffffffffffffff16815260200190815260200160002060008282546114ce9190611adb565b925050819055506114e96755a74d6f2099dafc60c01b611514565b828160030160008282546114fd9190611adb565b925050819055505050985098509895505050505050565b50565b600061152d67e98ec344a9c2882660c01b611514565b6115416717db3b6b3d416b9f60c01b611514565b8173ffffffffffffffffffffffffffffffffffffffff168373ffffffffffffffffffffffffffffffffffffffff16108061158b575061158a679338857b21764f1560c01b61160b565b5b80156115a757506115a6674d19e9d3cef5f74660c01b611612565b5b6115d95781836040516020016115be929190611f79565b60405160208183030381529060405280519060200120611603565b82826040516020016115ec929190611f79565b604051602081830303815290604052805190602001205b905092915050565b6000919050565b600060019050919050565b600080fd5b600080fd5b6000819050919050565b61163a81611627565b811461164557600080fd5b50565b60008135905061165781611631565b92915050565b6000806000606084860312156116765761167561161d565b5b600061168486828701611648565b935050602061169586828701611648565b92505060406116a686828701611648565b9150509250925092565b6116b981611627565b82525050565b60006020820190506116d460008301846116b0565b92915050565b600080fd5b600080fd5b600080fd5b60008083601f8401126116ff576116fe6116da565b5b8235905067ffffffffffffffff81111561171c5761171b6116df565b5b602083019150836020820283011115611738576117376116e4565b5b9250929050565b600073ffffffffffffffffffffffffffffffffffffffff82169050919050565b600061176a8261173f565b9050919050565b61177a8161175f565b811461178557600080fd5b50565b60008135905061179781611771565b92915050565b60008060008060008060a087890312156117ba576117b961161d565b5b60006117c889828a01611648565b96505060206117d989828a01611648565b955050604087013567ffffffffffffffff8111156117fa576117f9611622565b5b61180689828a016116e9565b9450945050606061181989828a01611788565b925050608061182a89828a01611648565b9150509295509295509295565b6000806040838503121561184e5761184d61161d565b5b600061185c85828601611788565b925050602061186d85828601611788565b9150509250929050565b600080600080600080600060e0888a0312156118965761189561161d565b5b60006118a48a828b01611788565b97505060206118b58a828b01611788565b96505060406118c68a828b01611648565b95505060606118d78a828b01611648565b94505060806118e88a828b01611648565b93505060a06118f98a828b01611788565b92505060c061190a8a828b01611648565b91505092959891949750929550565b600060408201905061192e60008301856116b0565b61193b60208301846116b0565b9392505050565b600080600080600080600080610100898b0312156119635761196261161d565b5b60006119718b828c01611788565b98505060206119828b828c01611788565b97505060406119938b828c01611648565b96505060606119a48b828c01611648565b95505060806119b58b828c01611648565b94505060a06119c68b828c01611648565b93505060c06119d78b828c01611788565b92505060e06119e88b828c01611648565b9150509295985092959890939650565b6000606082019050611a0d60008301866116b0565b611a1a60208301856116b0565b611a2760408301846116b0565b949350505050565b600082825260208201905092915050565b7f496e76616c696452657365727665730000000000000000000000000000000000600082015250565b6000611a76600f83611a2f565b9150611a8182611a40565b602082019050919050565b60006020820190508181036000830152611aa581611a69565b9050919050565b7f4e487b7100000000000000000000000000000000000000000000000000000000600052601160045260246000fd5b6000611ae682611627565b9150611af183611627565b9250828201905080821115611b0957611b08611aac565b5b92915050565b6000611b1a82611627565b9150611b2583611627565b9250828202611b3381611627565b91508282048414831517611b4a57611b49611aac565b5b5092915050565b7f4e487b7100000000000000000000000000000000000000000000000000000000600052601260045260246000fd5b6000611b8b82611627565b9150611b9683611627565b925082611ba657611ba5611b51565b5b828204905092915050565b7f50617468496e76616c6964000000000000000000000000000000000000000000600082015250565b6000611be7600b83611a2f565b9150611bf282611bb1565b602082019050919050565b60006020820190508181036000830152611c1681611bda565b9050919050565b7f4578706972656400000000000000000000000000000000000000000000000000600082015250565b6000611c53600783611a2f565b9150611c5e82611c1d565b602082019050919050565b60006020820190508181036000830152611c8281611c46565b9050919050565b7f4e487b7100000000000000000000000000000000000000000000000000000000600052603260045260246000fd5b600060208284031215611cce57611ccd61161d565b5b6000611cdc84828501611788565b91505092915050565b611cee8161175f565b82525050565b6000606082019050611d096000830186611ce5565b611d166020830185611ce5565b611d2360408301846116b0565b949350505050565b60008115159050919050565b611d4081611d2b565b8114611d4b57600080fd5b50565b600081519050611d5d81611d37565b92915050565b600060208284031215611d7957611d7861161d565b5b6000611d8784828501611d4e565b91505092915050565b7f536c697070616765000000000000000000000000000000000000000000000000600082015250565b6000611dc6600883611a2f565b9150611dd182611d90565b602082019050919050565b60006020820190508181036000830152611df581611db9565b9050919050565b6000611e0782611627565b9150611e1283611627565b9250828203905081811115611e2a57611e29611aac565b5b92915050565b6000604082019050611e456000830185611ce5565b611e5260208301846116b0565b9392505050565b7f4e6f4c6971756964697479000000000000000000000000000000000000000000600082015250565b6000611e8f600b83611a2f565b9150611e9a82611e59565b602082019050919050565b60006020820190508181036000830152611ebe81611e82565b9050919050565b7f4d696e4e6f744d65740000000000000000000000000000000000000000000000600082015250565b6000611efb600983611a2f565b9150611f0682611ec5565b602082019050919050565b60006020820190508181036000830152611f2a81611eee565b9050919050565b60008160601b9050919050565b6000611f4982611f31565b9050919050565b6000611f5b82611f3e565b9050919050565b611f73611f6e8261175f565b611f50565b82525050565b6000611f858285611f62565b601482019150611f958284611f62565b601482019150819050939250505056fea264697066735822122023828be6da1c6d43b9c75d07aeb79faac8d0b4ba7d687f6389ca20dafb1f676364736f6c634300081c0033","opcodes":"PUSH1 0x80 PUSH1 0x40 MSTORE CALLVALUE DUP1 ISZERO PUSH1 0xF JUMPI PUSH1 0x0 DUP1 REVERT JUMPDEST POP PUSH2 0x1FDB DUP1 PUSH2 0x1F PUSH1 0x0 CODECOPY PUSH1 0x0 RETURN INVALID PUSH1 0x80 PUSH1 0x40 MSTORE CALLVALUE DUP1 ISZERO PUSH2 0x10 JUMPI PUSH1 0x0 DUP1 REVERT JUMPDEST POP PUSH1 0x4 CALLDATASIZE LT PUSH2 0x57 JUMPI PUSH1 0x0 CALLDATALOAD PUSH1 0xE0 SHR DUP1 PUSH4 0x54D50D4 EQ PUSH2 0x5C JUMPI DUP1 PUSH4 0x38ED1739 EQ PUSH2 0x8C JUMPI DUP1 PUSH4 0xAC41865A EQ PUSH2 0xA8 JUMPI DUP1 PUSH4 0xBAA2ABDE EQ PUSH2 0xD8 JUMPI DUP1 PUSH4 0xE8E33700 EQ PUSH2 0x109 JUMPI JUMPDEST PUSH1 0x0 DUP1 REVERT JUMPDEST PUSH2 0x76 PUSH1 0x4 DUP1 CALLDATASIZE SUB DUP2 ADD SWAP1 PUSH2 0x71 SWAP2 SWAP1 PUSH2 0x165D JUMP JUMPDEST PUSH2 0x13B JUMP JUMPDEST PUSH1 0x40 MLOAD PUSH2 0x83 SWAP2 SWAP1 PUSH2 0x16BF JUMP JUMPDEST PUSH1 0x40 MLOAD DUP1 SWAP2 SUB SWAP1 RETURN JUMPDEST PUSH2 0xA6 PUSH1 0x4 DUP1 CALLDATASIZE SUB DUP2 ADD SWAP1 PUSH2 0xA1 SWAP2 SWAP1 PUSH2 0x179D JUMP JUMPDEST PUSH2 0x23B JUMP JUMPDEST STOP JUMPDEST PUSH2 0xC2 PUSH1 0x4 DUP1 CALLDATASIZE SUB DUP2 ADD SWAP1 PUSH2 0xBD SWAP2 SWAP1 PUSH2 0x1837 JUMP JUMPDEST PUSH2 0x94C JUMP JUMPDEST PUSH1 0x40 MLOAD PUSH2 0xCF SWAP2 SWAP1 PUSH2 0x16BF JUMP JUMPDEST PUSH1 0x40 MLOAD DUP1 SWAP2 SUB SWAP1 RETURN JUMPDEST PUSH2 0xF2 PUSH1 0x4 DUP1 CALLDATASIZE SUB DUP2 ADD SWAP1 PUSH2 0xED SWAP2 SWAP1 PUSH2 0x1877 JUMP JUMPDEST PUSH2 0xB5B JUMP JUMPDEST PUSH1 0x40 MLOAD PUSH2 0x100 SWAP3 SWAP2 SWAP1 PUSH2 0x1919 JUMP JUMPDEST PUSH1 0x40 MLOAD DUP1 SWAP2 SUB SWAP1 RETURN JUMPDEST PUSH2 0x123 PUSH1 0x4 DUP1 CALLDATASIZE SUB DUP2 ADD SWAP1 PUSH2 0x11E SWAP2 SWAP1 PUSH2 0x1942 JUMP JUMPDEST PUSH2 0x10AA JUMP JUMPDEST PUSH1 0x40 MLOAD PUSH2 0x132 SWAP4 SWAP3 SWAP2 SWAP1 PUSH2 0x19F8 JUMP JUMPDEST PUSH1 0x40 MLOAD DUP1 SWAP2 SUB SWAP1 RETURN JUMPDEST PUSH1 0x0 PUSH2 0x151 PUSH8 0x8ACE4629C073C7C0 PUSH1 0xC0 SHL PUSH2 0x1514 JUMP JUMPDEST PUSH2 0x165 PUSH8 0x2F990C9C2ABF28F PUSH1 0xC0 SHL PUSH2 0x1514 JUMP JUMPDEST PUSH2 0x179 PUSH8 0x154723A64A48DCD PUSH1 0xC0 SHL PUSH2 0x1514 JUMP JUMPDEST PUSH2 0x18D PUSH8 0x5947243CDB31E36 PUSH1 0xC0 SHL PUSH2 0x1514 JUMP JUMPDEST PUSH1 0x0 DUP5 GT DUP1 ISZERO PUSH2 0x19D JUMPI POP PUSH1 0x0 DUP4 GT JUMPDEST DUP1 ISZERO PUSH2 0x1A9 JUMPI POP PUSH1 0x0 DUP3 GT JUMPDEST PUSH2 0x1E8 JUMPI PUSH1 0x40 MLOAD PUSH32 0x8C379A000000000000000000000000000000000000000000000000000000000 DUP2 MSTORE PUSH1 0x4 ADD PUSH2 0x1DF SWAP1 PUSH2 0x1A8C JUMP JUMPDEST PUSH1 0x40 MLOAD DUP1 SWAP2 SUB SWAP1 REVERT JUMPDEST PUSH2 0x1FC PUSH8 0x7DA586C7E9A4FF1F PUSH1 0xC0 SHL PUSH2 0x1514 JUMP JUMPDEST PUSH2 0x210 PUSH8 0x58D65456CA8D7D15 PUSH1 0xC0 SHL PUSH2 0x1514 JUMP JUMPDEST DUP4 DUP4 PUSH2 0x21C SWAP2 SWAP1 PUSH2 0x1ADB JUMP JUMPDEST DUP3 DUP6 PUSH2 0x228 SWAP2 SWAP1 PUSH2 0x1B0F JUMP JUMPDEST PUSH2 0x232 SWAP2 SWAP1 PUSH2 0x1B80 JUMP JUMPDEST SWAP1 POP SWAP4 SWAP3 POP POP POP JUMP JUMPDEST PUSH2 0x24F PUSH8 0x763FCEE25F414B69 PUSH1 0xC0 SHL PUSH2 0x1514 JUMP JUMPDEST PUSH2 0x263 PUSH8 0x450E42CC23BFA5A0 PUSH1 0xC0 SHL PUSH2 0x1514 JUMP JUMPDEST PUSH2 0x277 PUSH8 0xB4FF4A5BA86C6B43 PUSH1 0xC0 SHL PUSH2 0x1514 JUMP JUMPDEST PUSH2 0x28B PUSH8 0xF677C81360607852 PUSH1 0xC0 SHL PUSH2 0x1514 JUMP JUMPDEST PUSH1 0x2 DUP5 DUP5 SWAP1 POP EQ PUSH2 0x2D1 JUMPI PUSH1 0x40 MLOAD PUSH32 0x8C379A000000000000000000000000000000000000000000000000000000000 DUP2 MSTORE PUSH1 0x4 ADD PUSH2 0x2C8 SWAP1 PUSH2 0x1BFD JUMP JUMPDEST PUSH1 0x40 MLOAD DUP1 SWAP2 SUB SWAP1 REVERT JUMPDEST PUSH2 0x2E5 PUSH8 0x90B780167EC6A3C6 PUSH1 0xC0 SHL PUSH2 0x1514 JUMP JUMPDEST PUSH2 0x2F9 PUSH8 0xFF55417914F63ECF PUSH1 0xC0 SHL PUSH2 0x1514 JUMP JUMPDEST PUSH2 0x30D PUSH8 0xAC22899E3F0FD5A1 PUSH1 0xC0 SHL PUSH2 0x1514 JUMP JUMPDEST PUSH2 0x321 PUSH8 0x36D58A7506A67555 PUSH1 0xC0 SHL PUSH2 0x1514 JUMP JUMPDEST DUP1 TIMESTAMP GT ISZERO PUSH2 0x364 JUMPI PUSH1 0x40 MLOAD PUSH32 0x8C379A000000000000000000000000000000000000000000000000000000000 DUP2 MSTORE PUSH1 0x4 ADD PUSH2 0x35B SWAP1 PUSH2 0x1C69 JUMP JUMPDEST PUSH1 0x40 MLOAD DUP1 SWAP2 SUB SWAP1 REVERT JUMPDEST PUSH2 0x378 PUSH8 0xFA4A1356212378BD PUSH1 0xC0 SHL PUSH2 0x1514 JUMP JUMPDEST PUSH2 0x38C PUSH8 0x81C1AF45D65E29EE PUSH1 0xC0 SHL PUSH2 0x1514 JUMP JUMPDEST PUSH2 0x3A0 PUSH8 0x3AE1D9E1F088BF12 PUSH1 0xC0 SHL PUSH2 0x1514 JUMP JUMPDEST PUSH1 0x0 PUSH2 0x3FC DUP6 DUP6 PUSH1 0x0 DUP2 DUP2 LT PUSH2 0x3B9 JUMPI PUSH2 0x3B8 PUSH2 0x1C89 JUMP JUMPDEST JUMPDEST SWAP1 POP PUSH1 0x20 MUL ADD PUSH1 0x20 DUP2 ADD SWAP1 PUSH2 0x3CE SWAP2 SWAP1 PUSH2 0x1CB8 JUMP JUMPDEST DUP7 DUP7 PUSH1 0x1 DUP2 DUP2 LT PUSH2 0x3E2 JUMPI PUSH2 0x3E1 PUSH2 0x1C89 JUMP JUMPDEST JUMPDEST SWAP1 POP PUSH1 0x20 MUL ADD PUSH1 0x20 DUP2 ADD SWAP1 PUSH2 0x3F7 SWAP2 SWAP1 PUSH2 0x1CB8 JUMP JUMPDEST PUSH2 0x1517 JUMP JUMPDEST SWAP1 POP PUSH2 0x412 PUSH8 0x820C26BBFE56D91C PUSH1 0xC0 SHL PUSH2 0x1514 JUMP JUMPDEST PUSH2 0x426 PUSH8 0x20DC0E3047CCCF92 PUSH1 0xC0 SHL PUSH2 0x1514 JUMP JUMPDEST PUSH1 0x0 DUP1 PUSH1 0x0 DUP4 DUP2 MSTORE PUSH1 0x20 ADD SWAP1 DUP2 MSTORE PUSH1 0x20 ADD PUSH1 0x0 KECCAK256 SWAP1 POP PUSH2 0x450 PUSH8 0x8E8FD7B0F99CCFA8 PUSH1 0xC0 SHL PUSH2 0x1514 JUMP JUMPDEST PUSH2 0x464 PUSH8 0x6C7E0D452BF4D57D PUSH1 0xC0 SHL PUSH2 0x1514 JUMP JUMPDEST PUSH1 0x0 DUP1 DUP8 DUP8 PUSH1 0x1 DUP2 DUP2 LT PUSH2 0x47B JUMPI PUSH2 0x47A PUSH2 0x1C89 JUMP JUMPDEST JUMPDEST SWAP1 POP PUSH1 0x20 MUL ADD PUSH1 0x20 DUP2 ADD SWAP1 PUSH2 0x490 SWAP2 SWAP1 PUSH2 0x1CB8 JUMP JUMPDEST PUSH20 0xFFFFFFFFFFFFFFFFFFFFFFFFFFFFFFFFFFFFFFFF AND DUP9 DUP9 PUSH1 0x0 DUP2 DUP2 LT PUSH2 0x4BA JUMPI PUSH2 0x4B9 PUSH2 0x1C89 JUMP JUMPDEST JUMPDEST SWAP1 POP PUSH1 0x20 MUL ADD PUSH1 0x20 DUP2 ADD SWAP1 PUSH2 0x4CF SWAP2 SWAP1 PUSH2 0x1CB8 JUMP JUMPDEST PUSH20 0xFFFFFFFFFFFFFFFFFFFFFFFFFFFFFFFFFFFFFFFF AND LT DUP1 PUSH2 0x501 JUMPI POP PUSH2 0x500 PUSH8 0xD6F180F66103E1AE PUSH1 0xC0 SHL PUSH2 0x160B JUMP JUMPDEST JUMPDEST DUP1 ISZERO PUSH2 0x51D JUMPI POP PUSH2 0x51C PUSH8 0x39C7C1EFAFF2D433 PUSH1 0xC0 SHL PUSH2 0x1612 JUMP JUMPDEST JUMPDEST PUSH2 0x530 JUMPI DUP3 PUSH1 0x1 ADD SLOAD DUP4 PUSH1 0x0 ADD SLOAD PUSH2 0x53B JUMP JUMPDEST DUP3 PUSH1 0x0 ADD SLOAD DUP4 PUSH1 0x1 ADD SLOAD JUMPDEST SWAP2 POP SWAP2 POP PUSH2 0x553 PUSH8 0x8AEBA059D35C7FEC PUSH1 0xC0 SHL PUSH2 0x1514 JUMP JUMPDEST PUSH2 0x567 PUSH8 0xD29705A21BE0AAC8 PUSH1 0xC0 SHL PUSH2 0x1514 JUMP JUMPDEST DUP8 DUP8 PUSH1 0x0 DUP2 DUP2 LT PUSH2 0x57B JUMPI PUSH2 0x57A PUSH2 0x1C89 JUMP JUMPDEST JUMPDEST SWAP1 POP PUSH1 0x20 MUL ADD PUSH1 0x20 DUP2 ADD SWAP1 PUSH2 0x590 SWAP2 SWAP1 PUSH2 0x1CB8 JUMP JUMPDEST PUSH20 0xFFFFFFFFFFFFFFFFFFFFFFFFFFFFFFFFFFFFFFFF AND PUSH4 0x23B872DD CALLER ADDRESS DUP14 PUSH1 0x40 MLOAD DUP5 PUSH4 0xFFFFFFFF AND PUSH1 0xE0 SHL DUP2 MSTORE PUSH1 0x4 ADD PUSH2 0x5CC SWAP4 SWAP3 SWAP2 SWAP1 PUSH2 0x1CF4 JUMP JUMPDEST PUSH1 0x20 PUSH1 0x40 MLOAD DUP1 DUP4 SUB DUP2 PUSH1 0x0 DUP8 GAS CALL ISZERO DUP1 ISZERO PUSH2 0x5EB JUMPI RETURNDATASIZE PUSH1 0x0 DUP1 RETURNDATACOPY RETURNDATASIZE PUSH1 0x0 REVERT JUMPDEST POP POP POP POP PUSH1 0x40 MLOAD RETURNDATASIZE PUSH1 0x1F NOT PUSH1 0x1F DUP3 ADD AND DUP3 ADD DUP1 PUSH1 0x40 MSTORE POP DUP2 ADD SWAP1 PUSH2 0x60F SWAP2 SWAP1 PUSH2 0x1D63 JUMP JUMPDEST POP PUSH2 0x624 PUSH8 0xB2E15163FA79F3A5 PUSH1 0xC0 SHL PUSH2 0x1514 JUMP JUMPDEST PUSH2 0x638 PUSH8 0x28629CEB33A64C9C PUSH1 0xC0 SHL PUSH2 0x1514 JUMP JUMPDEST PUSH1 0x0 PUSH2 0x645 DUP12 DUP5 DUP5 PUSH2 0x13B JUMP JUMPDEST SWAP1 POP PUSH2 0x65B PUSH8 0x23F624E8C1AEC5E4 PUSH1 0xC0 SHL PUSH2 0x1514 JUMP JUMPDEST PUSH2 0x66F PUSH8 0xAB4620E2DAA9ACB0 PUSH1 0xC0 SHL PUSH2 0x1514 JUMP JUMPDEST PUSH2 0x683 PUSH8 0x42B723ECF0127275 PUSH1 0xC0 SHL PUSH2 0x1514 JUMP JUMPDEST DUP10 DUP2 LT ISZERO PUSH2 0x6C6 JUMPI PUSH1 0x40 MLOAD PUSH32 0x8C379A000000000000000000000000000000000000000000000000000000000 DUP2 MSTORE PUSH1 0x4 ADD PUSH2 0x6BD SWAP1 PUSH2 0x1DDC JUMP JUMPDEST PUSH1 0x40 MLOAD DUP1 SWAP2 SUB SWAP1 REVERT JUMPDEST PUSH2 0x6DA PUSH8 0xC4DD4163DC35274 PUSH1 0xC0 SHL PUSH2 0x1514 JUMP JUMPDEST PUSH2 0x6EE PUSH8 0x314B56C6E13E8112 PUSH1 0xC0 SHL PUSH2 0x1514 JUMP JUMPDEST PUSH2 0x702 PUSH8 0x147A40C4E697EEB PUSH1 0xC0 SHL PUSH2 0x1514 JUMP JUMPDEST DUP9 DUP9 PUSH1 0x1 DUP2 DUP2 LT PUSH2 0x716 JUMPI PUSH2 0x715 PUSH2 0x1C89 JUMP JUMPDEST JUMPDEST SWAP1 POP PUSH1 0x20 MUL ADD PUSH1 0x20 DUP2 ADD SWAP1 PUSH2 0x72B SWAP2 SWAP1 PUSH2 0x1CB8 JUMP JUMPDEST PUSH20 0xFFFFFFFFFFFFFFFFFFFFFFFFFFFFFFFFFFFFFFFF AND DUP10 DUP10 PUSH1 0x0 DUP2 DUP2 LT PUSH2 0x755 JUMPI PUSH2 0x754 PUSH2 0x1C89 JUMP JUMPDEST JUMPDEST SWAP1 POP PUSH1 0x20 MUL ADD PUSH1 0x20 DUP2 ADD SWAP1 PUSH2 0x76A SWAP2 SWAP1 PUSH2 0x1CB8 JUMP JUMPDEST PUSH20 0xFFFFFFFFFFFFFFFFFFFFFFFFFFFFFFFFFFFFFFFF AND LT ISZERO PUSH2 0x7FD JUMPI PUSH2 0x79A PUSH8 0xF8DA7A351CADA154 PUSH1 0xC0 SHL PUSH2 0x1514 JUMP JUMPDEST PUSH2 0x7AE PUSH8 0xDF6C027FB03E4DBB PUSH1 0xC0 SHL PUSH2 0x1514 JUMP JUMPDEST DUP11 DUP5 PUSH1 0x0 ADD PUSH1 0x0 DUP3 DUP3 SLOAD PUSH2 0x7C2 SWAP2 SWAP1 PUSH2 0x1ADB JUMP JUMPDEST SWAP3 POP POP DUP2 SWAP1 SSTORE POP PUSH2 0x7DD PUSH8 0x410D3BD235FEEC8D PUSH1 0xC0 SHL PUSH2 0x1514 JUMP JUMPDEST DUP1 DUP5 PUSH1 0x1 ADD PUSH1 0x0 DUP3 DUP3 SLOAD PUSH2 0x7F1 SWAP2 SWAP1 PUSH2 0x1DFC JUMP JUMPDEST SWAP3 POP POP DUP2 SWAP1 SSTORE POP PUSH2 0x870 JUMP JUMPDEST PUSH2 0x811 PUSH8 0x7965EC411D6F5549 PUSH1 0xC0 SHL PUSH2 0x1514 JUMP JUMPDEST PUSH2 0x825 PUSH8 0x2FAE47EFD2BBA074 PUSH1 0xC0 SHL PUSH2 0x1514 JUMP JUMPDEST DUP11 DUP5 PUSH1 0x1 ADD PUSH1 0x0 DUP3 DUP3 SLOAD PUSH2 0x839 SWAP2 SWAP1 PUSH2 0x1ADB JUMP JUMPDEST SWAP3 POP POP DUP2 SWAP1 SSTORE POP PUSH2 0x854 PUSH8 0xCEF7247F153BEF77 PUSH1 0xC0 SHL PUSH2 0x1514 JUMP JUMPDEST DUP1 DUP5 PUSH1 0x0 ADD PUSH1 0x0 DUP3 DUP3 SLOAD PUSH2 0x868 SWAP2 SWAP1 PUSH2 0x1DFC JUMP JUMPDEST SWAP3 POP POP DUP2 SWAP1 SSTORE POP JUMPDEST PUSH2 0x884 PUSH8 0x866691529C19EA5C PUSH1 0xC0 SHL PUSH2 0x1514 JUMP JUMPDEST PUSH2 0x898 PUSH8 0x3D77E22841EC56E7 PUSH1 0xC0 SHL PUSH2 0x1514 JUMP JUMPDEST DUP9 DUP9 PUSH1 0x1 DUP2 DUP2 LT PUSH2 0x8AC JUMPI PUSH2 0x8AB PUSH2 0x1C89 JUMP JUMPDEST JUMPDEST SWAP1 POP PUSH1 0x20 MUL ADD PUSH1 0x20 DUP2 ADD SWAP1 PUSH2 0x8C1 SWAP2 SWAP1 PUSH2 0x1CB8 JUMP JUMPDEST PUSH20 0xFFFFFFFFFFFFFFFFFFFFFFFFFFFFFFFFFFFFFFFF AND PUSH4 0xA9059CBB DUP9 DUP4 PUSH1 0x40 MLOAD DUP4 PUSH4 0xFFFFFFFF AND PUSH1 0xE0 SHL DUP2 MSTORE PUSH1 0x4 ADD PUSH2 0x8FB SWAP3 SWAP2 SWAP1 PUSH2 0x1E30 JUMP JUMPDEST PUSH1 0x20 PUSH1 0x40 MLOAD DUP1 DUP4 SUB DUP2 PUSH1 0x0 DUP8 GAS CALL ISZERO DUP1 ISZERO PUSH2 0x91A JUMPI RETURNDATASIZE PUSH1 0x0 DUP1 RETURNDATACOPY RETURNDATASIZE PUSH1 0x0 REVERT JUMPDEST POP POP POP POP PUSH1 0x40 MLOAD RETURNDATASIZE PUSH1 0x1F NOT PUSH1 0x1F DUP3 ADD AND DUP3 ADD DUP1 PUSH1 0x40 MSTORE POP DUP2 ADD SWAP1 PUSH2 0x93E SWAP2 SWAP1 PUSH2 0x1D63 JUMP JUMPDEST POP POP POP POP POP POP POP POP POP POP POP POP JUMP JUMPDEST PUSH1 0x0 PUSH2 0x962 PUSH8 0xC7405EC4E855E714 PUSH1 0xC0 SHL PUSH2 0x1514 JUMP JUMPDEST PUSH2 0x976 PUSH8 0x25E1E11A4D0815E2 PUSH1 0xC0 SHL PUSH2 0x1514 JUMP JUMPDEST PUSH2 0x98A PUSH8 0xB00A135C39484985 PUSH1 0xC0 SHL PUSH2 0x1514 JUMP JUMPDEST PUSH1 0x0 PUSH2 0x996 DUP5 DUP5 PUSH2 0x1517 JUMP JUMPDEST SWAP1 POP PUSH2 0x9AC PUSH8 0x8FD99ABD8B843FF2 PUSH1 0xC0 SHL PUSH2 0x1514 JUMP JUMPDEST PUSH2 0x9C0 PUSH8 0xAE2B58D2B36F8746 PUSH1 0xC0 SHL PUSH2 0x1514 JUMP JUMPDEST PUSH1 0x0 DUP1 PUSH1 0x0 DUP4 DUP2 MSTORE PUSH1 0x20 ADD SWAP1 DUP2 MSTORE PUSH1 0x20 ADD PUSH1 0x0 KECCAK256 SWAP1 POP PUSH2 0x9EA PUSH8 0x407B2FB539E62D81 PUSH1 0xC0 SHL PUSH2 0x1514 JUMP JUMPDEST PUSH2 0x9FE PUSH8 0x9BF7EC7B5F0552D1 PUSH1 0xC0 SHL PUSH2 0x1514 JUMP JUMPDEST PUSH1 0x0 DUP1 DUP6 PUSH20 0xFFFFFFFFFFFFFFFFFFFFFFFFFFFFFFFFFFFFFFFF AND DUP8 PUSH20 0xFFFFFFFFFFFFFFFFFFFFFFFFFFFFFFFFFFFFFFFF AND LT DUP1 PUSH2 0xA4B JUMPI POP PUSH2 0xA4A PUSH8 0x282B880FDB6A3ADB PUSH1 0xC0 SHL PUSH2 0x160B JUMP JUMPDEST JUMPDEST DUP1 ISZERO PUSH2 0xA67 JUMPI POP PUSH2 0xA66 PUSH8 0xC0F204AF8FCB4E7 PUSH1 0xC0 SHL PUSH2 0x1612 JUMP JUMPDEST JUMPDEST PUSH2 0xA7A JUMPI DUP3 PUSH1 0x1 ADD SLOAD DUP4 PUSH1 0x0 ADD SLOAD PUSH2 0xA85 JUMP JUMPDEST DUP3 PUSH1 0x0 ADD SLOAD DUP4 PUSH1 0x1 ADD SLOAD JUMPDEST SWAP2 POP SWAP2 POP PUSH2 0xA9D PUSH8 0x3EE7193036BE964A PUSH1 0xC0 SHL PUSH2 0x1514 JUMP JUMPDEST PUSH2 0xAB1 PUSH8 0x40636D2136B75833 PUSH1 0xC0 SHL PUSH2 0x1514 JUMP JUMPDEST PUSH2 0xAC5 PUSH8 0xE36260B39167CF2 PUSH1 0xC0 SHL PUSH2 0x1514 JUMP JUMPDEST PUSH1 0x0 DUP3 GT PUSH2 0xB08 JUMPI PUSH1 0x40 MLOAD PUSH32 0x8C379A000000000000000000000000000000000000000000000000000000000 DUP2 MSTORE PUSH1 0x4 ADD PUSH2 0xAFF SWAP1 PUSH2 0x1EA5 JUMP JUMPDEST PUSH1 0x40 MLOAD DUP1 SWAP2 SUB SWAP1 REVERT JUMPDEST PUSH2 0xB1C PUSH8 0x1291F7A2DB7B1E01 PUSH1 0xC0 SHL PUSH2 0x1514 JUMP JUMPDEST PUSH2 0xB30 PUSH8 0x570A4FE36476A9EF PUSH1 0xC0 SHL PUSH2 0x1514 JUMP JUMPDEST DUP2 PUSH8 0xDE0B6B3A7640000 DUP3 PUSH2 0xB45 SWAP2 SWAP1 PUSH2 0x1B0F JUMP JUMPDEST PUSH2 0xB4F SWAP2 SWAP1 PUSH2 0x1B80 JUMP JUMPDEST SWAP5 POP POP POP POP POP SWAP3 SWAP2 POP POP JUMP JUMPDEST PUSH1 0x0 DUP1 PUSH2 0xB72 PUSH8 0x1EA740185F8033A9 PUSH1 0xC0 SHL PUSH2 0x1514 JUMP JUMPDEST PUSH2 0xB86 PUSH8 0x9C52337643A6C69F PUSH1 0xC0 SHL PUSH2 0x1514 JUMP JUMPDEST PUSH2 0xB9A PUSH8 0x435D4DCA186B52A PUSH1 0xC0 SHL PUSH2 0x1514 JUMP JUMPDEST PUSH2 0xBAE PUSH8 0xF99A6E1BE075A19 PUSH1 0xC0 SHL PUSH2 0x1514 JUMP JUMPDEST DUP3 TIMESTAMP GT ISZERO PUSH2 0xBF1 JUMPI PUSH1 0x40 MLOAD PUSH32 0x8C379A000000000000000000000000000000000000000000000000000000000 DUP2 MSTORE PUSH1 0x4 ADD PUSH2 0xBE8 SWAP1 PUSH2 0x1C69 JUMP JUMPDEST PUSH1 0x40 MLOAD DUP1 SWAP2 SUB SWAP1 REVERT JUMPDEST PUSH2 0xC05 PUSH8 0xBC88D85A01851B5 PUSH1 0xC0 SHL PUSH2 0x1514 JUMP JUMPDEST PUSH2 0xC19 PUSH8 0x81029668A6F83DBE PUSH1 0xC0 SHL PUSH2 0x1514 JUMP JUMPDEST PUSH2 0xC2D PUSH8 0x5838CDA7EABDA8FD PUSH1 0xC0 SHL PUSH2 0x1514 JUMP JUMPDEST PUSH1 0x0 PUSH2 0xC39 DUP11 DUP11 PUSH2 0x1517 JUMP JUMPDEST SWAP1 POP PUSH2 0xC4F PUSH8 0xB7A295F41C5A1A17 PUSH1 0xC0 SHL PUSH2 0x1514 JUMP JUMPDEST PUSH2 0xC63 PUSH8 0xCC7371ABF85C31EE PUSH1 0xC0 SHL PUSH2 0x1514 JUMP JUMPDEST PUSH1 0x0 DUP1 PUSH1 0x0 DUP4 DUP2 MSTORE PUSH1 0x20 ADD SWAP1 DUP2 MSTORE PUSH1 0x20 ADD PUSH1 0x0 KECCAK256 SWAP1 POP PUSH2 0xC8D PUSH8 0x23282AB789C5E5D PUSH1 0xC0 SHL PUSH2 0x1514 JUMP JUMPDEST PUSH2 0xCA1 PUSH8 0x1D77E6581B90B484 PUSH1 0xC0 SHL PUSH2 0x1514 JUMP JUMPDEST PUSH2 0xCB5 PUSH8 0x39880EE4B5052065 PUSH1 0xC0 SHL PUSH2 0x1514 JUMP JUMPDEST DUP9 DUP2 PUSH1 0x2 ADD PUSH1 0x0 CALLER PUSH20 0xFFFFFFFFFFFFFFFFFFFFFFFFFFFFFFFFFFFFFFFF AND PUSH20 0xFFFFFFFFFFFFFFFFFFFFFFFFFFFFFFFFFFFFFFFF AND DUP2 MSTORE PUSH1 0x20 ADD SWAP1 DUP2 MSTORE PUSH1 0x20 ADD PUSH1 0x0 KECCAK256 SLOAD LT ISZERO PUSH2 0xD39 JUMPI PUSH1 0x40 MLOAD PUSH32 0x8C379A000000000000000000000000000000000000000000000000000000000 DUP2 MSTORE PUSH1 0x4 ADD PUSH2 0xD30 SWAP1 PUSH2 0x1EA5 JUMP JUMPDEST PUSH1 0x40 MLOAD DUP1 SWAP2 SUB SWAP1 REVERT JUMPDEST PUSH2 0xD4D PUSH8 0x11C3CB141E139C40 PUSH1 0xC0 SHL PUSH2 0x1514 JUMP JUMPDEST PUSH2 0xD61 PUSH8 0x8601D5443ECE2868 PUSH1 0xC0 SHL PUSH2 0x1514 JUMP JUMPDEST DUP1 PUSH1 0x3 ADD SLOAD DUP2 PUSH1 0x0 ADD SLOAD DUP11 PUSH2 0xD76 SWAP2 SWAP1 PUSH2 0x1B0F JUMP JUMPDEST PUSH2 0xD80 SWAP2 SWAP1 PUSH2 0x1B80 JUMP JUMPDEST SWAP4 POP PUSH2 0xD96 PUSH8 0x20A006BF56F19A7B PUSH1 0xC0 SHL PUSH2 0x1514 JUMP JUMPDEST DUP1 PUSH1 0x3 ADD SLOAD DUP2 PUSH1 0x1 ADD SLOAD DUP11 PUSH2 0xDAB SWAP2 SWAP1 PUSH2 0x1B0F JUMP JUMPDEST PUSH2 0xDB5 SWAP2 SWAP1 PUSH2 0x1B80 JUMP JUMPDEST SWAP3 POP PUSH2 0xDCB PUSH8 0x562D94B496E18769 PUSH1 0xC0 SHL PUSH2 0x1514 JUMP JUMPDEST PUSH2 0xDDF PUSH8 0xB6996A54B6CC6675 PUSH1 0xC0 SHL PUSH2 0x1514 JUMP JUMPDEST PUSH2 0xDF3 PUSH8 0xD00680EE44C5C177 PUSH1 0xC0 SHL PUSH2 0x1514 JUMP JUMPDEST DUP8 DUP5 LT ISZERO DUP1 ISZERO PUSH2 0xE03 JUMPI POP DUP7 DUP4 LT ISZERO JUMPDEST PUSH2 0xE42 JUMPI PUSH1 0x40 MLOAD PUSH32 0x8C379A000000000000000000000000000000000000000000000000000000000 DUP2 MSTORE PUSH1 0x4 ADD PUSH2 0xE39 SWAP1 PUSH2 0x1F11 JUMP JUMPDEST PUSH1 0x40 MLOAD DUP1 SWAP2 SUB SWAP1 REVERT JUMPDEST PUSH2 0xE56 PUSH8 0xF3D8371C06362545 PUSH1 0xC0 SHL PUSH2 0x1514 JUMP JUMPDEST PUSH2 0xE6A PUSH8 0x45F3A403CA93DD2A PUSH1 0xC0 SHL PUSH2 0x1514 JUMP JUMPDEST DUP4 DUP2 PUSH1 0x0 ADD PUSH1 0x0 DUP3 DUP3 SLOAD PUSH2 0xE7E SWAP2 SWAP1 PUSH2 0x1DFC JUMP JUMPDEST SWAP3 POP POP DUP2 SWAP1 SSTORE POP PUSH2 0xE99 PUSH8 0xD8DE5A057677CFE1 PUSH1 0xC0 SHL PUSH2 0x1514 JUMP JUMPDEST DUP3 DUP2 PUSH1 0x1 ADD PUSH1 0x0 DUP3 DUP3 SLOAD PUSH2 0xEAD SWAP2 SWAP1 PUSH2 0x1DFC JUMP JUMPDEST SWAP3 POP POP DUP2 SWAP1 SSTORE POP PUSH2 0xEC7 PUSH7 0xE8BD7A053F288B PUSH1 0xC0 SHL PUSH2 0x1514 JUMP JUMPDEST DUP9 DUP2 PUSH1 0x2 ADD PUSH1 0x0 CALLER PUSH20 0xFFFFFFFFFFFFFFFFFFFFFFFFFFFFFFFFFFFFFFFF AND PUSH20 0xFFFFFFFFFFFFFFFFFFFFFFFFFFFFFFFFFFFFFFFF AND DUP2 MSTORE PUSH1 0x20 ADD SWAP1 DUP2 MSTORE PUSH1 0x20 ADD PUSH1 0x0 KECCAK256 PUSH1 0x0 DUP3 DUP3 SLOAD PUSH2 0xF18 SWAP2 SWAP1 PUSH2 0x1DFC JUMP JUMPDEST SWAP3 POP POP DUP2 SWAP1 SSTORE POP PUSH2 0xF33 PUSH8 0xBEF1C649C682E7ED PUSH1 0xC0 SHL PUSH2 0x1514 JUMP JUMPDEST DUP9 DUP2 PUSH1 0x3 ADD PUSH1 0x0 DUP3 DUP3 SLOAD PUSH2 0xF47 SWAP2 SWAP1 PUSH2 0x1DFC JUMP JUMPDEST SWAP3 POP POP DUP2 SWAP1 SSTORE POP PUSH2 0xF62 PUSH8 0x59B979ADF1852B6 PUSH1 0xC0 SHL PUSH2 0x1514 JUMP JUMPDEST PUSH2 0xF76 PUSH8 0xED7BB20810C456BC PUSH1 0xC0 SHL PUSH2 0x1514 JUMP JUMPDEST DUP11 PUSH20 0xFFFFFFFFFFFFFFFFFFFFFFFFFFFFFFFFFFFFFFFF AND PUSH4 0xA9059CBB DUP8 DUP7 PUSH1 0x40 MLOAD DUP4 PUSH4 0xFFFFFFFF AND PUSH1 0xE0 SHL DUP2 MSTORE PUSH1 0x4 ADD PUSH2 0xFB1 SWAP3 SWAP2 SWAP1 PUSH2 0x1E30 JUMP JUMPDEST PUSH1 0x20 PUSH1 0x40 MLOAD DUP1 DUP4 SUB DUP2 PUSH1 0x0 DUP8 GAS CALL ISZERO DUP1 ISZERO PUSH2 0xFD0 JUMPI RETURNDATASIZE PUSH1 0x0 DUP1 RETURNDATACOPY RETURNDATASIZE PUSH1 0x0 REVERT JUMPDEST POP POP POP POP PUSH1 0x40 MLOAD RETURNDATASIZE PUSH1 0x1F NOT PUSH1 0x1F DUP3 ADD AND DUP3 ADD DUP1 PUSH1 0x40 MSTORE POP DUP2 ADD SWAP1 PUSH2 0xFF4 SWAP2 SWAP1 PUSH2 0x1D63 JUMP JUMPDEST POP PUSH2 0x1009 PUSH8 0x55F59FFDDA2936E PUSH1 0xC0 SHL PUSH2 0x1514 JUMP JUMPDEST PUSH2 0x101D PUSH8 0xF158492690A7CB20 PUSH1 0xC0 SHL PUSH2 0x1514 JUMP JUMPDEST DUP10 PUSH20 0xFFFFFFFFFFFFFFFFFFFFFFFFFFFFFFFFFFFFFFFF AND PUSH4 0xA9059CBB DUP8 DUP6 PUSH1 0x40 MLOAD DUP4 PUSH4 0xFFFFFFFF AND PUSH1 0xE0 SHL DUP2 MSTORE PUSH1 0x4 ADD PUSH2 0x1058 SWAP3 SWAP2 SWAP1 PUSH2 0x1E30 JUMP JUMPDEST PUSH1 0x20 PUSH1 0x40 MLOAD DUP1 DUP4 SUB DUP2 PUSH1 0x0 DUP8 GAS CALL ISZERO DUP1 ISZERO PUSH2 0x1077 JUMPI RETURNDATASIZE PUSH1 0x0 DUP1 RETURNDATACOPY RETURNDATASIZE PUSH1 0x0 REVERT JUMPDEST POP POP POP POP PUSH1 0x40 MLOAD RETURNDATASIZE PUSH1 0x1F NOT PUSH1 0x1F DUP3 ADD AND DUP3 ADD DUP1 PUSH1 0x40 MSTORE POP DUP2 ADD SWAP1 PUSH2 0x109B SWAP2 SWAP1 PUSH2 0x1D63 JUMP JUMPDEST POP POP POP SWAP8 POP SWAP8 SWAP6 POP POP POP POP POP POP JUMP JUMPDEST PUSH1 0x0 DUP1 PUSH1 0x0 PUSH2 0x10C3 PUSH8 0xFDFEDFA36FE7D498 PUSH1 0xC0 SHL PUSH2 0x1514 JUMP JUMPDEST PUSH2 0x10D7 PUSH8 0x3C8B69AB122032ED PUSH1 0xC0 SHL PUSH2 0x1514 JUMP JUMPDEST PUSH2 0x10EB PUSH8 0x39BF1FBFCA19981F PUSH1 0xC0 SHL PUSH2 0x1514 JUMP JUMPDEST PUSH2 0x10FF PUSH8 0x55500F517C5E511A PUSH1 0xC0 SHL PUSH2 0x1514 JUMP JUMPDEST DUP4 TIMESTAMP GT ISZERO PUSH2 0x1142 JUMPI PUSH1 0x40 MLOAD PUSH32 0x8C379A000000000000000000000000000000000000000000000000000000000 DUP2 MSTORE PUSH1 0x4 ADD PUSH2 0x1139 SWAP1 PUSH2 0x1C69 JUMP JUMPDEST PUSH1 0x40 MLOAD DUP1 SWAP2 SUB SWAP1 REVERT JUMPDEST PUSH2 0x1156 PUSH8 0x9AC08CCA0AE35467 PUSH1 0xC0 SHL PUSH2 0x1514 JUMP JUMPDEST PUSH2 0x116A PUSH8 0xE9B2411A16FA0380 PUSH1 0xC0 SHL PUSH2 0x1514 JUMP JUMPDEST PUSH2 0x117E PUSH8 0x97A4F77E97C79263 PUSH1 0xC0 SHL PUSH2 0x1514 JUMP JUMPDEST PUSH1 0x0 PUSH2 0x118A DUP13 DUP13 PUSH2 0x1517 JUMP JUMPDEST SWAP1 POP PUSH2 0x11A0 PUSH8 0x30A00F347F7DAA02 PUSH1 0xC0 SHL PUSH2 0x1514 JUMP JUMPDEST PUSH2 0x11B4 PUSH8 0x845D0BA40E7A67C8 PUSH1 0xC0 SHL PUSH2 0x1514 JUMP JUMPDEST PUSH1 0x0 DUP1 PUSH1 0x0 DUP4 DUP2 MSTORE PUSH1 0x20 ADD SWAP1 DUP2 MSTORE PUSH1 0x20 ADD PUSH1 0x0 KECCAK256 SWAP1 POP PUSH2 0x11DE PUSH8 0x67F80EF6558C86DC PUSH1 0xC0 SHL PUSH2 0x1514 JUMP JUMPDEST DUP11 SWAP5 POP PUSH2 0x11F5 PUSH8 0x2EFA873CF2B8613E PUSH1 0xC0 SHL PUSH2 0x1514 JUMP JUMPDEST DUP10 SWAP4 POP PUSH2 0x120C PUSH8 0xC1EB15B827AF4470 PUSH1 0xC0 SHL PUSH2 0x1514 JUMP JUMPDEST PUSH2 0x1220 PUSH8 0x2D96FC919D284402 PUSH1 0xC0 SHL PUSH2 0x1514 JUMP JUMPDEST PUSH2 0x1234 PUSH8 0xCA9FA17965811C7E PUSH1 0xC0 SHL PUSH2 0x1514 JUMP JUMPDEST DUP9 DUP6 LT ISZERO DUP1 ISZERO PUSH2 0x1244 JUMPI POP DUP8 DUP5 LT ISZERO JUMPDEST PUSH2 0x1283 JUMPI PUSH1 0x40 MLOAD PUSH32 0x8C379A000000000000000000000000000000000000000000000000000000000 DUP2 MSTORE PUSH1 0x4 ADD PUSH2 0x127A SWAP1 PUSH2 0x1F11 JUMP JUMPDEST PUSH1 0x40 MLOAD DUP1 SWAP2 SUB SWAP1 REVERT JUMPDEST PUSH2 0x1297 PUSH8 0xD109A99F65DC9D4A PUSH1 0xC0 SHL PUSH2 0x1514 JUMP JUMPDEST PUSH2 0x12AB PUSH8 0x736CCBE62D3DEBF9 PUSH1 0xC0 SHL PUSH2 0x1514 JUMP JUMPDEST PUSH2 0x12BF PUSH8 0xA891C6DCA223DAF6 PUSH1 0xC0 SHL PUSH2 0x1514 JUMP JUMPDEST DUP13 PUSH20 0xFFFFFFFFFFFFFFFFFFFFFFFFFFFFFFFFFFFFFFFF AND PUSH4 0x23B872DD CALLER ADDRESS DUP9 PUSH1 0x40 MLOAD DUP5 PUSH4 0xFFFFFFFF AND PUSH1 0xE0 SHL DUP2 MSTORE PUSH1 0x4 ADD PUSH2 0x12FC SWAP4 SWAP3 SWAP2 SWAP1 PUSH2 0x1CF4 JUMP JUMPDEST PUSH1 0x20 PUSH1 0x40 MLOAD DUP1 DUP4 SUB DUP2 PUSH1 0x0 DUP8 GAS CALL ISZERO DUP1 ISZERO PUSH2 0x131B JUMPI RETURNDATASIZE PUSH1 0x0 DUP1 RETURNDATACOPY RETURNDATASIZE PUSH1 0x0 REVERT JUMPDEST POP POP POP POP PUSH1 0x40 MLOAD RETURNDATASIZE PUSH1 0x1F NOT PUSH1 0x1F DUP3 ADD AND DUP3 ADD DUP1 PUSH1 0x40 MSTORE POP DUP2 ADD SWAP1 PUSH2 0x133F SWAP2 SWAP1 PUSH2 0x1D63 JUMP JUMPDEST POP PUSH2 0x1354 PUSH8 0xAFDD66855946610D PUSH1 0xC0 SHL PUSH2 0x1514 JUMP JUMPDEST PUSH2 0x1368 PUSH8 0x66CDCC70AB553A40 PUSH1 0xC0 SHL PUSH2 0x1514 JUMP JUMPDEST DUP12 PUSH20 0xFFFFFFFFFFFFFFFFFFFFFFFFFFFFFFFFFFFFFFFF AND PUSH4 0x23B872DD CALLER ADDRESS DUP8 PUSH1 0x40 MLOAD DUP5 PUSH4 0xFFFFFFFF AND PUSH1 0xE0 SHL DUP2 MSTORE PUSH1 0x4 ADD PUSH2 0x13A5 SWAP4 SWAP3 SWAP2 SWAP1 PUSH2 0x1CF4 JUMP JUMPDEST PUSH1 0x20 PUSH1 0x40 MLOAD DUP1 DUP4 SUB DUP2 PUSH1 0x0 DUP8 GAS CALL ISZERO DUP1 ISZERO PUSH2 0x13C4 JUMPI RETURNDATASIZE PUSH1 0x0 DUP1 RETURNDATACOPY RETURNDATASIZE PUSH1 0x0 REVERT JUMPDEST POP POP POP POP PUSH1 0x40 MLOAD RETURNDATASIZE PUSH1 0x1F NOT PUSH1 0x1F DUP3 ADD AND DUP3 ADD DUP1 PUSH1 0x40 MSTORE POP DUP2 ADD SWAP1 PUSH2 0x13E8 SWAP2 SWAP1 PUSH2 0x1D63 JUMP JUMPDEST POP PUSH2 0x13FD PUSH8 0xEAE7F16AF7EE28A7 PUSH1 0xC0 SHL PUSH2 0x1514 JUMP JUMPDEST DUP4 DUP6 PUSH2 0x1409 SWAP2 SWAP1 PUSH2 0x1ADB JUMP JUMPDEST SWAP3 POP PUSH2 0x141F PUSH8 0x8F678A2D6DEF595D PUSH1 0xC0 SHL PUSH2 0x1514 JUMP JUMPDEST DUP5 DUP2 PUSH1 0x0 ADD PUSH1 0x0 DUP3 DUP3 SLOAD PUSH2 0x1433 SWAP2 SWAP1 PUSH2 0x1ADB JUMP JUMPDEST SWAP3 POP POP DUP2 SWAP1 SSTORE POP PUSH2 0x144E PUSH8 0xE0F4B095CAA394DA PUSH1 0xC0 SHL PUSH2 0x1514 JUMP JUMPDEST DUP4 DUP2 PUSH1 0x1 ADD PUSH1 0x0 DUP3 DUP3 SLOAD PUSH2 0x1462 SWAP2 SWAP1 PUSH2 0x1ADB JUMP JUMPDEST SWAP3 POP POP DUP2 SWAP1 SSTORE POP PUSH2 0x147D PUSH8 0x3FFFF1EC1A3FFEAE PUSH1 0xC0 SHL PUSH2 0x1514 JUMP JUMPDEST DUP3 DUP2 PUSH1 0x2 ADD PUSH1 0x0 DUP10 PUSH20 0xFFFFFFFFFFFFFFFFFFFFFFFFFFFFFFFFFFFFFFFF AND PUSH20 0xFFFFFFFFFFFFFFFFFFFFFFFFFFFFFFFFFFFFFFFF AND DUP2 MSTORE PUSH1 0x20 ADD SWAP1 DUP2 MSTORE PUSH1 0x20 ADD PUSH1 0x0 KECCAK256 PUSH1 0x0 DUP3 DUP3 SLOAD PUSH2 0x14CE SWAP2 SWAP1 PUSH2 0x1ADB JUMP JUMPDEST SWAP3 POP POP DUP2 SWAP1 SSTORE POP PUSH2 0x14E9 PUSH8 0x55A74D6F2099DAFC PUSH1 0xC0 SHL PUSH2 0x1514 JUMP JUMPDEST DUP3 DUP2 PUSH1 0x3 ADD PUSH1 0x0 DUP3 DUP3 SLOAD PUSH2 0x14FD SWAP2 SWAP1 PUSH2 0x1ADB JUMP JUMPDEST SWAP3 POP POP DUP2 SWAP1 SSTORE POP POP POP SWAP9 POP SWAP9 POP SWAP9 SWAP6 POP POP POP POP POP POP JUMP JUMPDEST POP JUMP JUMPDEST PUSH1 0x0 PUSH2 0x152D PUSH8 0xE98EC344A9C28826 PUSH1 0xC0 SHL PUSH2 0x1514 JUMP JUMPDEST PUSH2 0x1541 PUSH8 0x17DB3B6B3D416B9F PUSH1 0xC0 SHL PUSH2 0x1514 JUMP JUMPDEST DUP2 PUSH20 0xFFFFFFFFFFFFFFFFFFFFFFFFFFFFFFFFFFFFFFFF AND DUP4 PUSH20 0xFFFFFFFFFFFFFFFFFFFFFFFFFFFFFFFFFFFFFFFF AND LT DUP1 PUSH2 0x158B JUMPI POP PUSH2 0x158A PUSH8 0x9338857B21764F15 PUSH1 0xC0 SHL PUSH2 0x160B JUMP JUMPDEST JUMPDEST DUP1 ISZERO PUSH2 0x15A7 JUMPI POP PUSH2 0x15A6 PUSH8 0x4D19E9D3CEF5F746 PUSH1 0xC0 SHL PUSH2 0x1612 JUMP JUMPDEST JUMPDEST PUSH2 0x15D9 JUMPI DUP2 DUP4 PUSH1 0x40 MLOAD PUSH1 0x20 ADD PUSH2 0x15BE SWAP3 SWAP2 SWAP1 PUSH2 0x1F79 JUMP JUMPDEST PUSH1 0x40 MLOAD PUSH1 0x20 DUP2 DUP4 SUB SUB DUP2 MSTORE SWAP1 PUSH1 0x40 MSTORE DUP1 MLOAD SWAP1 PUSH1 0x20 ADD KECCAK256 PUSH2 0x1603 JUMP JUMPDEST DUP3 DUP3 PUSH1 0x40 MLOAD PUSH1 0x20 ADD PUSH2 0x15EC SWAP3 SWAP2 SWAP1 PUSH2 0x1F79 JUMP JUMPDEST PUSH1 0x40 MLOAD PUSH1 0x20 DUP2 DUP4 SUB SUB DUP2 MSTORE SWAP1 PUSH1 0x40 MSTORE DUP1 MLOAD SWAP1 PUSH1 0x20 ADD KECCAK256 JUMPDEST SWAP1 POP SWAP3 SWAP2 POP POP JUMP JUMPDEST PUSH1 0x0 SWAP2 SWAP1 POP JUMP JUMPDEST PUSH1 0x0 PUSH1 0x1 SWAP1 POP SWAP2 SWAP1 POP JUMP JUMPDEST PUSH1 0x0 DUP1 REVERT JUMPDEST PUSH1 0x0 DUP1 REVERT JUMPDEST PUSH1 0x0 DUP2 SWAP1 POP SWAP2 SWAP1 POP JUMP JUMPDEST PUSH2 0x163A DUP2 PUSH2 0x1627 JUMP JUMPDEST DUP2 EQ PUSH2 0x1645 JUMPI PUSH1 0x0 DUP1 REVERT JUMPDEST POP JUMP JUMPDEST PUSH1 0x0 DUP2 CALLDATALOAD SWAP1 POP PUSH2 0x1657 DUP2 PUSH2 0x1631 JUMP JUMPDEST SWAP3 SWAP2 POP POP JUMP JUMPDEST PUSH1 0x0 DUP1 PUSH1 0x0 PUSH1 0x60 DUP5 DUP7 SUB SLT ISZERO PUSH2 0x1676 JUMPI PUSH2 0x1675 PUSH2 0x161D JUMP JUMPDEST JUMPDEST PUSH1 0x0 PUSH2 0x1684 DUP7 DUP3 DUP8 ADD PUSH2 0x1648 JUMP JUMPDEST SWAP4 POP POP PUSH1 0x20 PUSH2 0x1695 DUP7 DUP3 DUP8 ADD PUSH2 0x1648 JUMP JUMPDEST SWAP3 POP POP PUSH1 0x40 PUSH2 0x16A6 DUP7 DUP3 DUP8 ADD PUSH2 0x1648 JUMP JUMPDEST SWAP2 POP POP SWAP3 POP SWAP3 POP SWAP3 JUMP JUMPDEST PUSH2 0x16B9 DUP2 PUSH2 0x1627 JUMP JUMPDEST DUP3 MSTORE POP POP JUMP JUMPDEST PUSH1 0x0 PUSH1 0x20 DUP3 ADD SWAP1 POP PUSH2 0x16D4 PUSH1 0x0 DUP4 ADD DUP5 PUSH2 0x16B0 JUMP JUMPDEST SWAP3 SWAP2 POP POP JUMP JUMPDEST PUSH1 0x0 DUP1 REVERT JUMPDEST PUSH1 0x0 DUP1 REVERT JUMPDEST PUSH1 0x0 DUP1 REVERT JUMPDEST PUSH1 0x0 DUP1 DUP4 PUSH1 0x1F DUP5 ADD SLT PUSH2 0x16FF JUMPI PUSH2 0x16FE PUSH2 0x16DA JUMP JUMPDEST JUMPDEST DUP3 CALLDATALOAD SWAP1 POP PUSH8 0xFFFFFFFFFFFFFFFF DUP2 GT ISZERO PUSH2 0x171C JUMPI PUSH2 0x171B PUSH2 0x16DF JUMP JUMPDEST JUMPDEST PUSH1 0x20 DUP4 ADD SWAP2 POP DUP4 PUSH1 0x20 DUP3 MUL DUP4 ADD GT ISZERO PUSH2 0x1738 JUMPI PUSH2 0x1737 PUSH2 0x16E4 JUMP JUMPDEST JUMPDEST SWAP3 POP SWAP3 SWAP1 POP JUMP JUMPDEST PUSH1 0x0 PUSH20 0xFFFFFFFFFFFFFFFFFFFFFFFFFFFFFFFFFFFFFFFF DUP3 AND SWAP1 POP SWAP2 SWAP1 POP JUMP JUMPDEST PUSH1 0x0 PUSH2 0x176A DUP3 PUSH2 0x173F JUMP JUMPDEST SWAP1 POP SWAP2 SWAP1 POP JUMP JUMPDEST PUSH2 0x177A DUP2 PUSH2 0x175F JUMP JUMPDEST DUP2 EQ PUSH2 0x1785 JUMPI PUSH1 0x0 DUP1 REVERT JUMPDEST POP JUMP JUMPDEST PUSH1 0x0 DUP2 CALLDATALOAD SWAP1 POP PUSH2 0x1797 DUP2 PUSH2 0x1771 JUMP JUMPDEST SWAP3 SWAP2 POP POP JUMP JUMPDEST PUSH1 0x0 DUP1 PUSH1 0x0 DUP1 PUSH1 0x0 DUP1 PUSH1 0xA0 DUP8 DUP10 SUB SLT ISZERO PUSH2 0x17BA JUMPI PUSH2 0x17B9 PUSH2 0x161D JUMP JUMPDEST JUMPDEST PUSH1 0x0 PUSH2 0x17C8 DUP10 DUP3 DUP11 ADD PUSH2 0x1648 JUMP JUMPDEST SWAP7 POP POP PUSH1 0x20 PUSH2 0x17D9 DUP10 DUP3 DUP11 ADD PUSH2 0x1648 JUMP JUMPDEST SWAP6 POP POP PUSH1 0x40 DUP8 ADD CALLDATALOAD PUSH8 0xFFFFFFFFFFFFFFFF DUP2 GT ISZERO PUSH2 0x17FA JUMPI PUSH2 0x17F9 PUSH2 0x1622 JUMP JUMPDEST JUMPDEST PUSH2 0x1806 DUP10 DUP3 DUP11 ADD PUSH2 0x16E9 JUMP JUMPDEST SWAP5 POP SWAP5 POP POP PUSH1 0x60 PUSH2 0x1819 DUP10 DUP3 DUP11 ADD PUSH2 0x1788 JUMP JUMPDEST SWAP3 POP POP PUSH1 0x80 PUSH2 0x182A DUP10 DUP3 DUP11 ADD PUSH2 0x1648 JUMP JUMPDEST SWAP2 POP POP SWAP3 SWAP6 POP SWAP3 SWAP6 POP SWAP3 SWAP6 JUMP JUMPDEST PUSH1 0x0 DUP1 PUSH1 0x40 DUP4 DUP6 SUB SLT ISZERO PUSH2 0x184E JUMPI PUSH2 0x184D PUSH2 0x161D JUMP JUMPDEST JUMPDEST PUSH1 0x0 PUSH2 0x185C DUP6 DUP3 DUP7 ADD PUSH2 0x1788 JUMP JUMPDEST SWAP3 POP POP PUSH1 0x20 PUSH2 0x186D DUP6 DUP3 DUP7 ADD PUSH2 0x1788 JUMP JUMPDEST SWAP2 POP POP SWAP3 POP SWAP3 SWAP1 POP JUMP JUMPDEST PUSH1 0x0 DUP1 PUSH1 0x0 DUP1 PUSH1 0x0 DUP1 PUSH1 0x0 PUSH1 0xE0 DUP9 DUP11 SUB SLT ISZERO PUSH2 0x1896 JUMPI PUSH2 0x1895 PUSH2 0x161D JUMP JUMPDEST JUMPDEST PUSH1 0x0 PUSH2 0x18A4 DUP11 DUP3 DUP12 ADD PUSH2 0x1788 JUMP JUMPDEST SWAP8 POP POP PUSH1 0x20 PUSH2 0x18B5 DUP11 DUP3 DUP12 ADD PUSH2 0x1788 JUMP JUMPDEST SWAP7 POP POP PUSH1 0x40 PUSH2 0x18C6 DUP11 DUP3 DUP12 ADD PUSH2 0x1648 JUMP JUMPDEST SWAP6 POP POP PUSH1 0x60 PUSH2 0x18D7 DUP11 DUP3 DUP12 ADD PUSH2 0x1648 JUMP JUMPDEST SWAP5 POP POP PUSH1 0x80 PUSH2 0x18E8 DUP11 DUP3 DUP12 ADD PUSH2 0x1648 JUMP JUMPDEST SWAP4 POP POP PUSH1 0xA0 PUSH2 0x18F9 DUP11 DUP3 DUP12 ADD PUSH2 0x1788 JUMP JUMPDEST SWAP3 POP POP PUSH1 0xC0 PUSH2 0x190A DUP11 DUP3 DUP12 ADD PUSH2 0x1648 JUMP JUMPDEST SWAP2 POP POP SWAP3 SWAP6 SWAP9 SWAP2 SWAP5 SWAP8 POP SWAP3 SWAP6 POP JUMP JUMPDEST PUSH1 0x0 PUSH1 0x40 DUP3 ADD SWAP1 POP PUSH2 0x192E PUSH1 0x0 DUP4 ADD DUP6 PUSH2 0x16B0 JUMP JUMPDEST PUSH2 0x193B PUSH1 0x20 DUP4 ADD DUP5 PUSH2 0x16B0 JUMP JUMPDEST SWAP4 SWAP3 POP POP POP JUMP JUMPDEST PUSH1 0x0 DUP1 PUSH1 0x0 DUP1 PUSH1 0x0 DUP1 PUSH1 0x0 DUP1 PUSH2 0x100 DUP10 DUP12 SUB SLT ISZERO PUSH2 0x1963 JUMPI PUSH2 0x1962 PUSH2 0x161D JUMP JUMPDEST JUMPDEST PUSH1 0x0 PUSH2 0x1971 DUP12 DUP3 DUP13 ADD PUSH2 0x1788 JUMP JUMPDEST SWAP9 POP POP PUSH1 0x20 PUSH2 0x1982 DUP12 DUP3 DUP13 ADD PUSH2 0x1788 JUMP JUMPDEST SWAP8 POP POP PUSH1 0x40 PUSH2 0x1993 DUP12 DUP3 DUP13 ADD PUSH2 0x1648 JUMP JUMPDEST SWAP7 POP POP PUSH1 0x60 PUSH2 0x19A4 DUP12 DUP3 DUP13 ADD PUSH2 0x1648 JUMP JUMPDEST SWAP6 POP POP PUSH1 0x80 PUSH2 0x19B5 DUP12 DUP3 DUP13 ADD PUSH2 0x1648 JUMP JUMPDEST SWAP5 POP POP PUSH1 0xA0 PUSH2 0x19C6 DUP12 DUP3 DUP13 ADD PUSH2 0x1648 JUMP JUMPDEST SWAP4 POP POP PUSH1 0xC0 PUSH2 0x19D7 DUP12 DUP3 DUP13 ADD PUSH2 0x1788 JUMP JUMPDEST SWAP3 POP POP PUSH1 0xE0 PUSH2 0x19E8 DUP12 DUP3 DUP13 ADD PUSH2 0x1648 JUMP JUMPDEST SWAP2 POP POP SWAP3 SWAP6 SWAP9 POP SWAP3 SWAP6 SWAP9 SWAP1 SWAP4 SWAP7 POP JUMP JUMPDEST PUSH1 0x0 PUSH1 0x60 DUP3 ADD SWAP1 POP PUSH2 0x1A0D PUSH1 0x0 DUP4 ADD DUP7 PUSH2 0x16B0 JUMP JUMPDEST PUSH2 0x1A1A PUSH1 0x20 DUP4 ADD DUP6 PUSH2 0x16B0 JUMP JUMPDEST PUSH2 0x1A27 PUSH1 0x40 DUP4 ADD DUP5 PUSH2 0x16B0 JUMP JUMPDEST SWAP5 SWAP4 POP POP POP POP JUMP JUMPDEST PUSH1 0x0 DUP3 DUP3 MSTORE PUSH1 0x20 DUP3 ADD SWAP1 POP SWAP3 SWAP2 POP POP JUMP JUMPDEST PUSH32 0x496E76616C696452657365727665730000000000000000000000000000000000 PUSH1 0x0 DUP3 ADD MSTORE POP JUMP JUMPDEST PUSH1 0x0 PUSH2 0x1A76 PUSH1 0xF DUP4 PUSH2 0x1A2F JUMP JUMPDEST SWAP2 POP PUSH2 0x1A81 DUP3 PUSH2 0x1A40 JUMP JUMPDEST PUSH1 0x20 DUP3 ADD SWAP1 POP SWAP2 SWAP1 POP JUMP JUMPDEST PUSH1 0x0 PUSH1 0x20 DUP3 ADD SWAP1 POP DUP2 DUP2 SUB PUSH1 0x0 DUP4 ADD MSTORE PUSH2 0x1AA5 DUP2 PUSH2 0x1A69 JUMP JUMPDEST SWAP1 POP SWAP2 SWAP1 POP JUMP JUMPDEST PUSH32 0x4E487B7100000000000000000000000000000000000000000000000000000000 PUSH1 0x0 MSTORE PUSH1 0x11 PUSH1 0x4 MSTORE PUSH1 0x24 PUSH1 0x0 REVERT JUMPDEST PUSH1 0x0 PUSH2 0x1AE6 DUP3 PUSH2 0x1627 JUMP JUMPDEST SWAP2 POP PUSH2 0x1AF1 DUP4 PUSH2 0x1627 JUMP JUMPDEST SWAP3 POP DUP3 DUP3 ADD SWAP1 POP DUP1 DUP3 GT ISZERO PUSH2 0x1B09 JUMPI PUSH2 0x1B08 PUSH2 0x1AAC JUMP JUMPDEST JUMPDEST SWAP3 SWAP2 POP POP JUMP JUMPDEST PUSH1 0x0 PUSH2 0x1B1A DUP3 PUSH2 0x1627 JUMP JUMPDEST SWAP2 POP PUSH2 0x1B25 DUP4 PUSH2 0x1627 JUMP JUMPDEST SWAP3 POP DUP3 DUP3 MUL PUSH2 0x1B33 DUP2 PUSH2 0x1627 JUMP JUMPDEST SWAP2 POP DUP3 DUP3 DIV DUP5 EQ DUP4 ISZERO OR PUSH2 0x1B4A JUMPI PUSH2 0x1B49 PUSH2 0x1AAC JUMP JUMPDEST JUMPDEST POP SWAP3 SWAP2 POP POP JUMP JUMPDEST PUSH32 0x4E487B7100000000000000000000000000000000000000000000000000000000 PUSH1 0x0 MSTORE PUSH1 0x12 PUSH1 0x4 MSTORE PUSH1 0x24 PUSH1 0x0 REVERT JUMPDEST PUSH1 0x0 PUSH2 0x1B8B DUP3 PUSH2 0x1627 JUMP JUMPDEST SWAP2 POP PUSH2 0x1B96 DUP4 PUSH2 0x1627 JUMP JUMPDEST SWAP3 POP DUP3 PUSH2 0x1BA6 JUMPI PUSH2 0x1BA5 PUSH2 0x1B51 JUMP JUMPDEST JUMPDEST DUP3 DUP3 DIV SWAP1 POP SWAP3 SWAP2 POP POP JUMP JUMPDEST PUSH32 0x50617468496E76616C6964000000000000000000000000000000000000000000 PUSH1 0x0 DUP3 ADD MSTORE POP JUMP JUMPDEST PUSH1 0x0 PUSH2 0x1BE7 PUSH1 0xB DUP4 PUSH2 0x1A2F JUMP JUMPDEST SWAP2 POP PUSH2 0x1BF2 DUP3 PUSH2 0x1BB1 JUMP JUMPDEST PUSH1 0x20 DUP3 ADD SWAP1 POP SWAP2 SWAP1 POP JUMP JUMPDEST PUSH1 0x0 PUSH1 0x20 DUP3 ADD SWAP1 POP DUP2 DUP2 SUB PUSH1 0x0 DUP4 ADD MSTORE PUSH2 0x1C16 DUP2 PUSH2 0x1BDA JUMP JUMPDEST SWAP1 POP SWAP2 SWAP1 POP JUMP JUMPDEST PUSH32 0x4578706972656400000000000000000000000000000000000000000000000000 PUSH1 0x0 DUP3 ADD MSTORE POP JUMP JUMPDEST PUSH1 0x0 PUSH2 0x1C53 PUSH1 0x7 DUP4 PUSH2 0x1A2F JUMP JUMPDEST SWAP2 POP PUSH2 0x1C5E DUP3 PUSH2 0x1C1D JUMP JUMPDEST PUSH1 0x20 DUP3 ADD SWAP1 POP SWAP2 SWAP1 POP JUMP JUMPDEST PUSH1 0x0 PUSH1 0x20 DUP3 ADD SWAP1 POP DUP2 DUP2 SUB PUSH1 0x0 DUP4 ADD MSTORE PUSH2 0x1C82 DUP2 PUSH2 0x1C46 JUMP JUMPDEST SWAP1 POP SWAP2 SWAP1 POP JUMP JUMPDEST PUSH32 0x4E487B7100000000000000000000000000000000000000000000000000000000 PUSH1 0x0 MSTORE PUSH1 0x32 PUSH1 0x4 MSTORE PUSH1 0x24 PUSH1 0x0 REVERT JUMPDEST PUSH1 0x0 PUSH1 0x20 DUP3 DUP5 SUB SLT ISZERO PUSH2 0x1CCE JUMPI PUSH2 0x1CCD PUSH2 0x161D JUMP JUMPDEST JUMPDEST PUSH1 0x0 PUSH2 0x1CDC DUP5 DUP3 DUP6 ADD PUSH2 0x1788 JUMP JUMPDEST SWAP2 POP POP SWAP3 SWAP2 POP POP JUMP JUMPDEST PUSH2 0x1CEE DUP2 PUSH2 0x175F JUMP JUMPDEST DUP3 MSTORE POP POP JUMP JUMPDEST PUSH1 0x0 PUSH1 0x60 DUP3 ADD SWAP1 POP PUSH2 0x1D09 PUSH1 0x0 DUP4 ADD DUP7 PUSH2 0x1CE5 JUMP JUMPDEST PUSH2 0x1D16 PUSH1 0x20 DUP4 ADD DUP6 PUSH2 0x1CE5 JUMP JUMPDEST PUSH2 0x1D23 PUSH1 0x40 DUP4 ADD DUP5 PUSH2 0x16B0 JUMP JUMPDEST SWAP5 SWAP4 POP POP POP POP JUMP JUMPDEST PUSH1 0x0 DUP2 ISZERO ISZERO SWAP1 POP SWAP2 SWAP1 POP JUMP JUMPDEST PUSH2 0x1D40 DUP2 PUSH2 0x1D2B JUMP JUMPDEST DUP2 EQ PUSH2 0x1D4B JUMPI PUSH1 0x0 DUP1 REVERT JUMPDEST POP JUMP JUMPDEST PUSH1 0x0 DUP2 MLOAD SWAP1 POP PUSH2 0x1D5D DUP2 PUSH2 0x1D37 JUMP JUMPDEST SWAP3 SWAP2 POP POP JUMP JUMPDEST PUSH1 0x0 PUSH1 0x20 DUP3 DUP5 SUB SLT ISZERO PUSH2 0x1D79 JUMPI PUSH2 0x1D78 PUSH2 0x161D JUMP JUMPDEST JUMPDEST PUSH1 0x0 PUSH2 0x1D87 DUP5 DUP3 DUP6 ADD PUSH2 0x1D4E JUMP JUMPDEST SWAP2 POP POP SWAP3 SWAP2 POP POP JUMP JUMPDEST PUSH32 0x536C697070616765000000000000000000000000000000000000000000000000 PUSH1 0x0 DUP3 ADD MSTORE POP JUMP JUMPDEST PUSH1 0x0 PUSH2 0x1DC6 PUSH1 0x8 DUP4 PUSH2 0x1A2F JUMP JUMPDEST SWAP2 POP PUSH2 0x1DD1 DUP3 PUSH2 0x1D90 JUMP JUMPDEST PUSH1 0x20 DUP3 ADD SWAP1 POP SWAP2 SWAP1 POP JUMP JUMPDEST PUSH1 0x0 PUSH1 0x20 DUP3 ADD SWAP1 POP DUP2 DUP2 SUB PUSH1 0x0 DUP4 ADD MSTORE PUSH2 0x1DF5 DUP2 PUSH2 0x1DB9 JUMP JUMPDEST SWAP1 POP SWAP2 SWAP1 POP JUMP JUMPDEST PUSH1 0x0 PUSH2 0x1E07 DUP3 PUSH2 0x1627 JUMP JUMPDEST SWAP2 POP PUSH2 0x1E12 DUP4 PUSH2 0x1627 JUMP JUMPDEST SWAP3 POP DUP3 DUP3 SUB SWAP1 POP DUP2 DUP2 GT ISZERO PUSH2 0x1E2A JUMPI PUSH2 0x1E29 PUSH2 0x1AAC JUMP JUMPDEST JUMPDEST SWAP3 SWAP2 POP POP JUMP JUMPDEST PUSH1 0x0 PUSH1 0x40 DUP3 ADD SWAP1 POP PUSH2 0x1E45 PUSH1 0x0 DUP4 ADD DUP6 PUSH2 0x1CE5 JUMP JUMPDEST PUSH2 0x1E52 PUSH1 0x20 DUP4 ADD DUP5 PUSH2 0x16B0 JUMP JUMPDEST SWAP4 SWAP3 POP POP POP JUMP JUMPDEST PUSH32 0x4E6F4C6971756964697479000000000000000000000000000000000000000000 PUSH1 0x0 DUP3 ADD MSTORE POP JUMP JUMPDEST PUSH1 0x0 PUSH2 0x1E8F PUSH1 0xB DUP4 PUSH2 0x1A2F JUMP JUMPDEST SWAP2 POP PUSH2 0x1E9A DUP3 PUSH2 0x1E59 JUMP JUMPDEST PUSH1 0x20 DUP3 ADD SWAP1 POP SWAP2 SWAP1 POP JUMP JUMPDEST PUSH1 0x0 PUSH1 0x20 DUP3 ADD SWAP1 POP DUP2 DUP2 SUB PUSH1 0x0 DUP4 ADD MSTORE PUSH2 0x1EBE DUP2 PUSH2 0x1E82 JUMP JUMPDEST SWAP1 POP SWAP2 SWAP1 POP JUMP JUMPDEST PUSH32 0x4D696E4E6F744D65740000000000000000000000000000000000000000000000 PUSH1 0x0 DUP3 ADD MSTORE POP JUMP JUMPDEST PUSH1 0x0 PUSH2 0x1EFB PUSH1 0x9 DUP4 PUSH2 0x1A2F JUMP JUMPDEST SWAP2 POP PUSH2 0x1F06 DUP3 PUSH2 0x1EC5 JUMP JUMPDEST PUSH1 0x20 DUP3 ADD SWAP1 POP SWAP2 SWAP1 POP JUMP JUMPDEST PUSH1 0x0 PUSH1 0x20 DUP3 ADD SWAP1 POP DUP2 DUP2 SUB PUSH1 0x0 DUP4 ADD MSTORE PUSH2 0x1F2A DUP2 PUSH2 0x1EEE JUMP JUMPDEST SWAP1 POP SWAP2 SWAP1 POP JUMP JUMPDEST PUSH1 0x0 DUP2 PUSH1 0x60 SHL SWAP1 POP SWAP2 SWAP1 POP JUMP JUMPDEST PUSH1 0x0 PUSH2 0x1F49 DUP3 PUSH2 0x1F31 JUMP JUMPDEST SWAP1 POP SWAP2 SWAP1 POP JUMP JUMPDEST PUSH1 0x0 PUSH2 0x1F5B DUP3 PUSH2 0x1F3E JUMP JUMPDEST SWAP1 POP SWAP2 SWAP1 POP JUMP JUMPDEST PUSH2 0x1F73 PUSH2 0x1F6E DUP3 PUSH2 0x175F JUMP JUMPDEST PUSH2 0x1F50 JUMP JUMPDEST DUP3 MSTORE POP POP JUMP JUMPDEST PUSH1 0x0 PUSH2 0x1F85 DUP3 DUP6 PUSH2 0x1F62 JUMP JUMPDEST PUSH1 0x14 DUP3 ADD SWAP2 POP PUSH2 0x1F95 DUP3 DUP5 PUSH2 0x1F62 JUMP JUMPDEST PUSH1 0x14 DUP3 ADD SWAP2 POP DUP2 SWAP1 POP SWAP4 SWAP3 POP POP POP JUMP INVALID LOG2 PUSH5 0x6970667358 0x22 SLT KECCAK256 0x23 DUP3 DUP12 0xE6 0xDA SHR PUSH14 0x43B9C75D07AEB79FAAC8D0B4BA7D PUSH9 0x7F6389CA20DAFB1F67 PUSH4 0x64736F6C PUSH4 0x4300081C STOP CALLER "},"methodIdentifiers":{"addLiquidity(address,address,uint256,uint256,uint256,uint256,address,uint256)":"e8e33700","getAmountOut(uint256,uint256,uint256)":"054d50d4","getPrice(address,address)":"ac41865a","removeLiquidity(address,address,uint256,uint256,uint256,address,uint256)":"baa2abde","swapExactTokensForTokens(uint256,uint256,address[],address,uint256)":"38ed1739"}}}}}