{"contracts/SimpleSwap.sol":{"SimpleSwap":{"abi":[{"inputs":[{"internalType":"address","name":"tokenA","type":"address"},{"internalType":"address","name":"tokenB","type":"address"},{"internalType":"uint256","name":"amountADesired","type":"uint256"},{"internalType":"uint256","name":"amountBDesired","type":"uint256"},{"internalType":"uint256","name":"amountAMin","type":"uint256"},{"internalType":"uint256","name":"amountBMin","type":"uint256"},{"internalType":"address","name":"to","type":"address"},{"internalType":"uint256","name":"deadline","type":"uint256"}],"name":"addLiquidity","outputs":[{"internalType":"uint256","name":"amountA","type":"uint256"},{"internalType":"uint256","name":"amountB","type":"uint256"},{"internalType":"uint256","name":"liquidity","type":"uint256"}],"stateMutability":"nonpayable","type":"function"},{"inputs":[{"internalType":"uint256","name":"amountIn","type":"uint256"},{"internalType":"uint256","name":"reserveIn","type":"uint256"},{"internalType":"uint256","name":"reserveOut","type":"uint256"}],"name":"getAmountOut","outputs":[{"internalType":"uint256","name":"amountOut","type":"uint256"}],"stateMutability":"pure","type":"function"},{"inputs":[{"internalType":"address","name":"tokenA","type":"address"},{"internalType":"address","name":"tokenB","type":"address"}],"name":"getPrice","outputs":[{"internalType":"uint256","name":"price","type":"uint256"}],"stateMutability":"view","type":"function"},{"inputs":[{"internalType":"address","name":"tokenA","type":"address"},{"internalType":"address","name":"tokenB","type":"address"},{"internalType":"uint256","name":"liquidity","type":"uint256"},{"internalType":"uint256","name":"amountAMin","type":"uint256"},{"internalType":"uint256","name":"amountBMin","type":"uint256"},{"internalType":"address","name":"to","type":"address"},{"internalType":"uint256","name":"deadline","type":"uint256"}],"name":"removeLiquidity","outputs":[{"internalType":"uint256","name":"amountA","type":"uint256"},{"internalType":"uint256","name":"amountB","type":"uint256"}],"stateMutability":"nonpayable","type":"function"},{"inputs":[{"internalType":"uint256","name":"amountIn","type":"uint256"},{"internalType":"uint256","name":"amountOutMin","type":"uint256"},{"internalType":"address[]","name":"path","type":"address[]"},{"internalType":"address","name":"to","type":"address"},{"internalType":"uint256","name":"deadline","type":"uint256"}],"name":"swapExactTokensForTokens","outputs":[],"stateMutability":"nonpayable","type":"function"}],"evm":{"bytecode":{"linkReferences":{},"object":"6080604052348015600f57600080fd5b506120fe8061001f6000396000f3fe608060405234801561001057600080fd5b50600436106100575760003560e01c8063054d50d41461005c57806338ed17391461008c578063ac41865a146100a8578063baa2abde146100d8578063e8e3370014610109575b600080fd5b61007660048036038101906100719190611780565b61013b565b60405161008391906117e2565b60405180910390f35b6100a660048036038101906100a191906118c0565b61023b565b005b6100c260048036038101906100bd919061195a565b610932565b6040516100cf91906117e2565b60405180910390f35b6100f260048036038101906100ed919061199a565b610bda565b604051610100929190611a3c565b60405180910390f35b610123600480360381019061011e9190611a65565b6111ce565b60405161013293929190611b1b565b60405180910390f35b6000610151678ace4629c073c7c060c01b611637565b6101656702f990c9c2abf28f60c01b611637565b610179670154723a64a48dcd60c01b611637565b61018d6705947243cdb31e3660c01b611637565b60008411801561019d5750600083115b80156101a95750600082115b6101e8576040517f08c379a00000000000000000000000000000000000000000000000000000000081526004016101df90611baf565b60405180910390fd5b6101fc677da586c7e9a4ff1f60c01b611637565b6102106758d65456ca8d7d1560c01b611637565b838361021c9190611bfe565b82856102289190611c32565b6102329190611ca3565b90509392505050565b61024f6739880ee4b505206560c01b611637565b6102636711c3cb141e139c4060c01b611637565b610277678601d5443ece286860c01b611637565b61028b6720a006bf56f19a7b60c01b611637565b600284849050146102d1576040517f08c379a00000000000000000000000000000000000000000000000000000000081526004016102c890611d20565b60405180910390fd5b6102e567562d94b496e1876960c01b611637565b6102f967b6996a54b6cc667560c01b611637565b61030d67d00680ee44c5c17760c01b611637565b61032167f3d8371c0636254560c01b611637565b80421115610364576040517f08c379a000000000000000000000000000000000000000000000000000000000815260040161035b90611d8c565b60405180910390fd5b6103786745f3a403ca93dd2a60c01b611637565b61038c67d8de5a057677cfe160c01b611637565b61039f66e8bd7a053f288b60c01b611637565b6000848460008181106103b5576103b4611dac565b5b90506020020160208101906103ca9190611ddb565b90506103e067bef1c649c682e7ed60c01b611637565b6103f467059b979adf1852b660c01b611637565b60008585600181811061040a57610409611dac565b5b905060200201602081019061041f9190611ddb565b905061043567ed7bb20810c456bc60c01b611637565b61044967055f59ffdda2936e60c01b611637565b6000610455838361163a565b905061046b67f158492690a7cb2060c01b611637565b61047f67763fcee25f414b6960c01b611637565b600080600083815260200190815260200160002090506104a967450e42cc23bfa5a060c01b611637565b6104bd67b4ff4a5ba86c6b4360c01b611637565b60006104d367f677c8136060785260c01b611637565b6104e76790b780167ec6a3c660c01b611637565b60006104fd67ff55417914f63ecf60c01b611637565b61051167ac22899e3f0fd5a160c01b611637565b8473ffffffffffffffffffffffffffffffffffffffff168673ffffffffffffffffffffffffffffffffffffffff161015610594576105596736d58a7506a6755560c01b611637565b61056d67fa4a1356212378bd60c01b611637565b826000015491506105886781c1af45d65e29ee60c01b611637565b826001015490506105df565b6105a8673ae1d9e1f088bf1260c01b611637565b6105bc67820c26bbfe56d91c60c01b611637565b826001015491506105d76720dc0e3047cccf9260c01b611637565b826000015490505b6105f3678e8fd7b0f99ccfa860c01b611637565b610607676c7e0d452bf4d57d60c01b611637565b8573ffffffffffffffffffffffffffffffffffffffff166323b872dd33308f6040518463ffffffff1660e01b815260040161064493929190611e17565b6020604051808303816000875af1158015610663573d6000803e3d6000fd5b505050506040513d601f19601f820116820180604052508101906106879190611e86565b5061069c67d6f180f66103e1ae60c01b611637565b6106b06739c7c1efaff2d43360c01b611637565b60006106bd8d848461013b565b90506106d3678aeba059d35c7fec60c01b611637565b6106e767d29705a21be0aac860c01b611637565b6106fb67b2e15163fa79f3a560c01b611637565b8b81101561073e576040517f08c379a000000000000000000000000000000000000000000000000000000000815260040161073590611eff565b60405180910390fd5b6107526728629ceb33a64c9c60c01b611637565b6107666723f624e8c1aec5e460c01b611637565b61077a67ab4620e2daa9acb060c01b611637565b8573ffffffffffffffffffffffffffffffffffffffff168773ffffffffffffffffffffffffffffffffffffffff161015610817576107c26742b723ecf012727560c01b611637565b6107d6670c4dd4163dc3527460c01b611637565b8c836107e29190611bfe565b84600001819055506107fe67314b56c6e13e811260c01b611637565b808261080a9190611f1f565b846001018190555061087c565b61082b670147a40c4e697eeb60c01b611637565b61083f67f8da7a351cada15460c01b611637565b8c8361084b9190611bfe565b846001018190555061086767df6c027fb03e4dbb60c01b611637565b80826108739190611f1f565b84600001819055505b61089067410d3bd235feec8d60c01b611637565b6108a4677965ec411d6f554960c01b611637565b8573ffffffffffffffffffffffffffffffffffffffff1663a9059cbb8a836040518363ffffffff1660e01b81526004016108df929190611f53565b6020604051808303816000875af11580156108fe573d6000803e3d6000fd5b505050506040513d601f19601f820116820180604052508101906109229190611e86565b5050505050505050505050505050565b6000610948672fae47efd2bba07460c01b611637565b61095c67cef7247f153bef7760c01b611637565b61097067866691529c19ea5c60c01b611637565b600061097c848461163a565b9050610992673d77e22841ec56e760c01b611637565b6109a667c7405ec4e855e71460c01b611637565b600080600083815260200190815260200160002090506109d06725e1e11a4d0815e260c01b611637565b6109e467b00a135c3948498560c01b611637565b60008473ffffffffffffffffffffffffffffffffffffffff168673ffffffffffffffffffffffffffffffffffffffff161080610a305750610a2f678fd99abd8b843ff260c01b61172e565b5b8015610a4c5750610a4b67ae2b58d2b36f874660c01b611735565b5b610a5a578160010154610a60565b81600001545b9050610a7667407b2fb539e62d8160c01b611637565b610a8a679bf7ec7b5f0552d160c01b611637565b60008573ffffffffffffffffffffffffffffffffffffffff168773ffffffffffffffffffffffffffffffffffffffff161080610ad65750610ad567282b880fdb6a3adb60c01b61172e565b5b8015610af25750610af1670c0f204af8fcb4e760c01b611735565b5b610b00578260000154610b06565b82600101545b9050610b1c673ee7193036be964a60c01b611637565b610b306740636d2136b7583360c01b611637565b610b44670e36260b39167cf260c01b611637565b60008211610b87576040517f08c379a0000000000000000000000000000000000000000000000000000000008152600401610b7e90611fc8565b60405180910390fd5b610b9b671291f7a2db7b1e0160c01b611637565b610baf67570a4fe36476a9ef60c01b611637565b81670de0b6b3a764000082610bc49190611c32565b610bce9190611ca3565b94505050505092915050565b600080610bf167fdfedfa36fe7d49860c01b611637565b610c05673c8b69ab122032ed60c01b611637565b610c196739bf1fbfca19981f60c01b611637565b610c2d6755500f517c5e511a60c01b611637565b82421115610c70576040517f08c379a0000000000000000000000000000000000000000000000000000000008152600401610c6790611d8c565b60405180910390fd5b610c84679ac08cca0ae3546760c01b611637565b610c9867e9b2411a16fa038060c01b611637565b610cac6797a4f77e97c7926360c01b611637565b6000610cb88a8a61163a565b9050610cce6730a00f347f7daa0260c01b611637565b610ce267845d0ba40e7a67c860c01b611637565b60008060008381526020019081526020016000209050610d0c6767f80ef6558c86dc60c01b611637565b610d20672efa873cf2b8613e60c01b611637565b60008160020160003373ffffffffffffffffffffffffffffffffffffffff1673ffffffffffffffffffffffffffffffffffffffff168152602001908152602001600020549050610d7a67c1eb15b827af447060c01b611637565b610d8e672d96fc919d28440260c01b611637565b600082600301549050610dab67ca9fa17965811c7e60c01b611637565b610dbf67d109a99f65dc9d4a60c01b611637565b610dd367736ccbe62d3debf960c01b611637565b8a8210158015610de35750600081115b610e22576040517f08c379a0000000000000000000000000000000000000000000000000000000008152600401610e1990611fc8565b60405180910390fd5b610e3667a891c6dca223daf660c01b611637565b610e4a67afdd66855946610d60c01b611637565b610e5e6766cdcc70ab553a4060c01b611637565b600083600001549050610e7b67eae7f16af7ee28a760c01b611637565b610e8f678f678a2d6def595d60c01b611637565b600084600101549050610eac67e0f4b095caa394da60c01b611637565b82828e610eb99190611c32565b610ec39190611ca3565b9750610ed9673ffff1ec1a3ffeae60c01b611637565b82818e610ee69190611c32565b610ef09190611ca3565b9650610f066755a74d6f2099dafc60c01b611637565b610f1a671ea740185f8033a960c01b611637565b610f2e679c52337643a6c69f60c01b611637565b8b8810158015610f3e57508a8710155b610f7d576040517f08c379a0000000000000000000000000000000000000000000000000000000008152600401610f7490612034565b60405180910390fd5b610f91670435d4dca186b52a60c01b611637565b610fa5670f99a6e1be075a1960c01b611637565b8782610fb19190611f1f565b8560000181905550610fcd670bc88d85a01851b560c01b611637565b8681610fd99190611f1f565b8560010181905550610ff56781029668a6f83dbe60c01b611637565b8c846110019190611f1f565b8560020160003373ffffffffffffffffffffffffffffffffffffffff1673ffffffffffffffffffffffffffffffffffffffff1681526020019081526020016000208190555061105a675838cda7eabda8fd60c01b611637565b8c836110669190611f1f565b856003018190555061108267b7a295f41c5a1a1760c01b611637565b61109667cc7371abf85c31ee60c01b611637565b8e73ffffffffffffffffffffffffffffffffffffffff1663a9059cbb8b8a6040518363ffffffff1660e01b81526004016110d1929190611f53565b6020604051808303816000875af11580156110f0573d6000803e3d6000fd5b505050506040513d601f19601f820116820180604052508101906111149190611e86565b5061112967023282ab789c5e5d60c01b611637565b61113d671d77e6581b90b48460c01b611637565b8d73ffffffffffffffffffffffffffffffffffffffff1663a9059cbb8b896040518363ffffffff1660e01b8152600401611178929190611f53565b6020604051808303816000875af1158015611197573d6000803e3d6000fd5b505050506040513d601f19601f820116820180604052508101906111bb9190611e86565b5050505050505097509795505050505050565b60008060006111e767cf7de2cafb7f321b60c01b611637565b6111fb677c45159ce9cb7c6560c01b611637565b61120f678bcadf13c78c062660c01b611637565b61122367de1a960c26587c2560c01b611637565b83421115611266576040517f08c379a000000000000000000000000000000000000000000000000000000000815260040161125d90611d8c565b60405180910390fd5b6112796640d28fafdcd9fa60c01b611637565b61128d675b9d11a7893ed1ad60c01b611637565b8892506112a467b877642557f32e8960c01b611637565b8791506112bb67c6ec77590d2121b260c01b611637565b6112cf6705a649ae28cf722660c01b611637565b6112e3674b3e963c07168fb960c01b611637565b8683101580156112f35750858210155b611332576040517f08c379a000000000000000000000000000000000000000000000000000000000815260040161132990612034565b60405180910390fd5b611346675a5a436568aa93ef60c01b611637565b61135a678f8ca113c2870e8460c01b611637565b61136e67f94838020dc2845160c01b611637565b8a73ffffffffffffffffffffffffffffffffffffffff166323b872dd3330866040518463ffffffff1660e01b81526004016113ab93929190611e17565b6020604051808303816000875af11580156113ca573d6000803e3d6000fd5b505050506040513d601f19601f820116820180604052508101906113ee9190611e86565b5061140367bb1be856861b6fa960c01b611637565b611417674f5d529038e651f660c01b611637565b8973ffffffffffffffffffffffffffffffffffffffff166323b872dd3330856040518463ffffffff1660e01b815260040161145493929190611e17565b6020604051808303816000875af1158015611473573d6000803e3d6000fd5b505050506040513d601f19601f820116820180604052508101906114979190611e86565b506114ac67c18d11a9adc4c49460c01b611637565b6114c06725bace367198de0e60c01b611637565b60006114cc8c8c61163a565b90506114e267e9e2d8d523edbbc260c01b611637565b6114f667e5b8232c1b46225260c01b611637565b6000806000838152602001908152602001600020905061152067f15f1be7b67e925660c01b611637565b838561152c9190611bfe565b925061154267e98ec344a9c2882660c01b611637565b848160000160008282546115569190611bfe565b925050819055506115716717db3b6b3d416b9f60c01b611637565b838160010160008282546115859190611bfe565b925050819055506115a0679338857b21764f1560c01b611637565b828160020160008973ffffffffffffffffffffffffffffffffffffffff1673ffffffffffffffffffffffffffffffffffffffff16815260200190815260200160002060008282546115f19190611bfe565b9250508190555061160c674d19e9d3cef5f74660c01b611637565b828160030160008282546116209190611bfe565b925050819055505050985098509895505050505050565b50565b600061165067026f6f938ae56dad60c01b611637565b6116646784d8e7b91fda9d0060c01b611637565b8173ffffffffffffffffffffffffffffffffffffffff168373ffffffffffffffffffffffffffffffffffffffff1610806116ae57506116ad6790f97d738d717ded60c01b61172e565b5b80156116ca57506116c967ae89832b9570fe6b60c01b611735565b5b6116fc5781836040516020016116e192919061209c565b60405160208183030381529060405280519060200120611726565b828260405160200161170f92919061209c565b604051602081830303815290604052805190602001205b905092915050565b6000919050565b600060019050919050565b600080fd5b600080fd5b6000819050919050565b61175d8161174a565b811461176857600080fd5b50565b60008135905061177a81611754565b92915050565b60008060006060848603121561179957611798611740565b5b60006117a78682870161176b565b93505060206117b88682870161176b565b92505060406117c98682870161176b565b9150509250925092565b6117dc8161174a565b82525050565b60006020820190506117f760008301846117d3565b92915050565b600080fd5b600080fd5b600080fd5b60008083601f840112611822576118216117fd565b5b8235905067ffffffffffffffff81111561183f5761183e611802565b5b60208301915083602082028301111561185b5761185a611807565b5b9250929050565b600073ffffffffffffffffffffffffffffffffffffffff82169050919050565b600061188d82611862565b9050919050565b61189d81611882565b81146118a857600080fd5b50565b6000813590506118ba81611894565b92915050565b60008060008060008060a087890312156118dd576118dc611740565b5b60006118eb89828a0161176b565b96505060206118fc89828a0161176b565b955050604087013567ffffffffffffffff81111561191d5761191c611745565b5b61192989828a0161180c565b9450945050606061193c89828a016118ab565b925050608061194d89828a0161176b565b9150509295509295509295565b6000806040838503121561197157611970611740565b5b600061197f858286016118ab565b9250506020611990858286016118ab565b9150509250929050565b600080600080600080600060e0888a0312156119b9576119b8611740565b5b60006119c78a828b016118ab565b97505060206119d88a828b016118ab565b96505060406119e98a828b0161176b565b95505060606119fa8a828b0161176b565b9450506080611a0b8a828b0161176b565b93505060a0611a1c8a828b016118ab565b92505060c0611a2d8a828b0161176b565b91505092959891949750929550565b6000604082019050611a5160008301856117d3565b611a5e60208301846117d3565b9392505050565b600080600080600080600080610100898b031215611a8657611a85611740565b5b6000611a948b828c016118ab565b9850506020611aa58b828c016118ab565b9750506040611ab68b828c0161176b565b9650506060611ac78b828c0161176b565b9550506080611ad88b828c0161176b565b94505060a0611ae98b828c0161176b565b93505060c0611afa8b828c016118ab565b92505060e0611b0b8b828c0161176b565b9150509295985092959890939650565b6000606082019050611b3060008301866117d3565b611b3d60208301856117d3565b611b4a60408301846117d3565b949350505050565b600082825260208201905092915050565b7f496e76616c696452657365727665730000000000000000000000000000000000600082015250565b6000611b99600f83611b52565b9150611ba482611b63565b602082019050919050565b60006020820190508181036000830152611bc881611b8c565b9050919050565b7f4e487b7100000000000000000000000000000000000000000000000000000000600052601160045260246000fd5b6000611c098261174a565b9150611c148361174a565b9250828201905080821115611c2c57611c2b611bcf565b5b92915050565b6000611c3d8261174a565b9150611c488361174a565b9250828202611c568161174a565b91508282048414831517611c6d57611c6c611bcf565b5b5092915050565b7f4e487b7100000000000000000000000000000000000000000000000000000000600052601260045260246000fd5b6000611cae8261174a565b9150611cb98361174a565b925082611cc957611cc8611c74565b5b828204905092915050565b7f50617468496e76616c6964000000000000000000000000000000000000000000600082015250565b6000611d0a600b83611b52565b9150611d1582611cd4565b602082019050919050565b60006020820190508181036000830152611d3981611cfd565b9050919050565b7f4578706972656400000000000000000000000000000000000000000000000000600082015250565b6000611d76600783611b52565b9150611d8182611d40565b602082019050919050565b60006020820190508181036000830152611da581611d69565b9050919050565b7f4e487b7100000000000000000000000000000000000000000000000000000000600052603260045260246000fd5b600060208284031215611df157611df0611740565b5b6000611dff848285016118ab565b91505092915050565b611e1181611882565b82525050565b6000606082019050611e2c6000830186611e08565b611e396020830185611e08565b611e4660408301846117d3565b949350505050565b60008115159050919050565b611e6381611e4e565b8114611e6e57600080fd5b50565b600081519050611e8081611e5a565b92915050565b600060208284031215611e9c57611e9b611740565b5b6000611eaa84828501611e71565b91505092915050565b7f536c697070616765000000000000000000000000000000000000000000000000600082015250565b6000611ee9600883611b52565b9150611ef482611eb3565b602082019050919050565b60006020820190508181036000830152611f1881611edc565b9050919050565b6000611f2a8261174a565b9150611f358361174a565b9250828203905081811115611f4d57611f4c611bcf565b5b92915050565b6000604082019050611f686000830185611e08565b611f7560208301846117d3565b9392505050565b7f4e6f4c6971756964697479000000000000000000000000000000000000000000600082015250565b6000611fb2600b83611b52565b9150611fbd82611f7c565b602082019050919050565b60006020820190508181036000830152611fe181611fa5565b9050919050565b7f4d696e4e6f744d65740000000000000000000000000000000000000000000000600082015250565b600061201e600983611b52565b915061202982611fe8565b602082019050919050565b6000602082019050818103600083015261204d81612011565b9050919050565b60008160601b9050919050565b600061206c82612054565b9050919050565b600061207e82612061565b9050919050565b61209661209182611882565b612073565b82525050565b60006120a88285612085565b6014820191506120b88284612085565b601482019150819050939250505056fea26469706673582212202331085b664994c55c49fa451e5ec3d5126ff0adb9e9684aad2b7c1ba99ac3e564736f6c634300081c0033","opcodes":"PUSH1 0x80 PUSH1 0x40 MSTORE CALLVALUE DUP1 ISZERO PUSH1 0xF JUMPI PUSH1 0x0 DUP1 REVERT JUMPDEST POP PUSH2 0x20FE DUP1 PUSH2 0x1F PUSH1 0x0 CODECOPY PUSH1 0x0 RETURN INVALID PUSH1 0x80 PUSH1 0x40 MSTORE CALLVALUE DUP1 ISZERO PUSH2 0x10 JUMPI PUSH1 0x0 DUP1 REVERT JUMPDEST POP PUSH1 0x4 CALLDATASIZE LT PUSH2 0x57 JUMPI PUSH1 0x0 CALLDATALOAD PUSH1 0xE0 SHR DUP1 PUSH4 0x54D50D4 EQ PUSH2 0x5C JUMPI DUP1 PUSH4 0x38ED1739 EQ PUSH2 0x8C JUMPI DUP1 PUSH4 0xAC41865A EQ PUSH2 0xA8 JUMPI DUP1 PUSH4 0xBAA2ABDE EQ PUSH2 0xD8 JUMPI DUP1 PUSH4 0xE8E33700 EQ PUSH2 0x109 JUMPI JUMPDEST PUSH1 0x0 DUP1 REVERT JUMPDEST PUSH2 0x76 PUSH1 0x4 DUP1 CALLDATASIZE SUB DUP2 ADD SWAP1 PUSH2 0x71 SWAP2 SWAP1 PUSH2 0x1780 JUMP JUMPDEST PUSH2 0x13B JUMP JUMPDEST PUSH1 0x40 MLOAD PUSH2 0x83 SWAP2 SWAP1 PUSH2 0x17E2 JUMP JUMPDEST PUSH1 0x40 MLOAD DUP1 SWAP2 SUB SWAP1 RETURN JUMPDEST PUSH2 0xA6 PUSH1 0x4 DUP1 CALLDATASIZE SUB DUP2 ADD SWAP1 PUSH2 0xA1 SWAP2 SWAP1 PUSH2 0x18C0 JUMP JUMPDEST PUSH2 0x23B JUMP JUMPDEST STOP JUMPDEST PUSH2 0xC2 PUSH1 0x4 DUP1 CALLDATASIZE SUB DUP2 ADD SWAP1 PUSH2 0xBD SWAP2 SWAP1 PUSH2 0x195A JUMP JUMPDEST PUSH2 0x932 JUMP JUMPDEST PUSH1 0x40 MLOAD PUSH2 0xCF SWAP2 SWAP1 PUSH2 0x17E2 JUMP JUMPDEST PUSH1 0x40 MLOAD DUP1 SWAP2 SUB SWAP1 RETURN JUMPDEST PUSH2 0xF2 PUSH1 0x4 DUP1 CALLDATASIZE SUB DUP2 ADD SWAP1 PUSH2 0xED SWAP2 SWAP1 PUSH2 0x199A JUMP JUMPDEST PUSH2 0xBDA JUMP JUMPDEST PUSH1 0x40 MLOAD PUSH2 0x100 SWAP3 SWAP2 SWAP1 PUSH2 0x1A3C JUMP JUMPDEST PUSH1 0x40 MLOAD DUP1 SWAP2 SUB SWAP1 RETURN JUMPDEST PUSH2 0x123 PUSH1 0x4 DUP1 CALLDATASIZE SUB DUP2 ADD SWAP1 PUSH2 0x11E SWAP2 SWAP1 PUSH2 0x1A65 JUMP JUMPDEST PUSH2 0x11CE JUMP JUMPDEST PUSH1 0x40 MLOAD PUSH2 0x132 SWAP4 SWAP3 SWAP2 SWAP1 PUSH2 0x1B1B JUMP JUMPDEST PUSH1 0x40 MLOAD DUP1 SWAP2 SUB SWAP1 RETURN JUMPDEST PUSH1 0x0 PUSH2 0x151 PUSH8 0x8ACE4629C073C7C0 PUSH1 0xC0 SHL PUSH2 0x1637 JUMP JUMPDEST PUSH2 0x165 PUSH8 0x2F990C9C2ABF28F PUSH1 0xC0 SHL PUSH2 0x1637 JUMP JUMPDEST PUSH2 0x179 PUSH8 0x154723A64A48DCD PUSH1 0xC0 SHL PUSH2 0x1637 JUMP JUMPDEST PUSH2 0x18D PUSH8 0x5947243CDB31E36 PUSH1 0xC0 SHL PUSH2 0x1637 JUMP JUMPDEST PUSH1 0x0 DUP5 GT DUP1 ISZERO PUSH2 0x19D JUMPI POP PUSH1 0x0 DUP4 GT JUMPDEST DUP1 ISZERO PUSH2 0x1A9 JUMPI POP PUSH1 0x0 DUP3 GT JUMPDEST PUSH2 0x1E8 JUMPI PUSH1 0x40 MLOAD PUSH32 0x8C379A000000000000000000000000000000000000000000000000000000000 DUP2 MSTORE PUSH1 0x4 ADD PUSH2 0x1DF SWAP1 PUSH2 0x1BAF JUMP JUMPDEST PUSH1 0x40 MLOAD DUP1 SWAP2 SUB SWAP1 REVERT JUMPDEST PUSH2 0x1FC PUSH8 0x7DA586C7E9A4FF1F PUSH1 0xC0 SHL PUSH2 0x1637 JUMP JUMPDEST PUSH2 0x210 PUSH8 0x58D65456CA8D7D15 PUSH1 0xC0 SHL PUSH2 0x1637 JUMP JUMPDEST DUP4 DUP4 PUSH2 0x21C SWAP2 SWAP1 PUSH2 0x1BFE JUMP JUMPDEST DUP3 DUP6 PUSH2 0x228 SWAP2 SWAP1 PUSH2 0x1C32 JUMP JUMPDEST PUSH2 0x232 SWAP2 SWAP1 PUSH2 0x1CA3 JUMP JUMPDEST SWAP1 POP SWAP4 SWAP3 POP POP POP JUMP JUMPDEST PUSH2 0x24F PUSH8 0x39880EE4B5052065 PUSH1 0xC0 SHL PUSH2 0x1637 JUMP JUMPDEST PUSH2 0x263 PUSH8 0x11C3CB141E139C40 PUSH1 0xC0 SHL PUSH2 0x1637 JUMP JUMPDEST PUSH2 0x277 PUSH8 0x8601D5443ECE2868 PUSH1 0xC0 SHL PUSH2 0x1637 JUMP JUMPDEST PUSH2 0x28B PUSH8 0x20A006BF56F19A7B PUSH1 0xC0 SHL PUSH2 0x1637 JUMP JUMPDEST PUSH1 0x2 DUP5 DUP5 SWAP1 POP EQ PUSH2 0x2D1 JUMPI PUSH1 0x40 MLOAD PUSH32 0x8C379A000000000000000000000000000000000000000000000000000000000 DUP2 MSTORE PUSH1 0x4 ADD PUSH2 0x2C8 SWAP1 PUSH2 0x1D20 JUMP JUMPDEST PUSH1 0x40 MLOAD DUP1 SWAP2 SUB SWAP1 REVERT JUMPDEST PUSH2 0x2E5 PUSH8 0x562D94B496E18769 PUSH1 0xC0 SHL PUSH2 0x1637 JUMP JUMPDEST PUSH2 0x2F9 PUSH8 0xB6996A54B6CC6675 PUSH1 0xC0 SHL PUSH2 0x1637 JUMP JUMPDEST PUSH2 0x30D PUSH8 0xD00680EE44C5C177 PUSH1 0xC0 SHL PUSH2 0x1637 JUMP JUMPDEST PUSH2 0x321 PUSH8 0xF3D8371C06362545 PUSH1 0xC0 SHL PUSH2 0x1637 JUMP JUMPDEST DUP1 TIMESTAMP GT ISZERO PUSH2 0x364 JUMPI PUSH1 0x40 MLOAD PUSH32 0x8C379A000000000000000000000000000000000000000000000000000000000 DUP2 MSTORE PUSH1 0x4 ADD PUSH2 0x35B SWAP1 PUSH2 0x1D8C JUMP JUMPDEST PUSH1 0x40 MLOAD DUP1 SWAP2 SUB SWAP1 REVERT JUMPDEST PUSH2 0x378 PUSH8 0x45F3A403CA93DD2A PUSH1 0xC0 SHL PUSH2 0x1637 JUMP JUMPDEST PUSH2 0x38C PUSH8 0xD8DE5A057677CFE1 PUSH1 0xC0 SHL PUSH2 0x1637 JUMP JUMPDEST PUSH2 0x39F PUSH7 0xE8BD7A053F288B PUSH1 0xC0 SHL PUSH2 0x1637 JUMP JUMPDEST PUSH1 0x0 DUP5 DUP5 PUSH1 0x0 DUP2 DUP2 LT PUSH2 0x3B5 JUMPI PUSH2 0x3B4 PUSH2 0x1DAC JUMP JUMPDEST JUMPDEST SWAP1 POP PUSH1 0x20 MUL ADD PUSH1 0x20 DUP2 ADD SWAP1 PUSH2 0x3CA SWAP2 SWAP1 PUSH2 0x1DDB JUMP JUMPDEST SWAP1 POP PUSH2 0x3E0 PUSH8 0xBEF1C649C682E7ED PUSH1 0xC0 SHL PUSH2 0x1637 JUMP JUMPDEST PUSH2 0x3F4 PUSH8 0x59B979ADF1852B6 PUSH1 0xC0 SHL PUSH2 0x1637 JUMP JUMPDEST PUSH1 0x0 DUP6 DUP6 PUSH1 0x1 DUP2 DUP2 LT PUSH2 0x40A JUMPI PUSH2 0x409 PUSH2 0x1DAC JUMP JUMPDEST JUMPDEST SWAP1 POP PUSH1 0x20 MUL ADD PUSH1 0x20 DUP2 ADD SWAP1 PUSH2 0x41F SWAP2 SWAP1 PUSH2 0x1DDB JUMP JUMPDEST SWAP1 POP PUSH2 0x435 PUSH8 0xED7BB20810C456BC PUSH1 0xC0 SHL PUSH2 0x1637 JUMP JUMPDEST PUSH2 0x449 PUSH8 0x55F59FFDDA2936E PUSH1 0xC0 SHL PUSH2 0x1637 JUMP JUMPDEST PUSH1 0x0 PUSH2 0x455 DUP4 DUP4 PUSH2 0x163A JUMP JUMPDEST SWAP1 POP PUSH2 0x46B PUSH8 0xF158492690A7CB20 PUSH1 0xC0 SHL PUSH2 0x1637 JUMP JUMPDEST PUSH2 0x47F PUSH8 0x763FCEE25F414B69 PUSH1 0xC0 SHL PUSH2 0x1637 JUMP JUMPDEST PUSH1 0x0 DUP1 PUSH1 0x0 DUP4 DUP2 MSTORE PUSH1 0x20 ADD SWAP1 DUP2 MSTORE PUSH1 0x20 ADD PUSH1 0x0 KECCAK256 SWAP1 POP PUSH2 0x4A9 PUSH8 0x450E42CC23BFA5A0 PUSH1 0xC0 SHL PUSH2 0x1637 JUMP JUMPDEST PUSH2 0x4BD PUSH8 0xB4FF4A5BA86C6B43 PUSH1 0xC0 SHL PUSH2 0x1637 JUMP JUMPDEST PUSH1 0x0 PUSH2 0x4D3 PUSH8 0xF677C81360607852 PUSH1 0xC0 SHL PUSH2 0x1637 JUMP JUMPDEST PUSH2 0x4E7 PUSH8 0x90B780167EC6A3C6 PUSH1 0xC0 SHL PUSH2 0x1637 JUMP JUMPDEST PUSH1 0x0 PUSH2 0x4FD PUSH8 0xFF55417914F63ECF PUSH1 0xC0 SHL PUSH2 0x1637 JUMP JUMPDEST PUSH2 0x511 PUSH8 0xAC22899E3F0FD5A1 PUSH1 0xC0 SHL PUSH2 0x1637 JUMP JUMPDEST DUP5 PUSH20 0xFFFFFFFFFFFFFFFFFFFFFFFFFFFFFFFFFFFFFFFF AND DUP7 PUSH20 0xFFFFFFFFFFFFFFFFFFFFFFFFFFFFFFFFFFFFFFFF AND LT ISZERO PUSH2 0x594 JUMPI PUSH2 0x559 PUSH8 0x36D58A7506A67555 PUSH1 0xC0 SHL PUSH2 0x1637 JUMP JUMPDEST PUSH2 0x56D PUSH8 0xFA4A1356212378BD PUSH1 0xC0 SHL PUSH2 0x1637 JUMP JUMPDEST DUP3 PUSH1 0x0 ADD SLOAD SWAP2 POP PUSH2 0x588 PUSH8 0x81C1AF45D65E29EE PUSH1 0xC0 SHL PUSH2 0x1637 JUMP JUMPDEST DUP3 PUSH1 0x1 ADD SLOAD SWAP1 POP PUSH2 0x5DF JUMP JUMPDEST PUSH2 0x5A8 PUSH8 0x3AE1D9E1F088BF12 PUSH1 0xC0 SHL PUSH2 0x1637 JUMP JUMPDEST PUSH2 0x5BC PUSH8 0x820C26BBFE56D91C PUSH1 0xC0 SHL PUSH2 0x1637 JUMP JUMPDEST DUP3 PUSH1 0x1 ADD SLOAD SWAP2 POP PUSH2 0x5D7 PUSH8 0x20DC0E3047CCCF92 PUSH1 0xC0 SHL PUSH2 0x1637 JUMP JUMPDEST DUP3 PUSH1 0x0 ADD SLOAD SWAP1 POP JUMPDEST PUSH2 0x5F3 PUSH8 0x8E8FD7B0F99CCFA8 PUSH1 0xC0 SHL PUSH2 0x1637 JUMP JUMPDEST PUSH2 0x607 PUSH8 0x6C7E0D452BF4D57D PUSH1 0xC0 SHL PUSH2 0x1637 JUMP JUMPDEST DUP6 PUSH20 0xFFFFFFFFFFFFFFFFFFFFFFFFFFFFFFFFFFFFFFFF AND PUSH4 0x23B872DD CALLER ADDRESS DUP16 PUSH1 0x40 MLOAD DUP5 PUSH4 0xFFFFFFFF AND PUSH1 0xE0 SHL DUP2 MSTORE PUSH1 0x4 ADD PUSH2 0x644 SWAP4 SWAP3 SWAP2 SWAP1 PUSH2 0x1E17 JUMP JUMPDEST PUSH1 0x20 PUSH1 0x40 MLOAD DUP1 DUP4 SUB DUP2 PUSH1 0x0 DUP8 GAS CALL ISZERO DUP1 ISZERO PUSH2 0x663 JUMPI RETURNDATASIZE PUSH1 0x0 DUP1 RETURNDATACOPY RETURNDATASIZE PUSH1 0x0 REVERT JUMPDEST POP POP POP POP PUSH1 0x40 MLOAD RETURNDATASIZE PUSH1 0x1F NOT PUSH1 0x1F DUP3 ADD AND DUP3 ADD DUP1 PUSH1 0x40 MSTORE POP DUP2 ADD SWAP1 PUSH2 0x687 SWAP2 SWAP1 PUSH2 0x1E86 JUMP JUMPDEST POP PUSH2 0x69C PUSH8 0xD6F180F66103E1AE PUSH1 0xC0 SHL PUSH2 0x1637 JUMP JUMPDEST PUSH2 0x6B0 PUSH8 0x39C7C1EFAFF2D433 PUSH1 0xC0 SHL PUSH2 0x1637 JUMP JUMPDEST PUSH1 0x0 PUSH2 0x6BD DUP14 DUP5 DUP5 PUSH2 0x13B JUMP JUMPDEST SWAP1 POP PUSH2 0x6D3 PUSH8 0x8AEBA059D35C7FEC PUSH1 0xC0 SHL PUSH2 0x1637 JUMP JUMPDEST PUSH2 0x6E7 PUSH8 0xD29705A21BE0AAC8 PUSH1 0xC0 SHL PUSH2 0x1637 JUMP JUMPDEST PUSH2 0x6FB PUSH8 0xB2E15163FA79F3A5 PUSH1 0xC0 SHL PUSH2 0x1637 JUMP JUMPDEST DUP12 DUP2 LT ISZERO PUSH2 0x73E JUMPI PUSH1 0x40 MLOAD PUSH32 0x8C379A000000000000000000000000000000000000000000000000000000000 DUP2 MSTORE PUSH1 0x4 ADD PUSH2 0x735 SWAP1 PUSH2 0x1EFF JUMP JUMPDEST PUSH1 0x40 MLOAD DUP1 SWAP2 SUB SWAP1 REVERT JUMPDEST PUSH2 0x752 PUSH8 0x28629CEB33A64C9C PUSH1 0xC0 SHL PUSH2 0x1637 JUMP JUMPDEST PUSH2 0x766 PUSH8 0x23F624E8C1AEC5E4 PUSH1 0xC0 SHL PUSH2 0x1637 JUMP JUMPDEST PUSH2 0x77A PUSH8 0xAB4620E2DAA9ACB0 PUSH1 0xC0 SHL PUSH2 0x1637 JUMP JUMPDEST DUP6 PUSH20 0xFFFFFFFFFFFFFFFFFFFFFFFFFFFFFFFFFFFFFFFF AND DUP8 PUSH20 0xFFFFFFFFFFFFFFFFFFFFFFFFFFFFFFFFFFFFFFFF AND LT ISZERO PUSH2 0x817 JUMPI PUSH2 0x7C2 PUSH8 0x42B723ECF0127275 PUSH1 0xC0 SHL PUSH2 0x1637 JUMP JUMPDEST PUSH2 0x7D6 PUSH8 0xC4DD4163DC35274 PUSH1 0xC0 SHL PUSH2 0x1637 JUMP JUMPDEST DUP13 DUP4 PUSH2 0x7E2 SWAP2 SWAP1 PUSH2 0x1BFE JUMP JUMPDEST DUP5 PUSH1 0x0 ADD DUP2 SWAP1 SSTORE POP PUSH2 0x7FE PUSH8 0x314B56C6E13E8112 PUSH1 0xC0 SHL PUSH2 0x1637 JUMP JUMPDEST DUP1 DUP3 PUSH2 0x80A SWAP2 SWAP1 PUSH2 0x1F1F JUMP JUMPDEST DUP5 PUSH1 0x1 ADD DUP2 SWAP1 SSTORE POP PUSH2 0x87C JUMP JUMPDEST PUSH2 0x82B PUSH8 0x147A40C4E697EEB PUSH1 0xC0 SHL PUSH2 0x1637 JUMP JUMPDEST PUSH2 0x83F PUSH8 0xF8DA7A351CADA154 PUSH1 0xC0 SHL PUSH2 0x1637 JUMP JUMPDEST DUP13 DUP4 PUSH2 0x84B SWAP2 SWAP1 PUSH2 0x1BFE JUMP JUMPDEST DUP5 PUSH1 0x1 ADD DUP2 SWAP1 SSTORE POP PUSH2 0x867 PUSH8 0xDF6C027FB03E4DBB PUSH1 0xC0 SHL PUSH2 0x1637 JUMP JUMPDEST DUP1 DUP3 PUSH2 0x873 SWAP2 SWAP1 PUSH2 0x1F1F JUMP JUMPDEST DUP5 PUSH1 0x0 ADD DUP2 SWAP1 SSTORE POP JUMPDEST PUSH2 0x890 PUSH8 0x410D3BD235FEEC8D PUSH1 0xC0 SHL PUSH2 0x1637 JUMP JUMPDEST PUSH2 0x8A4 PUSH8 0x7965EC411D6F5549 PUSH1 0xC0 SHL PUSH2 0x1637 JUMP JUMPDEST DUP6 PUSH20 0xFFFFFFFFFFFFFFFFFFFFFFFFFFFFFFFFFFFFFFFF AND PUSH4 0xA9059CBB DUP11 DUP4 PUSH1 0x40 MLOAD DUP4 PUSH4 0xFFFFFFFF AND PUSH1 0xE0 SHL DUP2 MSTORE PUSH1 0x4 ADD PUSH2 0x8DF SWAP3 SWAP2 SWAP1 PUSH2 0x1F53 JUMP JUMPDEST PUSH1 0x20 PUSH1 0x40 MLOAD DUP1 DUP4 SUB DUP2 PUSH1 0x0 DUP8 GAS CALL ISZERO DUP1 ISZERO PUSH2 0x8FE JUMPI RETURNDATASIZE PUSH1 0x0 DUP1 RETURNDATACOPY RETURNDATASIZE PUSH1 0x0 REVERT JUMPDEST POP POP POP POP PUSH1 0x40 MLOAD RETURNDATASIZE PUSH1 0x1F NOT PUSH1 0x1F DUP3 ADD AND DUP3 ADD DUP1 PUSH1 0x40 MSTORE POP DUP2 ADD SWAP1 PUSH2 0x922 SWAP2 SWAP1 PUSH2 0x1E86 JUMP JUMPDEST POP POP POP POP POP POP POP POP POP POP POP POP POP POP JUMP JUMPDEST PUSH1 0x0 PUSH2 0x948 PUSH8 0x2FAE47EFD2BBA074 PUSH1 0xC0 SHL PUSH2 0x1637 JUMP JUMPDEST PUSH2 0x95C PUSH8 0xCEF7247F153BEF77 PUSH1 0xC0 SHL PUSH2 0x1637 JUMP JUMPDEST PUSH2 0x970 PUSH8 0x866691529C19EA5C PUSH1 0xC0 SHL PUSH2 0x1637 JUMP JUMPDEST PUSH1 0x0 PUSH2 0x97C DUP5 DUP5 PUSH2 0x163A JUMP JUMPDEST SWAP1 POP PUSH2 0x992 PUSH8 0x3D77E22841EC56E7 PUSH1 0xC0 SHL PUSH2 0x1637 JUMP JUMPDEST PUSH2 0x9A6 PUSH8 0xC7405EC4E855E714 PUSH1 0xC0 SHL PUSH2 0x1637 JUMP JUMPDEST PUSH1 0x0 DUP1 PUSH1 0x0 DUP4 DUP2 MSTORE PUSH1 0x20 ADD SWAP1 DUP2 MSTORE PUSH1 0x20 ADD PUSH1 0x0 KECCAK256 SWAP1 POP PUSH2 0x9D0 PUSH8 0x25E1E11A4D0815E2 PUSH1 0xC0 SHL PUSH2 0x1637 JUMP JUMPDEST PUSH2 0x9E4 PUSH8 0xB00A135C39484985 PUSH1 0xC0 SHL PUSH2 0x1637 JUMP JUMPDEST PUSH1 0x0 DUP5 PUSH20 0xFFFFFFFFFFFFFFFFFFFFFFFFFFFFFFFFFFFFFFFF AND DUP7 PUSH20 0xFFFFFFFFFFFFFFFFFFFFFFFFFFFFFFFFFFFFFFFF AND LT DUP1 PUSH2 0xA30 JUMPI POP PUSH2 0xA2F PUSH8 0x8FD99ABD8B843FF2 PUSH1 0xC0 SHL PUSH2 0x172E JUMP JUMPDEST JUMPDEST DUP1 ISZERO PUSH2 0xA4C JUMPI POP PUSH2 0xA4B PUSH8 0xAE2B58D2B36F8746 PUSH1 0xC0 SHL PUSH2 0x1735 JUMP JUMPDEST JUMPDEST PUSH2 0xA5A JUMPI DUP2 PUSH1 0x1 ADD SLOAD PUSH2 0xA60 JUMP JUMPDEST DUP2 PUSH1 0x0 ADD SLOAD JUMPDEST SWAP1 POP PUSH2 0xA76 PUSH8 0x407B2FB539E62D81 PUSH1 0xC0 SHL PUSH2 0x1637 JUMP JUMPDEST PUSH2 0xA8A PUSH8 0x9BF7EC7B5F0552D1 PUSH1 0xC0 SHL PUSH2 0x1637 JUMP JUMPDEST PUSH1 0x0 DUP6 PUSH20 0xFFFFFFFFFFFFFFFFFFFFFFFFFFFFFFFFFFFFFFFF AND DUP8 PUSH20 0xFFFFFFFFFFFFFFFFFFFFFFFFFFFFFFFFFFFFFFFF AND LT DUP1 PUSH2 0xAD6 JUMPI POP PUSH2 0xAD5 PUSH8 0x282B880FDB6A3ADB PUSH1 0xC0 SHL PUSH2 0x172E JUMP JUMPDEST JUMPDEST DUP1 ISZERO PUSH2 0xAF2 JUMPI POP PUSH2 0xAF1 PUSH8 0xC0F204AF8FCB4E7 PUSH1 0xC0 SHL PUSH2 0x1735 JUMP JUMPDEST JUMPDEST PUSH2 0xB00 JUMPI DUP3 PUSH1 0x0 ADD SLOAD PUSH2 0xB06 JUMP JUMPDEST DUP3 PUSH1 0x1 ADD SLOAD JUMPDEST SWAP1 POP PUSH2 0xB1C PUSH8 0x3EE7193036BE964A PUSH1 0xC0 SHL PUSH2 0x1637 JUMP JUMPDEST PUSH2 0xB30 PUSH8 0x40636D2136B75833 PUSH1 0xC0 SHL PUSH2 0x1637 JUMP JUMPDEST PUSH2 0xB44 PUSH8 0xE36260B39167CF2 PUSH1 0xC0 SHL PUSH2 0x1637 JUMP JUMPDEST PUSH1 0x0 DUP3 GT PUSH2 0xB87 JUMPI PUSH1 0x40 MLOAD PUSH32 0x8C379A000000000000000000000000000000000000000000000000000000000 DUP2 MSTORE PUSH1 0x4 ADD PUSH2 0xB7E SWAP1 PUSH2 0x1FC8 JUMP JUMPDEST PUSH1 0x40 MLOAD DUP1 SWAP2 SUB SWAP1 REVERT JUMPDEST PUSH2 0xB9B PUSH8 0x1291F7A2DB7B1E01 PUSH1 0xC0 SHL PUSH2 0x1637 JUMP JUMPDEST PUSH2 0xBAF PUSH8 0x570A4FE36476A9EF PUSH1 0xC0 SHL PUSH2 0x1637 JUMP JUMPDEST DUP2 PUSH8 0xDE0B6B3A7640000 DUP3 PUSH2 0xBC4 SWAP2 SWAP1 PUSH2 0x1C32 JUMP JUMPDEST PUSH2 0xBCE SWAP2 SWAP1 PUSH2 0x1CA3 JUMP JUMPDEST SWAP5 POP POP POP POP POP SWAP3 SWAP2 POP POP JUMP JUMPDEST PUSH1 0x0 DUP1 PUSH2 0xBF1 PUSH8 0xFDFEDFA36FE7D498 PUSH1 0xC0 SHL PUSH2 0x1637 JUMP JUMPDEST PUSH2 0xC05 PUSH8 0x3C8B69AB122032ED PUSH1 0xC0 SHL PUSH2 0x1637 JUMP JUMPDEST PUSH2 0xC19 PUSH8 0x39BF1FBFCA19981F PUSH1 0xC0 SHL PUSH2 0x1637 JUMP JUMPDEST PUSH2 0xC2D PUSH8 0x55500F517C5E511A PUSH1 0xC0 SHL PUSH2 0x1637 JUMP JUMPDEST DUP3 TIMESTAMP GT ISZERO PUSH2 0xC70 JUMPI PUSH1 0x40 MLOAD PUSH32 0x8C379A000000000000000000000000000000000000000000000000000000000 DUP2 MSTORE PUSH1 0x4 ADD PUSH2 0xC67 SWAP1 PUSH2 0x1D8C JUMP JUMPDEST PUSH1 0x40 MLOAD DUP1 SWAP2 SUB SWAP1 REVERT JUMPDEST PUSH2 0xC84 PUSH8 0x9AC08CCA0AE35467 PUSH1 0xC0 SHL PUSH2 0x1637 JUMP JUMPDEST PUSH2 0xC98 PUSH8 0xE9B2411A16FA0380 PUSH1 0xC0 SHL PUSH2 0x1637 JUMP JUMPDEST PUSH2 0xCAC PUSH8 0x97A4F77E97C79263 PUSH1 0xC0 SHL PUSH2 0x1637 JUMP JUMPDEST PUSH1 0x0 PUSH2 0xCB8 DUP11 DUP11 PUSH2 0x163A JUMP JUMPDEST SWAP1 POP PUSH2 0xCCE PUSH8 0x30A00F347F7DAA02 PUSH1 0xC0 SHL PUSH2 0x1637 JUMP JUMPDEST PUSH2 0xCE2 PUSH8 0x845D0BA40E7A67C8 PUSH1 0xC0 SHL PUSH2 0x1637 JUMP JUMPDEST PUSH1 0x0 DUP1 PUSH1 0x0 DUP4 DUP2 MSTORE PUSH1 0x20 ADD SWAP1 DUP2 MSTORE PUSH1 0x20 ADD PUSH1 0x0 KECCAK256 SWAP1 POP PUSH2 0xD0C PUSH8 0x67F80EF6558C86DC PUSH1 0xC0 SHL PUSH2 0x1637 JUMP JUMPDEST PUSH2 0xD20 PUSH8 0x2EFA873CF2B8613E PUSH1 0xC0 SHL PUSH2 0x1637 JUMP JUMPDEST PUSH1 0x0 DUP2 PUSH1 0x2 ADD PUSH1 0x0 CALLER PUSH20 0xFFFFFFFFFFFFFFFFFFFFFFFFFFFFFFFFFFFFFFFF AND PUSH20 0xFFFFFFFFFFFFFFFFFFFFFFFFFFFFFFFFFFFFFFFF AND DUP2 MSTORE PUSH1 0x20 ADD SWAP1 DUP2 MSTORE PUSH1 0x20 ADD PUSH1 0x0 KECCAK256 SLOAD SWAP1 POP PUSH2 0xD7A PUSH8 0xC1EB15B827AF4470 PUSH1 0xC0 SHL PUSH2 0x1637 JUMP JUMPDEST PUSH2 0xD8E PUSH8 0x2D96FC919D284402 PUSH1 0xC0 SHL PUSH2 0x1637 JUMP JUMPDEST PUSH1 0x0 DUP3 PUSH1 0x3 ADD SLOAD SWAP1 POP PUSH2 0xDAB PUSH8 0xCA9FA17965811C7E PUSH1 0xC0 SHL PUSH2 0x1637 JUMP JUMPDEST PUSH2 0xDBF PUSH8 0xD109A99F65DC9D4A PUSH1 0xC0 SHL PUSH2 0x1637 JUMP JUMPDEST PUSH2 0xDD3 PUSH8 0x736CCBE62D3DEBF9 PUSH1 0xC0 SHL PUSH2 0x1637 JUMP JUMPDEST DUP11 DUP3 LT ISZERO DUP1 ISZERO PUSH2 0xDE3 JUMPI POP PUSH1 0x0 DUP2 GT JUMPDEST PUSH2 0xE22 JUMPI PUSH1 0x40 MLOAD PUSH32 0x8C379A000000000000000000000000000000000000000000000000000000000 DUP2 MSTORE PUSH1 0x4 ADD PUSH2 0xE19 SWAP1 PUSH2 0x1FC8 JUMP JUMPDEST PUSH1 0x40 MLOAD DUP1 SWAP2 SUB SWAP1 REVERT JUMPDEST PUSH2 0xE36 PUSH8 0xA891C6DCA223DAF6 PUSH1 0xC0 SHL PUSH2 0x1637 JUMP JUMPDEST PUSH2 0xE4A PUSH8 0xAFDD66855946610D PUSH1 0xC0 SHL PUSH2 0x1637 JUMP JUMPDEST PUSH2 0xE5E PUSH8 0x66CDCC70AB553A40 PUSH1 0xC0 SHL PUSH2 0x1637 JUMP JUMPDEST PUSH1 0x0 DUP4 PUSH1 0x0 ADD SLOAD SWAP1 POP PUSH2 0xE7B PUSH8 0xEAE7F16AF7EE28A7 PUSH1 0xC0 SHL PUSH2 0x1637 JUMP JUMPDEST PUSH2 0xE8F PUSH8 0x8F678A2D6DEF595D PUSH1 0xC0 SHL PUSH2 0x1637 JUMP JUMPDEST PUSH1 0x0 DUP5 PUSH1 0x1 ADD SLOAD SWAP1 POP PUSH2 0xEAC PUSH8 0xE0F4B095CAA394DA PUSH1 0xC0 SHL PUSH2 0x1637 JUMP JUMPDEST DUP3 DUP3 DUP15 PUSH2 0xEB9 SWAP2 SWAP1 PUSH2 0x1C32 JUMP JUMPDEST PUSH2 0xEC3 SWAP2 SWAP1 PUSH2 0x1CA3 JUMP JUMPDEST SWAP8 POP PUSH2 0xED9 PUSH8 0x3FFFF1EC1A3FFEAE PUSH1 0xC0 SHL PUSH2 0x1637 JUMP JUMPDEST DUP3 DUP2 DUP15 PUSH2 0xEE6 SWAP2 SWAP1 PUSH2 0x1C32 JUMP JUMPDEST PUSH2 0xEF0 SWAP2 SWAP1 PUSH2 0x1CA3 JUMP JUMPDEST SWAP7 POP PUSH2 0xF06 PUSH8 0x55A74D6F2099DAFC PUSH1 0xC0 SHL PUSH2 0x1637 JUMP JUMPDEST PUSH2 0xF1A PUSH8 0x1EA740185F8033A9 PUSH1 0xC0 SHL PUSH2 0x1637 JUMP JUMPDEST PUSH2 0xF2E PUSH8 0x9C52337643A6C69F PUSH1 0xC0 SHL PUSH2 0x1637 JUMP JUMPDEST DUP12 DUP9 LT ISZERO DUP1 ISZERO PUSH2 0xF3E JUMPI POP DUP11 DUP8 LT ISZERO JUMPDEST PUSH2 0xF7D JUMPI PUSH1 0x40 MLOAD PUSH32 0x8C379A000000000000000000000000000000000000000000000000000000000 DUP2 MSTORE PUSH1 0x4 ADD PUSH2 0xF74 SWAP1 PUSH2 0x2034 JUMP JUMPDEST PUSH1 0x40 MLOAD DUP1 SWAP2 SUB SWAP1 REVERT JUMPDEST PUSH2 0xF91 PUSH8 0x435D4DCA186B52A PUSH1 0xC0 SHL PUSH2 0x1637 JUMP JUMPDEST PUSH2 0xFA5 PUSH8 0xF99A6E1BE075A19 PUSH1 0xC0 SHL PUSH2 0x1637 JUMP JUMPDEST DUP8 DUP3 PUSH2 0xFB1 SWAP2 SWAP1 PUSH2 0x1F1F JUMP JUMPDEST DUP6 PUSH1 0x0 ADD DUP2 SWAP1 SSTORE POP PUSH2 0xFCD PUSH8 0xBC88D85A01851B5 PUSH1 0xC0 SHL PUSH2 0x1637 JUMP JUMPDEST DUP7 DUP2 PUSH2 0xFD9 SWAP2 SWAP1 PUSH2 0x1F1F JUMP JUMPDEST DUP6 PUSH1 0x1 ADD DUP2 SWAP1 SSTORE POP PUSH2 0xFF5 PUSH8 0x81029668A6F83DBE PUSH1 0xC0 SHL PUSH2 0x1637 JUMP JUMPDEST DUP13 DUP5 PUSH2 0x1001 SWAP2 SWAP1 PUSH2 0x1F1F JUMP JUMPDEST DUP6 PUSH1 0x2 ADD PUSH1 0x0 CALLER PUSH20 0xFFFFFFFFFFFFFFFFFFFFFFFFFFFFFFFFFFFFFFFF AND PUSH20 0xFFFFFFFFFFFFFFFFFFFFFFFFFFFFFFFFFFFFFFFF AND DUP2 MSTORE PUSH1 0x20 ADD SWAP1 DUP2 MSTORE PUSH1 0x20 ADD PUSH1 0x0 KECCAK256 DUP2 SWAP1 SSTORE POP PUSH2 0x105A PUSH8 0x5838CDA7EABDA8FD PUSH1 0xC0 SHL PUSH2 0x1637 JUMP JUMPDEST DUP13 DUP4 PUSH2 0x1066 SWAP2 SWAP1 PUSH2 0x1F1F JUMP JUMPDEST DUP6 PUSH1 0x3 ADD DUP2 SWAP1 SSTORE POP PUSH2 0x1082 PUSH8 0xB7A295F41C5A1A17 PUSH1 0xC0 SHL PUSH2 0x1637 JUMP JUMPDEST PUSH2 0x1096 PUSH8 0xCC7371ABF85C31EE PUSH1 0xC0 SHL PUSH2 0x1637 JUMP JUMPDEST DUP15 PUSH20 0xFFFFFFFFFFFFFFFFFFFFFFFFFFFFFFFFFFFFFFFF AND PUSH4 0xA9059CBB DUP12 DUP11 PUSH1 0x40 MLOAD DUP4 PUSH4 0xFFFFFFFF AND PUSH1 0xE0 SHL DUP2 MSTORE PUSH1 0x4 ADD PUSH2 0x10D1 SWAP3 SWAP2 SWAP1 PUSH2 0x1F53 JUMP JUMPDEST PUSH1 0x20 PUSH1 0x40 MLOAD DUP1 DUP4 SUB DUP2 PUSH1 0x0 DUP8 GAS CALL ISZERO DUP1 ISZERO PUSH2 0x10F0 JUMPI RETURNDATASIZE PUSH1 0x0 DUP1 RETURNDATACOPY RETURNDATASIZE PUSH1 0x0 REVERT JUMPDEST POP POP POP POP PUSH1 0x40 MLOAD RETURNDATASIZE PUSH1 0x1F NOT PUSH1 0x1F DUP3 ADD AND DUP3 ADD DUP1 PUSH1 0x40 MSTORE POP DUP2 ADD SWAP1 PUSH2 0x1114 SWAP2 SWAP1 PUSH2 0x1E86 JUMP JUMPDEST POP PUSH2 0x1129 PUSH8 0x23282AB789C5E5D PUSH1 0xC0 SHL PUSH2 0x1637 JUMP JUMPDEST PUSH2 0x113D PUSH8 0x1D77E6581B90B484 PUSH1 0xC0 SHL PUSH2 0x1637 JUMP JUMPDEST DUP14 PUSH20 0xFFFFFFFFFFFFFFFFFFFFFFFFFFFFFFFFFFFFFFFF AND PUSH4 0xA9059CBB DUP12 DUP10 PUSH1 0x40 MLOAD DUP4 PUSH4 0xFFFFFFFF AND PUSH1 0xE0 SHL DUP2 MSTORE PUSH1 0x4 ADD PUSH2 0x1178 SWAP3 SWAP2 SWAP1 PUSH2 0x1F53 JUMP JUMPDEST PUSH1 0x20 PUSH1 0x40 MLOAD DUP1 DUP4 SUB DUP2 PUSH1 0x0 DUP8 GAS CALL ISZERO DUP1 ISZERO PUSH2 0x1197 JUMPI RETURNDATASIZE PUSH1 0x0 DUP1 RETURNDATACOPY RETURNDATASIZE PUSH1 0x0 REVERT JUMPDEST POP POP POP POP PUSH1 0x40 MLOAD RETURNDATASIZE PUSH1 0x1F NOT PUSH1 0x1F DUP3 ADD AND DUP3 ADD DUP1 PUSH1 0x40 MSTORE POP DUP2 ADD SWAP1 PUSH2 0x11BB SWAP2 SWAP1 PUSH2 0x1E86 JUMP JUMPDEST POP POP POP POP POP POP POP SWAP8 POP SWAP8 SWAP6 POP POP POP POP POP POP JUMP JUMPDEST PUSH1 0x0 DUP1 PUSH1 0x0 PUSH2 0x11E7 PUSH8 0xCF7DE2CAFB7F321B PUSH1 0xC0 SHL PUSH2 0x1637 JUMP JUMPDEST PUSH2 0x11FB PUSH8 0x7C45159CE9CB7C65 PUSH1 0xC0 SHL PUSH2 0x1637 JUMP JUMPDEST PUSH2 0x120F PUSH8 0x8BCADF13C78C0626 PUSH1 0xC0 SHL PUSH2 0x1637 JUMP JUMPDEST PUSH2 0x1223 PUSH8 0xDE1A960C26587C25 PUSH1 0xC0 SHL PUSH2 0x1637 JUMP JUMPDEST DUP4 TIMESTAMP GT ISZERO PUSH2 0x1266 JUMPI PUSH1 0x40 MLOAD PUSH32 0x8C379A000000000000000000000000000000000000000000000000000000000 DUP2 MSTORE PUSH1 0x4 ADD PUSH2 0x125D SWAP1 PUSH2 0x1D8C JUMP JUMPDEST PUSH1 0x40 MLOAD DUP1 SWAP2 SUB SWAP1 REVERT JUMPDEST PUSH2 0x1279 PUSH7 0x40D28FAFDCD9FA PUSH1 0xC0 SHL PUSH2 0x1637 JUMP JUMPDEST PUSH2 0x128D PUSH8 0x5B9D11A7893ED1AD PUSH1 0xC0 SHL PUSH2 0x1637 JUMP JUMPDEST DUP9 SWAP3 POP PUSH2 0x12A4 PUSH8 0xB877642557F32E89 PUSH1 0xC0 SHL PUSH2 0x1637 JUMP JUMPDEST DUP8 SWAP2 POP PUSH2 0x12BB PUSH8 0xC6EC77590D2121B2 PUSH1 0xC0 SHL PUSH2 0x1637 JUMP JUMPDEST PUSH2 0x12CF PUSH8 0x5A649AE28CF7226 PUSH1 0xC0 SHL PUSH2 0x1637 JUMP JUMPDEST PUSH2 0x12E3 PUSH8 0x4B3E963C07168FB9 PUSH1 0xC0 SHL PUSH2 0x1637 JUMP JUMPDEST DUP7 DUP4 LT ISZERO DUP1 ISZERO PUSH2 0x12F3 JUMPI POP DUP6 DUP3 LT ISZERO JUMPDEST PUSH2 0x1332 JUMPI PUSH1 0x40 MLOAD PUSH32 0x8C379A000000000000000000000000000000000000000000000000000000000 DUP2 MSTORE PUSH1 0x4 ADD PUSH2 0x1329 SWAP1 PUSH2 0x2034 JUMP JUMPDEST PUSH1 0x40 MLOAD DUP1 SWAP2 SUB SWAP1 REVERT JUMPDEST PUSH2 0x1346 PUSH8 0x5A5A436568AA93EF PUSH1 0xC0 SHL PUSH2 0x1637 JUMP JUMPDEST PUSH2 0x135A PUSH8 0x8F8CA113C2870E84 PUSH1 0xC0 SHL PUSH2 0x1637 JUMP JUMPDEST PUSH2 0x136E PUSH8 0xF94838020DC28451 PUSH1 0xC0 SHL PUSH2 0x1637 JUMP JUMPDEST DUP11 PUSH20 0xFFFFFFFFFFFFFFFFFFFFFFFFFFFFFFFFFFFFFFFF AND PUSH4 0x23B872DD CALLER ADDRESS DUP7 PUSH1 0x40 MLOAD DUP5 PUSH4 0xFFFFFFFF AND PUSH1 0xE0 SHL DUP2 MSTORE PUSH1 0x4 ADD PUSH2 0x13AB SWAP4 SWAP3 SWAP2 SWAP1 PUSH2 0x1E17 JUMP JUMPDEST PUSH1 0x20 PUSH1 0x40 MLOAD DUP1 DUP4 SUB DUP2 PUSH1 0x0 DUP8 GAS CALL ISZERO DUP1 ISZERO PUSH2 0x13CA JUMPI RETURNDATASIZE PUSH1 0x0 DUP1 RETURNDATACOPY RETURNDATASIZE PUSH1 0x0 REVERT JUMPDEST POP POP POP POP PUSH1 0x40 MLOAD RETURNDATASIZE PUSH1 0x1F NOT PUSH1 0x1F DUP3 ADD AND DUP3 ADD DUP1 PUSH1 0x40 MSTORE POP DUP2 ADD SWAP1 PUSH2 0x13EE SWAP2 SWAP1 PUSH2 0x1E86 JUMP JUMPDEST POP PUSH2 0x1403 PUSH8 0xBB1BE856861B6FA9 PUSH1 0xC0 SHL PUSH2 0x1637 JUMP JUMPDEST PUSH2 0x1417 PUSH8 0x4F5D529038E651F6 PUSH1 0xC0 SHL PUSH2 0x1637 JUMP JUMPDEST DUP10 PUSH20 0xFFFFFFFFFFFFFFFFFFFFFFFFFFFFFFFFFFFFFFFF AND PUSH4 0x23B872DD CALLER ADDRESS DUP6 PUSH1 0x40 MLOAD DUP5 PUSH4 0xFFFFFFFF AND PUSH1 0xE0 SHL DUP2 MSTORE PUSH1 0x4 ADD PUSH2 0x1454 SWAP4 SWAP3 SWAP2 SWAP1 PUSH2 0x1E17 JUMP JUMPDEST PUSH1 0x20 PUSH1 0x40 MLOAD DUP1 DUP4 SUB DUP2 PUSH1 0x0 DUP8 GAS CALL ISZERO DUP1 ISZERO PUSH2 0x1473 JUMPI RETURNDATASIZE PUSH1 0x0 DUP1 RETURNDATACOPY RETURNDATASIZE PUSH1 0x0 REVERT JUMPDEST POP POP POP POP PUSH1 0x40 MLOAD RETURNDATASIZE PUSH1 0x1F NOT PUSH1 0x1F DUP3 ADD AND DUP3 ADD DUP1 PUSH1 0x40 MSTORE POP DUP2 ADD SWAP1 PUSH2 0x1497 SWAP2 SWAP1 PUSH2 0x1E86 JUMP JUMPDEST POP PUSH2 0x14AC PUSH8 0xC18D11A9ADC4C494 PUSH1 0xC0 SHL PUSH2 0x1637 JUMP JUMPDEST PUSH2 0x14C0 PUSH8 0x25BACE367198DE0E PUSH1 0xC0 SHL PUSH2 0x1637 JUMP JUMPDEST PUSH1 0x0 PUSH2 0x14CC DUP13 DUP13 PUSH2 0x163A JUMP JUMPDEST SWAP1 POP PUSH2 0x14E2 PUSH8 0xE9E2D8D523EDBBC2 PUSH1 0xC0 SHL PUSH2 0x1637 JUMP JUMPDEST PUSH2 0x14F6 PUSH8 0xE5B8232C1B462252 PUSH1 0xC0 SHL PUSH2 0x1637 JUMP JUMPDEST PUSH1 0x0 DUP1 PUSH1 0x0 DUP4 DUP2 MSTORE PUSH1 0x20 ADD SWAP1 DUP2 MSTORE PUSH1 0x20 ADD PUSH1 0x0 KECCAK256 SWAP1 POP PUSH2 0x1520 PUSH8 0xF15F1BE7B67E9256 PUSH1 0xC0 SHL PUSH2 0x1637 JUMP JUMPDEST DUP4 DUP6 PUSH2 0x152C SWAP2 SWAP1 PUSH2 0x1BFE JUMP JUMPDEST SWAP3 POP PUSH2 0x1542 PUSH8 0xE98EC344A9C28826 PUSH1 0xC0 SHL PUSH2 0x1637 JUMP JUMPDEST DUP5 DUP2 PUSH1 0x0 ADD PUSH1 0x0 DUP3 DUP3 SLOAD PUSH2 0x1556 SWAP2 SWAP1 PUSH2 0x1BFE JUMP JUMPDEST SWAP3 POP POP DUP2 SWAP1 SSTORE POP PUSH2 0x1571 PUSH8 0x17DB3B6B3D416B9F PUSH1 0xC0 SHL PUSH2 0x1637 JUMP JUMPDEST DUP4 DUP2 PUSH1 0x1 ADD PUSH1 0x0 DUP3 DUP3 SLOAD PUSH2 0x1585 SWAP2 SWAP1 PUSH2 0x1BFE JUMP JUMPDEST SWAP3 POP POP DUP2 SWAP1 SSTORE POP PUSH2 0x15A0 PUSH8 0x9338857B21764F15 PUSH1 0xC0 SHL PUSH2 0x1637 JUMP JUMPDEST DUP3 DUP2 PUSH1 0x2 ADD PUSH1 0x0 DUP10 PUSH20 0xFFFFFFFFFFFFFFFFFFFFFFFFFFFFFFFFFFFFFFFF AND PUSH20 0xFFFFFFFFFFFFFFFFFFFFFFFFFFFFFFFFFFFFFFFF AND DUP2 MSTORE PUSH1 0x20 ADD SWAP1 DUP2 MSTORE PUSH1 0x20 ADD PUSH1 0x0 KECCAK256 PUSH1 0x0 DUP3 DUP3 SLOAD PUSH2 0x15F1 SWAP2 SWAP1 PUSH2 0x1BFE JUMP JUMPDEST SWAP3 POP POP DUP2 SWAP1 SSTORE POP PUSH2 0x160C PUSH8 0x4D19E9D3CEF5F746 PUSH1 0xC0 SHL PUSH2 0x1637 JUMP JUMPDEST DUP3 DUP2 PUSH1 0x3 ADD PUSH1 0x0 DUP3 DUP3 SLOAD PUSH2 0x1620 SWAP2 SWAP1 PUSH2 0x1BFE JUMP JUMPDEST SWAP3 POP POP DUP2 SWAP1 SSTORE POP POP POP SWAP9 POP SWAP9 POP SWAP9 SWAP6 POP POP POP POP POP POP JUMP JUMPDEST POP JUMP JUMPDEST PUSH1 0x0 PUSH2 0x1650 PUSH8 0x26F6F938AE56DAD PUSH1 0xC0 SHL PUSH2 0x1637 JUMP JUMPDEST PUSH2 0x1664 PUSH8 0x84D8E7B91FDA9D00 PUSH1 0xC0 SHL PUSH2 0x1637 JUMP JUMPDEST DUP2 PUSH20 0xFFFFFFFFFFFFFFFFFFFFFFFFFFFFFFFFFFFFFFFF AND DUP4 PUSH20 0xFFFFFFFFFFFFFFFFFFFFFFFFFFFFFFFFFFFFFFFF AND LT DUP1 PUSH2 0x16AE JUMPI POP PUSH2 0x16AD PUSH8 0x90F97D738D717DED PUSH1 0xC0 SHL PUSH2 0x172E JUMP JUMPDEST JUMPDEST DUP1 ISZERO PUSH2 0x16CA JUMPI POP PUSH2 0x16C9 PUSH8 0xAE89832B9570FE6B PUSH1 0xC0 SHL PUSH2 0x1735 JUMP JUMPDEST JUMPDEST PUSH2 0x16FC JUMPI DUP2 DUP4 PUSH1 0x40 MLOAD PUSH1 0x20 ADD PUSH2 0x16E1 SWAP3 SWAP2 SWAP1 PUSH2 0x209C JUMP JUMPDEST PUSH1 0x40 MLOAD PUSH1 0x20 DUP2 DUP4 SUB SUB DUP2 MSTORE SWAP1 PUSH1 0x40 MSTORE DUP1 MLOAD SWAP1 PUSH1 0x20 ADD KECCAK256 PUSH2 0x1726 JUMP JUMPDEST DUP3 DUP3 PUSH1 0x40 MLOAD PUSH1 0x20 ADD PUSH2 0x170F SWAP3 SWAP2 SWAP1 PUSH2 0x209C JUMP JUMPDEST PUSH1 0x40 MLOAD PUSH1 0x20 DUP2 DUP4 SUB SUB DUP2 MSTORE SWAP1 PUSH1 0x40 MSTORE DUP1 MLOAD SWAP1 PUSH1 0x20 ADD KECCAK256 JUMPDEST SWAP1 POP SWAP3 SWAP2 POP POP JUMP JUMPDEST PUSH1 0x0 SWAP2 SWAP1 POP JUMP JUMPDEST PUSH1 0x0 PUSH1 0x1 SWAP1 POP SWAP2 SWAP1 POP JUMP JUMPDEST PUSH1 0x0 DUP1 REVERT JUMPDEST PUSH1 0x0 DUP1 REVERT JUMPDEST PUSH1 0x0 DUP2 SWAP1 POP SWAP2 SWAP1 POP JUMP JUMPDEST PUSH2 0x175D DUP2 PUSH2 0x174A JUMP JUMPDEST DUP2 EQ PUSH2 0x1768 JUMPI PUSH1 0x0 DUP1 REVERT JUMPDEST POP JUMP JUMPDEST PUSH1 0x0 DUP2 CALLDATALOAD SWAP1 POP PUSH2 0x177A DUP2 PUSH2 0x1754 JUMP JUMPDEST SWAP3 SWAP2 POP POP JUMP JUMPDEST PUSH1 0x0 DUP1 PUSH1 0x0 PUSH1 0x60 DUP5 DUP7 SUB SLT ISZERO PUSH2 0x1799 JUMPI PUSH2 0x1798 PUSH2 0x1740 JUMP JUMPDEST JUMPDEST PUSH1 0x0 PUSH2 0x17A7 DUP7 DUP3 DUP8 ADD PUSH2 0x176B JUMP JUMPDEST SWAP4 POP POP PUSH1 0x20 PUSH2 0x17B8 DUP7 DUP3 DUP8 ADD PUSH2 0x176B JUMP JUMPDEST SWAP3 POP POP PUSH1 0x40 PUSH2 0x17C9 DUP7 DUP3 DUP8 ADD PUSH2 0x176B JUMP JUMPDEST SWAP2 POP POP SWAP3 POP SWAP3 POP SWAP3 JUMP JUMPDEST PUSH2 0x17DC DUP2 PUSH2 0x174A JUMP JUMPDEST DUP3 MSTORE POP POP JUMP JUMPDEST PUSH1 0x0 PUSH1 0x20 DUP3 ADD SWAP1 POP PUSH2 0x17F7 PUSH1 0x0 DUP4 ADD DUP5 PUSH2 0x17D3 JUMP JUMPDEST SWAP3 SWAP2 POP POP JUMP JUMPDEST PUSH1 0x0 DUP1 REVERT JUMPDEST PUSH1 0x0 DUP1 REVERT JUMPDEST PUSH1 0x0 DUP1 REVERT JUMPDEST PUSH1 0x0 DUP1 DUP4 PUSH1 0x1F DUP5 ADD SLT PUSH2 0x1822 JUMPI PUSH2 0x1821 PUSH2 0x17FD JUMP JUMPDEST JUMPDEST DUP3 CALLDATALOAD SWAP1 POP PUSH8 0xFFFFFFFFFFFFFFFF DUP2 GT ISZERO PUSH2 0x183F JUMPI PUSH2 0x183E PUSH2 0x1802 JUMP JUMPDEST JUMPDEST PUSH1 0x20 DUP4 ADD SWAP2 POP DUP4 PUSH1 0x20 DUP3 MUL DUP4 ADD GT ISZERO PUSH2 0x185B JUMPI PUSH2 0x185A PUSH2 0x1807 JUMP JUMPDEST JUMPDEST SWAP3 POP SWAP3 SWAP1 POP JUMP JUMPDEST PUSH1 0x0 PUSH20 0xFFFFFFFFFFFFFFFFFFFFFFFFFFFFFFFFFFFFFFFF DUP3 AND SWAP1 POP SWAP2 SWAP1 POP JUMP JUMPDEST PUSH1 0x0 PUSH2 0x188D DUP3 PUSH2 0x1862 JUMP JUMPDEST SWAP1 POP SWAP2 SWAP1 POP JUMP JUMPDEST PUSH2 0x189D DUP2 PUSH2 0x1882 JUMP JUMPDEST DUP2 EQ PUSH2 0x18A8 JUMPI PUSH1 0x0 DUP1 REVERT JUMPDEST POP JUMP JUMPDEST PUSH1 0x0 DUP2 CALLDATALOAD SWAP1 POP PUSH2 0x18BA DUP2 PUSH2 0x1894 JUMP JUMPDEST SWAP3 SWAP2 POP POP JUMP JUMPDEST PUSH1 0x0 DUP1 PUSH1 0x0 DUP1 PUSH1 0x0 DUP1 PUSH1 0xA0 DUP8 DUP10 SUB SLT ISZERO PUSH2 0x18DD JUMPI PUSH2 0x18DC PUSH2 0x1740 JUMP JUMPDEST JUMPDEST PUSH1 0x0 PUSH2 0x18EB DUP10 DUP3 DUP11 ADD PUSH2 0x176B JUMP JUMPDEST SWAP7 POP POP PUSH1 0x20 PUSH2 0x18FC DUP10 DUP3 DUP11 ADD PUSH2 0x176B JUMP JUMPDEST SWAP6 POP POP PUSH1 0x40 DUP8 ADD CALLDATALOAD PUSH8 0xFFFFFFFFFFFFFFFF DUP2 GT ISZERO PUSH2 0x191D JUMPI PUSH2 0x191C PUSH2 0x1745 JUMP JUMPDEST JUMPDEST PUSH2 0x1929 DUP10 DUP3 DUP11 ADD PUSH2 0x180C JUMP JUMPDEST SWAP5 POP SWAP5 POP POP PUSH1 0x60 PUSH2 0x193C DUP10 DUP3 DUP11 ADD PUSH2 0x18AB JUMP JUMPDEST SWAP3 POP POP PUSH1 0x80 PUSH2 0x194D DUP10 DUP3 DUP11 ADD PUSH2 0x176B JUMP JUMPDEST SWAP2 POP POP SWAP3 SWAP6 POP SWAP3 SWAP6 POP SWAP3 SWAP6 JUMP JUMPDEST PUSH1 0x0 DUP1 PUSH1 0x40 DUP4 DUP6 SUB SLT ISZERO PUSH2 0x1971 JUMPI PUSH2 0x1970 PUSH2 0x1740 JUMP JUMPDEST JUMPDEST PUSH1 0x0 PUSH2 0x197F DUP6 DUP3 DUP7 ADD PUSH2 0x18AB JUMP JUMPDEST SWAP3 POP POP PUSH1 0x20 PUSH2 0x1990 DUP6 DUP3 DUP7 ADD PUSH2 0x18AB JUMP JUMPDEST SWAP2 POP POP SWAP3 POP SWAP3 SWAP1 POP JUMP JUMPDEST PUSH1 0x0 DUP1 PUSH1 0x0 DUP1 PUSH1 0x0 DUP1 PUSH1 0x0 PUSH1 0xE0 DUP9 DUP11 SUB SLT ISZERO PUSH2 0x19B9 JUMPI PUSH2 0x19B8 PUSH2 0x1740 JUMP JUMPDEST JUMPDEST PUSH1 0x0 PUSH2 0x19C7 DUP11 DUP3 DUP12 ADD PUSH2 0x18AB JUMP JUMPDEST SWAP8 POP POP PUSH1 0x20 PUSH2 0x19D8 DUP11 DUP3 DUP12 ADD PUSH2 0x18AB JUMP JUMPDEST SWAP7 POP POP PUSH1 0x40 PUSH2 0x19E9 DUP11 DUP3 DUP12 ADD PUSH2 0x176B JUMP JUMPDEST SWAP6 POP POP PUSH1 0x60 PUSH2 0x19FA DUP11 DUP3 DUP12 ADD PUSH2 0x176B JUMP JUMPDEST SWAP5 POP POP PUSH1 0x80 PUSH2 0x1A0B DUP11 DUP3 DUP12 ADD PUSH2 0x176B JUMP JUMPDEST SWAP4 POP POP PUSH1 0xA0 PUSH2 0x1A1C DUP11 DUP3 DUP12 ADD PUSH2 0x18AB JUMP JUMPDEST SWAP3 POP POP PUSH1 0xC0 PUSH2 0x1A2D DUP11 DUP3 DUP12 ADD PUSH2 0x176B JUMP JUMPDEST SWAP2 POP POP SWAP3 SWAP6 SWAP9 SWAP2 SWAP5 SWAP8 POP SWAP3 SWAP6 POP JUMP JUMPDEST PUSH1 0x0 PUSH1 0x40 DUP3 ADD SWAP1 POP PUSH2 0x1A51 PUSH1 0x0 DUP4 ADD DUP6 PUSH2 0x17D3 JUMP JUMPDEST PUSH2 0x1A5E PUSH1 0x20 DUP4 ADD DUP5 PUSH2 0x17D3 JUMP JUMPDEST SWAP4 SWAP3 POP POP POP JUMP JUMPDEST PUSH1 0x0 DUP1 PUSH1 0x0 DUP1 PUSH1 0x0 DUP1 PUSH1 0x0 DUP1 PUSH2 0x100 DUP10 DUP12 SUB SLT ISZERO PUSH2 0x1A86 JUMPI PUSH2 0x1A85 PUSH2 0x1740 JUMP JUMPDEST JUMPDEST PUSH1 0x0 PUSH2 0x1A94 DUP12 DUP3 DUP13 ADD PUSH2 0x18AB JUMP JUMPDEST SWAP9 POP POP PUSH1 0x20 PUSH2 0x1AA5 DUP12 DUP3 DUP13 ADD PUSH2 0x18AB JUMP JUMPDEST SWAP8 POP POP PUSH1 0x40 PUSH2 0x1AB6 DUP12 DUP3 DUP13 ADD PUSH2 0x176B JUMP JUMPDEST SWAP7 POP POP PUSH1 0x60 PUSH2 0x1AC7 DUP12 DUP3 DUP13 ADD PUSH2 0x176B JUMP JUMPDEST SWAP6 POP POP PUSH1 0x80 PUSH2 0x1AD8 DUP12 DUP3 DUP13 ADD PUSH2 0x176B JUMP JUMPDEST SWAP5 POP POP PUSH1 0xA0 PUSH2 0x1AE9 DUP12 DUP3 DUP13 ADD PUSH2 0x176B JUMP JUMPDEST SWAP4 POP POP PUSH1 0xC0 PUSH2 0x1AFA DUP12 DUP3 DUP13 ADD PUSH2 0x18AB JUMP JUMPDEST SWAP3 POP POP PUSH1 0xE0 PUSH2 0x1B0B DUP12 DUP3 DUP13 ADD PUSH2 0x176B JUMP JUMPDEST SWAP2 POP POP SWAP3 SWAP6 SWAP9 POP SWAP3 SWAP6 SWAP9 SWAP1 SWAP4 SWAP7 POP JUMP JUMPDEST PUSH1 0x0 PUSH1 0x60 DUP3 ADD SWAP1 POP PUSH2 0x1B30 PUSH1 0x0 DUP4 ADD DUP7 PUSH2 0x17D3 JUMP JUMPDEST PUSH2 0x1B3D PUSH1 0x20 DUP4 ADD DUP6 PUSH2 0x17D3 JUMP JUMPDEST PUSH2 0x1B4A PUSH1 0x40 DUP4 ADD DUP5 PUSH2 0x17D3 JUMP JUMPDEST SWAP5 SWAP4 POP POP POP POP JUMP JUMPDEST PUSH1 0x0 DUP3 DUP3 MSTORE PUSH1 0x20 DUP3 ADD SWAP1 POP SWAP3 SWAP2 POP POP JUMP JUMPDEST PUSH32 0x496E76616C696452657365727665730000000000000000000000000000000000 PUSH1 0x0 DUP3 ADD MSTORE POP JUMP JUMPDEST PUSH1 0x0 PUSH2 0x1B99 PUSH1 0xF DUP4 PUSH2 0x1B52 JUMP JUMPDEST SWAP2 POP PUSH2 0x1BA4 DUP3 PUSH2 0x1B63 JUMP JUMPDEST PUSH1 0x20 DUP3 ADD SWAP1 POP SWAP2 SWAP1 POP JUMP JUMPDEST PUSH1 0x0 PUSH1 0x20 DUP3 ADD SWAP1 POP DUP2 DUP2 SUB PUSH1 0x0 DUP4 ADD MSTORE PUSH2 0x1BC8 DUP2 PUSH2 0x1B8C JUMP JUMPDEST SWAP1 POP SWAP2 SWAP1 POP JUMP JUMPDEST PUSH32 0x4E487B7100000000000000000000000000000000000000000000000000000000 PUSH1 0x0 MSTORE PUSH1 0x11 PUSH1 0x4 MSTORE PUSH1 0x24 PUSH1 0x0 REVERT JUMPDEST PUSH1 0x0 PUSH2 0x1C09 DUP3 PUSH2 0x174A JUMP JUMPDEST SWAP2 POP PUSH2 0x1C14 DUP4 PUSH2 0x174A JUMP JUMPDEST SWAP3 POP DUP3 DUP3 ADD SWAP1 POP DUP1 DUP3 GT ISZERO PUSH2 0x1C2C JUMPI PUSH2 0x1C2B PUSH2 0x1BCF JUMP JUMPDEST JUMPDEST SWAP3 SWAP2 POP POP JUMP JUMPDEST PUSH1 0x0 PUSH2 0x1C3D DUP3 PUSH2 0x174A JUMP JUMPDEST SWAP2 POP PUSH2 0x1C48 DUP4 PUSH2 0x174A JUMP JUMPDEST SWAP3 POP DUP3 DUP3 MUL PUSH2 0x1C56 DUP2 PUSH2 0x174A JUMP JUMPDEST SWAP2 POP DUP3 DUP3 DIV DUP5 EQ DUP4 ISZERO OR PUSH2 0x1C6D JUMPI PUSH2 0x1C6C PUSH2 0x1BCF JUMP JUMPDEST JUMPDEST POP SWAP3 SWAP2 POP POP JUMP JUMPDEST PUSH32 0x4E487B7100000000000000000000000000000000000000000000000000000000 PUSH1 0x0 MSTORE PUSH1 0x12 PUSH1 0x4 MSTORE PUSH1 0x24 PUSH1 0x0 REVERT JUMPDEST PUSH1 0x0 PUSH2 0x1CAE DUP3 PUSH2 0x174A JUMP JUMPDEST SWAP2 POP PUSH2 0x1CB9 DUP4 PUSH2 0x174A JUMP JUMPDEST SWAP3 POP DUP3 PUSH2 0x1CC9 JUMPI PUSH2 0x1CC8 PUSH2 0x1C74 JUMP JUMPDEST JUMPDEST DUP3 DUP3 DIV SWAP1 POP SWAP3 SWAP2 POP POP JUMP JUMPDEST PUSH32 0x50617468496E76616C6964000000000000000000000000000000000000000000 PUSH1 0x0 DUP3 ADD MSTORE POP JUMP JUMPDEST PUSH1 0x0 PUSH2 0x1D0A PUSH1 0xB DUP4 PUSH2 0x1B52 JUMP JUMPDEST SWAP2 POP PUSH2 0x1D15 DUP3 PUSH2 0x1CD4 JUMP JUMPDEST PUSH1 0x20 DUP3 ADD SWAP1 POP SWAP2 SWAP1 POP JUMP JUMPDEST PUSH1 0x0 PUSH1 0x20 DUP3 ADD SWAP1 POP DUP2 DUP2 SUB PUSH1 0x0 DUP4 ADD MSTORE PUSH2 0x1D39 DUP2 PUSH2 0x1CFD JUMP JUMPDEST SWAP1 POP SWAP2 SWAP1 POP JUMP JUMPDEST PUSH32 0x4578706972656400000000000000000000000000000000000000000000000000 PUSH1 0x0 DUP3 ADD MSTORE POP JUMP JUMPDEST PUSH1 0x0 PUSH2 0x1D76 PUSH1 0x7 DUP4 PUSH2 0x1B52 JUMP JUMPDEST SWAP2 POP PUSH2 0x1D81 DUP3 PUSH2 0x1D40 JUMP JUMPDEST PUSH1 0x20 DUP3 ADD SWAP1 POP SWAP2 SWAP1 POP JUMP JUMPDEST PUSH1 0x0 PUSH1 0x20 DUP3 ADD SWAP1 POP DUP2 DUP2 SUB PUSH1 0x0 DUP4 ADD MSTORE PUSH2 0x1DA5 DUP2 PUSH2 0x1D69 JUMP JUMPDEST SWAP1 POP SWAP2 SWAP1 POP JUMP JUMPDEST PUSH32 0x4E487B7100000000000000000000000000000000000000000000000000000000 PUSH1 0x0 MSTORE PUSH1 0x32 PUSH1 0x4 MSTORE PUSH1 0x24 PUSH1 0x0 REVERT JUMPDEST PUSH1 0x0 PUSH1 0x20 DUP3 DUP5 SUB SLT ISZERO PUSH2 0x1DF1 JUMPI PUSH2 0x1DF0 PUSH2 0x1740 JUMP JUMPDEST JUMPDEST PUSH1 0x0 PUSH2 0x1DFF DUP5 DUP3 DUP6 ADD PUSH2 0x18AB JUMP JUMPDEST SWAP2 POP POP SWAP3 SWAP2 POP POP JUMP JUMPDEST PUSH2 0x1E11 DUP2 PUSH2 0x1882 JUMP JUMPDEST DUP3 MSTORE POP POP JUMP JUMPDEST PUSH1 0x0 PUSH1 0x60 DUP3 ADD SWAP1 POP PUSH2 0x1E2C PUSH1 0x0 DUP4 ADD DUP7 PUSH2 0x1E08 JUMP JUMPDEST PUSH2 0x1E39 PUSH1 0x20 DUP4 ADD DUP6 PUSH2 0x1E08 JUMP JUMPDEST PUSH2 0x1E46 PUSH1 0x40 DUP4 ADD DUP5 PUSH2 0x17D3 JUMP JUMPDEST SWAP5 SWAP4 POP POP POP POP JUMP JUMPDEST PUSH1 0x0 DUP2 ISZERO ISZERO SWAP1 POP SWAP2 SWAP1 POP JUMP JUMPDEST PUSH2 0x1E63 DUP2 PUSH2 0x1E4E JUMP JUMPDEST DUP2 EQ PUSH2 0x1E6E JUMPI PUSH1 0x0 DUP1 REVERT JUMPDEST POP JUMP JUMPDEST PUSH1 0x0 DUP2 MLOAD SWAP1 POP PUSH2 0x1E80 DUP2 PUSH2 0x1E5A JUMP JUMPDEST SWAP3 SWAP2 POP POP JUMP JUMPDEST PUSH1 0x0 PUSH1 0x20 DUP3 DUP5 SUB SLT ISZERO PUSH2 0x1E9C JUMPI PUSH2 0x1E9B PUSH2 0x1740 JUMP JUMPDEST JUMPDEST PUSH1 0x0 PUSH2 0x1EAA DUP5 DUP3 DUP6 ADD PUSH2 0x1E71 JUMP JUMPDEST SWAP2 POP POP SWAP3 SWAP2 POP POP JUMP JUMPDEST PUSH32 0x536C697070616765000000000000000000000000000000000000000000000000 PUSH1 0x0 DUP3 ADD MSTORE POP JUMP JUMPDEST PUSH1 0x0 PUSH2 0x1EE9 PUSH1 0x8 DUP4 PUSH2 0x1B52 JUMP JUMPDEST SWAP2 POP PUSH2 0x1EF4 DUP3 PUSH2 0x1EB3 JUMP JUMPDEST PUSH1 0x20 DUP3 ADD SWAP1 POP SWAP2 SWAP1 POP JUMP JUMPDEST PUSH1 0x0 PUSH1 0x20 DUP3 ADD SWAP1 POP DUP2 DUP2 SUB PUSH1 0x0 DUP4 ADD MSTORE PUSH2 0x1F18 DUP2 PUSH2 0x1EDC JUMP JUMPDEST SWAP1 POP SWAP2 SWAP1 POP JUMP JUMPDEST PUSH1 0x0 PUSH2 0x1F2A DUP3 PUSH2 0x174A JUMP JUMPDEST SWAP2 POP PUSH2 0x1F35 DUP4 PUSH2 0x174A JUMP JUMPDEST SWAP3 POP DUP3 DUP3 SUB SWAP1 POP DUP2 DUP2 GT ISZERO PUSH2 0x1F4D JUMPI PUSH2 0x1F4C PUSH2 0x1BCF JUMP JUMPDEST JUMPDEST SWAP3 SWAP2 POP POP JUMP JUMPDEST PUSH1 0x0 PUSH1 0x40 DUP3 ADD SWAP1 POP PUSH2 0x1F68 PUSH1 0x0 DUP4 ADD DUP6 PUSH2 0x1E08 JUMP JUMPDEST PUSH2 0x1F75 PUSH1 0x20 DUP4 ADD DUP5 PUSH2 0x17D3 JUMP JUMPDEST SWAP4 SWAP3 POP POP POP JUMP JUMPDEST PUSH32 0x4E6F4C6971756964697479000000000000000000000000000000000000000000 PUSH1 0x0 DUP3 ADD MSTORE POP JUMP JUMPDEST PUSH1 0x0 PUSH2 0x1FB2 PUSH1 0xB DUP4 PUSH2 0x1B52 JUMP JUMPDEST SWAP2 POP PUSH2 0x1FBD DUP3 PUSH2 0x1F7C JUMP JUMPDEST PUSH1 0x20 DUP3 ADD SWAP1 POP SWAP2 SWAP1 POP JUMP JUMPDEST PUSH1 0x0 PUSH1 0x20 DUP3 ADD SWAP1 POP DUP2 DUP2 SUB PUSH1 0x0 DUP4 ADD MSTORE PUSH2 0x1FE1 DUP2 PUSH2 0x1FA5 JUMP JUMPDEST SWAP1 POP SWAP2 SWAP1 POP JUMP JUMPDEST PUSH32 0x4D696E4E6F744D65740000000000000000000000000000000000000000000000 PUSH1 0x0 DUP3 ADD MSTORE POP JUMP JUMPDEST PUSH1 0x0 PUSH2 0x201E PUSH1 0x9 DUP4 PUSH2 0x1B52 JUMP JUMPDEST SWAP2 POP PUSH2 0x2029 DUP3 PUSH2 0x1FE8 JUMP JUMPDEST PUSH1 0x20 DUP3 ADD SWAP1 POP SWAP2 SWAP1 POP JUMP JUMPDEST PUSH1 0x0 PUSH1 0x20 DUP3 ADD SWAP1 POP DUP2 DUP2 SUB PUSH1 0x0 DUP4 ADD MSTORE PUSH2 0x204D DUP2 PUSH2 0x2011 JUMP JUMPDEST SWAP1 POP SWAP2 SWAP1 POP JUMP JUMPDEST PUSH1 0x0 DUP2 PUSH1 0x60 SHL SWAP1 POP SWAP2 SWAP1 POP JUMP JUMPDEST PUSH1 0x0 PUSH2 0x206C DUP3 PUSH2 0x2054 JUMP JUMPDEST SWAP1 POP SWAP2 SWAP1 POP JUMP JUMPDEST PUSH1 0x0 PUSH2 0x207E DUP3 PUSH2 0x2061 JUMP JUMPDEST SWAP1 POP SWAP2 SWAP1 POP JUMP JUMPDEST PUSH2 0x2096 PUSH2 0x2091 DUP3 PUSH2 0x1882 JUMP JUMPDEST PUSH2 0x2073 JUMP JUMPDEST DUP3 MSTORE POP POP JUMP JUMPDEST PUSH1 0x0 PUSH2 0x20A8 DUP3 DUP6 PUSH2 0x2085 JUMP JUMPDEST PUSH1 0x14 DUP3 ADD SWAP2 POP PUSH2 0x20B8 DUP3 DUP5 PUSH2 0x2085 JUMP JUMPDEST PUSH1 0x14 DUP3 ADD SWAP2 POP DUP2 SWAP1 POP SWAP4 SWAP3 POP POP POP JUMP INVALID LOG2 PUSH5 0x6970667358 0x22 SLT KECCAK256 0x23 BALANCE ADDMOD JUMPDEST PUSH7 0x4994C55C49FA45 0x1E MCOPY 0xC3 0xD5 SLT PUSH16 0xF0ADB9E9684AAD2B7C1BA99AC3E56473 PUSH16 0x6C634300081C00330000000000000000 "},"methodIdentifiers":{"addLiquidity(address,address,uint256,uint256,uint256,uint256,address,uint256)":"e8e33700","getAmountOut(uint256,uint256,uint256)":"054d50d4","getPrice(address,address)":"ac41865a","removeLiquidity(address,address,uint256,uint256,uint256,address,uint256)":"baa2abde","swapExactTokensForTokens(uint256,uint256,address[],address,uint256)":"38ed1739"}}}}}