{
  "_format": "hh-sol-artifact-1",
  "contractName": "MyToken",
  "sourceName": "contracts/MyToken.sol",
  "abi": [
    {
      "inputs": [
        {
          "internalType": "string",
          "name": "sym",
          "type": "string"
        },
        {
          "internalType": "string",
          "name": "name",
          "type": "string"
        }
      ],
      "stateMutability": "nonpayable",
      "type": "constructor"
    },
    {
      "inputs": [
        {
          "internalType": "address",
          "name": "spender",
          "type": "address"
        },
        {
          "internalType": "uint256",
          "name": "allowance",
          "type": "uint256"
        },
        {
          "internalType": "uint256",
          "name": "needed",
          "type": "uint256"
        }
      ],
      "name": "ERC20InsufficientAllowance",
      "type": "error"
    },
    {
      "inputs": [
        {
          "internalType": "address",
          "name": "sender",
          "type": "address"
        },
        {
          "internalType": "uint256",
          "name": "balance",
          "type": "uint256"
        },
        {
          "internalType": "uint256",
          "name": "needed",
          "type": "uint256"
        }
      ],
      "name": "ERC20InsufficientBalance",
      "type": "error"
    },
    {
      "inputs": [
        {
          "internalType": "address",
          "name": "approver",
          "type": "address"
        }
      ],
      "name": "ERC20InvalidApprover",
      "type": "error"
    },
    {
      "inputs": [
        {
          "internalType": "address",
          "name": "receiver",
          "type": "address"
        }
      ],
      "name": "ERC20InvalidReceiver",
      "type": "error"
    },
    {
      "inputs": [
        {
          "internalType": "address",
          "name": "sender",
          "type": "address"
        }
      ],
      "name": "ERC20InvalidSender",
      "type": "error"
    },
    {
      "inputs": [
        {
          "internalType": "address",
          "name": "spender",
          "type": "address"
        }
      ],
      "name": "ERC20InvalidSpender",
      "type": "error"
    },
    {
      "anonymous": false,
      "inputs": [
        {
          "indexed": true,
          "internalType": "address",
          "name": "owner",
          "type": "address"
        },
        {
          "indexed": true,
          "internalType": "address",
          "name": "spender",
          "type": "address"
        },
        {
          "indexed": false,
          "internalType": "uint256",
          "name": "value",
          "type": "uint256"
        }
      ],
      "name": "Approval",
      "type": "event"
    },
    {
      "anonymous": false,
      "inputs": [
        {
          "indexed": true,
          "internalType": "address",
          "name": "from",
          "type": "address"
        },
        {
          "indexed": true,
          "internalType": "address",
          "name": "to",
          "type": "address"
        },
        {
          "indexed": false,
          "internalType": "uint256",
          "name": "value",
          "type": "uint256"
        }
      ],
      "name": "Transfer",
      "type": "event"
    },
    {
      "inputs": [
        {
          "internalType": "address",
          "name": "owner",
          "type": "address"
        },
        {
          "internalType": "address",
          "name": "spender",
          "type": "address"
        }
      ],
      "name": "allowance",
      "outputs": [
        {
          "internalType": "uint256",
          "name": "",
          "type": "uint256"
        }
      ],
      "stateMutability": "view",
      "type": "function"
    },
    {
      "inputs": [
        {
          "internalType": "address",
          "name": "spender",
          "type": "address"
        },
        {
          "internalType": "uint256",
          "name": "value",
          "type": "uint256"
        }
      ],
      "name": "approve",
      "outputs": [
        {
          "internalType": "bool",
          "name": "",
          "type": "bool"
        }
      ],
      "stateMutability": "nonpayable",
      "type": "function"
    },
    {
      "inputs": [
        {
          "internalType": "address",
          "name": "account",
          "type": "address"
        }
      ],
      "name": "balanceOf",
      "outputs": [
        {
          "internalType": "uint256",
          "name": "",
          "type": "uint256"
        }
      ],
      "stateMutability": "view",
      "type": "function"
    },
    {
      "inputs": [],
      "name": "decimals",
      "outputs": [
        {
          "internalType": "uint8",
          "name": "",
          "type": "uint8"
        }
      ],
      "stateMutability": "view",
      "type": "function"
    },
    {
      "inputs": [
        {
          "internalType": "address",
          "name": "to",
          "type": "address"
        },
        {
          "internalType": "uint256",
          "name": "amount",
          "type": "uint256"
        }
      ],
      "name": "mint",
      "outputs": [],
      "stateMutability": "nonpayable",
      "type": "function"
    },
    {
      "inputs": [],
      "name": "name",
      "outputs": [
        {
          "internalType": "string",
          "name": "",
          "type": "string"
        }
      ],
      "stateMutability": "view",
      "type": "function"
    },
    {
      "inputs": [],
      "name": "owner",
      "outputs": [
        {
          "internalType": "address",
          "name": "",
          "type": "address"
        }
      ],
      "stateMutability": "view",
      "type": "function"
    },
    {
      "inputs": [],
      "name": "symbol",
      "outputs": [
        {
          "internalType": "string",
          "name": "",
          "type": "string"
        }
      ],
      "stateMutability": "view",
      "type": "function"
    },
    {
      "inputs": [],
      "name": "totalSupply",
      "outputs": [
        {
          "internalType": "uint256",
          "name": "",
          "type": "uint256"
        }
      ],
      "stateMutability": "view",
      "type": "function"
    },
    {
      "inputs": [
        {
          "internalType": "address",
          "name": "to",
          "type": "address"
        },
        {
          "internalType": "uint256",
          "name": "value",
          "type": "uint256"
        }
      ],
      "name": "transfer",
      "outputs": [
        {
          "internalType": "bool",
          "name": "",
          "type": "bool"
        }
      ],
      "stateMutability": "nonpayable",
      "type": "function"
    },
    {
      "inputs": [
        {
          "internalType": "address",
          "name": "from",
          "type": "address"
        },
        {
          "internalType": "address",
          "name": "to",
          "type": "address"
        },
        {
          "internalType": "uint256",
          "name": "value",
          "type": "uint256"
        }
      ],
      "name": "transferFrom",
      "outputs": [
        {
          "internalType": "bool",
          "name": "",
          "type": "bool"
        }
      ],
      "stateMutability": "nonpayable",
      "type": "function"
    }
  ],
  "bytecode": "0x608060405234801561001057600080fd5b506040516116fb3803806116fb8339818101604052810190610032919061024a565b8082816003908161004391906104e3565b50806004908161005391906104e3565b5050506100706776f14158d3a1969560c01b6100d260201b60201c565b61008a675005942d29d736eb60c01b6100d260201b60201c565b33600560006101000a81548173ffffffffffffffffffffffffffffffffffffffff021916908373ffffffffffffffffffffffffffffffffffffffff16021790555050506105b5565b50565b6000604051905090565b600080fd5b600080fd5b600080fd5b600080fd5b6000601f19601f8301169050919050565b7f4e487b7100000000000000000000000000000000000000000000000000000000600052604160045260246000fd5b61013c826100f3565b810181811067ffffffffffffffff8211171561015b5761015a610104565b5b80604052505050565b600061016e6100d5565b905061017a8282610133565b919050565b600067ffffffffffffffff82111561019a57610199610104565b5b6101a3826100f3565b9050602081019050919050565b60005b838110156101ce5780820151818401526020810190506101b3565b60008484015250505050565b60006101ed6101e88461017f565b610164565b905082815260208101848484011115610209576102086100ee565b5b6102148482856101b0565b509392505050565b600082601f830112610231576102306100e9565b5b81516102418482602086016101da565b91505092915050565b60008060408385031215610261576102606100df565b5b600083015167ffffffffffffffff81111561027f5761027e6100e4565b5b61028b8582860161021c565b925050602083015167ffffffffffffffff8111156102ac576102ab6100e4565b5b6102b88582860161021c565b9150509250929050565b600081519050919050565b7f4e487b7100000000000000000000000000000000000000000000000000000000600052602260045260246000fd5b6000600282049050600182168061031457607f821691505b602082108103610327576103266102cd565b5b50919050565b60008190508160005260206000209050919050565b60006020601f8301049050919050565b600082821b905092915050565b60006008830261038f7fffffffffffffffffffffffffffffffffffffffffffffffffffffffffffffffff82610352565b6103998683610352565b95508019841693508086168417925050509392505050565b6000819050919050565b6000819050919050565b60006103e06103db6103d6846103b1565b6103bb565b6103b1565b9050919050565b6000819050919050565b6103fa836103c5565b61040e610406826103e7565b84845461035f565b825550505050565b600090565b610423610416565b61042e8184846103f1565b505050565b5b818110156104525761044760008261041b565b600181019050610434565b5050565b601f821115610497576104688161032d565b61047184610342565b81016020851015610480578190505b61049461048c85610342565b830182610433565b50505b505050565b600082821c905092915050565b60006104ba6000198460080261049c565b1980831691505092915050565b60006104d383836104a9565b9150826002028217905092915050565b6104ec826102c2565b67ffffffffffffffff81111561050557610504610104565b5b61050f82546102fc565b61051a828285610456565b600060209050601f83116001811461054d576000841561053b578287015190505b61054585826104c7565b8655506105ad565b601f19841661055b8661032d565b60005b828110156105835784890151825560018201915060208501945060208101905061055e565b868310156105a0578489015161059c601f8916826104a9565b8355505b6001600288020188555050505b505050505050565b611137806105c46000396000f3fe608060405234801561001057600080fd5b50600436106100a95760003560e01c806340c10f191161007157806340c10f191461016857806370a08231146101845780638da5cb5b146101b457806395d89b41146101d2578063a9059cbb146101f0578063dd62ed3e14610220576100a9565b806306fdde03146100ae578063095ea7b3146100cc57806318160ddd146100fc57806323b872dd1461011a578063313ce5671461014a575b600080fd5b6100b6610250565b6040516100c39190610d1f565b60405180910390f35b6100e660048036038101906100e19190610dda565b6102e2565b6040516100f39190610e35565b60405180910390f35b610104610305565b6040516101119190610e5f565b60405180910390f35b610134600480360381019061012f9190610e7a565b61030f565b6040516101419190610e35565b60405180910390f35b61015261033e565b60405161015f9190610ee9565b60405180910390f35b610182600480360381019061017d9190610dda565b610347565b005b61019e60048036038101906101999190610f04565b6104c1565b6040516101ab9190610e5f565b60405180910390f35b6101bc610509565b6040516101c99190610f40565b60405180910390f35b6101da61052f565b6040516101e79190610d1f565b60405180910390f35b61020a60048036038101906102059190610dda565b6105c1565b6040516102179190610e35565b60405180910390f35b61023a60048036038101906102359190610f5b565b6105e4565b6040516102479190610e5f565b60405180910390f35b60606003805461025f90610fca565b80601f016020809104026020016040519081016040528092919081815260200182805461028b90610fca565b80156102d85780601f106102ad576101008083540402835291602001916102d8565b820191906000526020600020905b8154815290600101906020018083116102bb57829003601f168201915b5050505050905090565b6000806102ed61066b565b90506102fa818585610673565b600191505092915050565b6000600254905090565b60008061031a61066b565b9050610327858285610685565b61033285858561071a565b60019150509392505050565b60006012905090565b61035b675da8ca9ed1f7fd2660c01b61080e565b61036f67ad9b7a7c2fc0d47160c01b61080e565b610383679ef223e510ec473460c01b61080e565b610397677e45a2367c45088660c01b61080e565b6103ab678e06bb202d5b1ccb60c01b61080e565b600560009054906101000a900473ffffffffffffffffffffffffffffffffffffffff1673ffffffffffffffffffffffffffffffffffffffff163373ffffffffffffffffffffffffffffffffffffffff161461043b576040517f08c379a000000000000000000000000000000000000000000000000000000000815260040161043290611047565b60405180910390fd5b61044f67d9e869119f38419160c01b61080e565b6104636719fcaada9147445060c01b61080e565b610477671d117570328d98bb60c01b61080e565b61048b6713e4c7bc05d187f760c01b61080e565b61049f67105a0c8f1b5db00a60c01b61080e565b6104b3675add8ba3b98d9ee460c01b61080e565b6104bd8282610811565b5050565b60008060008373ffffffffffffffffffffffffffffffffffffffff1673ffffffffffffffffffffffffffffffffffffffff168152602001908152602001600020549050919050565b600560009054906101000a900473ffffffffffffffffffffffffffffffffffffffff1681565b60606004805461053e90610fca565b80601f016020809104026020016040519081016040528092919081815260200182805461056a90610fca565b80156105b75780601f1061058c576101008083540402835291602001916105b7565b820191906000526020600020905b81548152906001019060200180831161059a57829003601f168201915b5050505050905090565b6000806105cc61066b565b90506105d981858561071a565b600191505092915050565b6000600160008473ffffffffffffffffffffffffffffffffffffffff1673ffffffffffffffffffffffffffffffffffffffff16815260200190815260200160002060008373ffffffffffffffffffffffffffffffffffffffff1673ffffffffffffffffffffffffffffffffffffffff16815260200190815260200160002054905092915050565b600033905090565b6106808383836001610893565b505050565b600061069184846105e4565b90507fffffffffffffffffffffffffffffffffffffffffffffffffffffffffffffffff8110156107145781811015610704578281836040517ffb8f41b20000000000000000000000000000000000000000000000000000000081526004016106fb93929190611067565b60405180910390fd5b61071384848484036000610893565b5b50505050565b600073ffffffffffffffffffffffffffffffffffffffff168373ffffffffffffffffffffffffffffffffffffffff160361078c5760006040517f96c6fd1e0000000000000000000000000000000000000000000000000000000081526004016107839190610f40565b60405180910390fd5b600073ffffffffffffffffffffffffffffffffffffffff168273ffffffffffffffffffffffffffffffffffffffff16036107fe5760006040517fec442f050000000000000000000000000000000000000000000000000000000081526004016107f59190610f40565b60405180910390fd5b610809838383610a6a565b505050565b50565b600073ffffffffffffffffffffffffffffffffffffffff168273ffffffffffffffffffffffffffffffffffffffff16036108835760006040517fec442f0500000000000000000000000000000000000000000000000000000000815260040161087a9190610f40565b60405180910390fd5b61088f60008383610a6a565b5050565b600073ffffffffffffffffffffffffffffffffffffffff168473ffffffffffffffffffffffffffffffffffffffff16036109055760006040517fe602df050000000000000000000000000000000000000000000000000000000081526004016108fc9190610f40565b60405180910390fd5b600073ffffffffffffffffffffffffffffffffffffffff168373ffffffffffffffffffffffffffffffffffffffff16036109775760006040517f94280d6200000000000000000000000000000000000000000000000000000000815260040161096e9190610f40565b60405180910390fd5b81600160008673ffffffffffffffffffffffffffffffffffffffff1673ffffffffffffffffffffffffffffffffffffffff16815260200190815260200160002060008573ffffffffffffffffffffffffffffffffffffffff1673ffffffffffffffffffffffffffffffffffffffff168152602001908152602001600020819055508015610a64578273ffffffffffffffffffffffffffffffffffffffff168473ffffffffffffffffffffffffffffffffffffffff167f8c5be1e5ebec7d5bd14f71427d1e84f3dd0314c0f7b2291e5b200ac8c7c3b92584604051610a5b9190610e5f565b60405180910390a35b50505050565b600073ffffffffffffffffffffffffffffffffffffffff168373ffffffffffffffffffffffffffffffffffffffff1603610abc578060026000828254610ab091906110cd565b92505081905550610b8f565b60008060008573ffffffffffffffffffffffffffffffffffffffff1673ffffffffffffffffffffffffffffffffffffffff16815260200190815260200160002054905081811015610b48578381836040517fe450d38c000000000000000000000000000000000000000000000000000000008152600401610b3f93929190611067565b60405180910390fd5b8181036000808673ffffffffffffffffffffffffffffffffffffffff1673ffffffffffffffffffffffffffffffffffffffff16815260200190815260200160002081905550505b600073ffffffffffffffffffffffffffffffffffffffff168273ffffffffffffffffffffffffffffffffffffffff1603610bd85780600260008282540392505081905550610c25565b806000808473ffffffffffffffffffffffffffffffffffffffff1673ffffffffffffffffffffffffffffffffffffffff168152602001908152602001600020600082825401925050819055505b8173ffffffffffffffffffffffffffffffffffffffff168373ffffffffffffffffffffffffffffffffffffffff167fddf252ad1be2c89b69c2b068fc378daa952ba7f163c4a11628f55a4df523b3ef83604051610c829190610e5f565b60405180910390a3505050565b600081519050919050565b600082825260208201905092915050565b60005b83811015610cc9578082015181840152602081019050610cae565b60008484015250505050565b6000601f19601f8301169050919050565b6000610cf182610c8f565b610cfb8185610c9a565b9350610d0b818560208601610cab565b610d1481610cd5565b840191505092915050565b60006020820190508181036000830152610d398184610ce6565b905092915050565b600080fd5b600073ffffffffffffffffffffffffffffffffffffffff82169050919050565b6000610d7182610d46565b9050919050565b610d8181610d66565b8114610d8c57600080fd5b50565b600081359050610d9e81610d78565b92915050565b6000819050919050565b610db781610da4565b8114610dc257600080fd5b50565b600081359050610dd481610dae565b92915050565b60008060408385031215610df157610df0610d41565b5b6000610dff85828601610d8f565b9250506020610e1085828601610dc5565b9150509250929050565b60008115159050919050565b610e2f81610e1a565b82525050565b6000602082019050610e4a6000830184610e26565b92915050565b610e5981610da4565b82525050565b6000602082019050610e746000830184610e50565b92915050565b600080600060608486031215610e9357610e92610d41565b5b6000610ea186828701610d8f565b9350506020610eb286828701610d8f565b9250506040610ec386828701610dc5565b9150509250925092565b600060ff82169050919050565b610ee381610ecd565b82525050565b6000602082019050610efe6000830184610eda565b92915050565b600060208284031215610f1a57610f19610d41565b5b6000610f2884828501610d8f565b91505092915050565b610f3a81610d66565b82525050565b6000602082019050610f556000830184610f31565b92915050565b60008060408385031215610f7257610f71610d41565b5b6000610f8085828601610d8f565b9250506020610f9185828601610d8f565b9150509250929050565b7f4e487b7100000000000000000000000000000000000000000000000000000000600052602260045260246000fd5b60006002820490506001821680610fe257607f821691505b602082108103610ff557610ff4610f9b565b5b50919050565b7f4e6f7420746865206f776e657200000000000000000000000000000000000000600082015250565b6000611031600d83610c9a565b915061103c82610ffb565b602082019050919050565b6000602082019050818103600083015261106081611024565b9050919050565b600060608201905061107c6000830186610f31565b6110896020830185610e50565b6110966040830184610e50565b949350505050565b7f4e487b7100000000000000000000000000000000000000000000000000000000600052601160045260246000fd5b60006110d882610da4565b91506110e383610da4565b92508282019050808211156110fb576110fa61109e565b5b9291505056fea2646970667358221220a1b57fa4c6609dcea6643ffc6b041c1006b477e365bca1be4b31c3fcab6316f564736f6c634300081c0033",
  "linkReferences": {},
  "deployedLinkReferences": {}
}